{
  "contractName": "AccessControl",
  "abi": [
    {
      "constant": true,
      "inputs": [],
      "name": "ceoAddress",
      "outputs": [
        {
          "name": "",
          "type": "address"
        }
      ],
      "payable": false,
      "stateMutability": "view",
      "type": "function"
    },
    {
      "constant": true,
      "inputs": [],
      "name": "paused",
      "outputs": [
        {
          "name": "",
          "type": "bool"
        }
      ],
      "payable": false,
      "stateMutability": "view",
      "type": "function"
    },
    {
      "constant": true,
      "inputs": [],
      "name": "cooAddress",
      "outputs": [
        {
          "name": "",
          "type": "address"
        }
      ],
      "payable": false,
      "stateMutability": "view",
      "type": "function"
    },
    {
      "inputs": [],
      "payable": false,
      "stateMutability": "nonpayable",
      "type": "constructor"
    },
    {
      "constant": false,
      "inputs": [
        {
          "name": "_newCEO",
          "type": "address"
        }
      ],
      "name": "setCEO",
      "outputs": [],
      "payable": false,
      "stateMutability": "nonpayable",
      "type": "function"
    },
    {
      "constant": false,
      "inputs": [
        {
          "name": "_newCOO",
          "type": "address"
        }
      ],
      "name": "setCOO",
      "outputs": [],
      "payable": false,
      "stateMutability": "nonpayable",
      "type": "function"
    },
    {
      "constant": false,
      "inputs": [],
      "name": "pause",
      "outputs": [],
      "payable": false,
      "stateMutability": "nonpayable",
      "type": "function"
    },
    {
      "constant": false,
      "inputs": [],
      "name": "unpause",
      "outputs": [],
      "payable": false,
      "stateMutability": "nonpayable",
      "type": "function"
    }
  ],
  "bytecode": "0x60606040526000600160146101000a81548160ff021916908315150217905550341561002a57600080fd5b336000806101000a81548173ffffffffffffffffffffffffffffffffffffffff021916908373ffffffffffffffffffffffffffffffffffffffff16021790555033600160006101000a81548173ffffffffffffffffffffffffffffffffffffffff021916908373ffffffffffffffffffffffffffffffffffffffff160217905550610560806100ba6000396000f300606060405260043610610083576000357c0100000000000000000000000000000000000000000000000000000000900463ffffffff1680630a0f81681461008857806327d7874c146100dd5780632ba73c15146101165780633f4ba83a1461014f5780635c975abb146101645780638456cb5914610191578063b047fb50146101a6575b600080fd5b341561009357600080fd5b61009b6101fb565b604051808273ffffffffffffffffffffffffffffffffffffffff1673ffffffffffffffffffffffffffffffffffffffff16815260200191505060405180910390f35b34156100e857600080fd5b610114600480803573ffffffffffffffffffffffffffffffffffffffff16906020019091905050610220565b005b341561012157600080fd5b61014d600480803573ffffffffffffffffffffffffffffffffffffffff169060200190919050506102fa565b005b341561015a57600080fd5b6101626103d5565b005b341561016f57600080fd5b610177610468565b604051808215151515815260200191505060405180910390f35b341561019c57600080fd5b6101a461047b565b005b34156101b157600080fd5b6101b961050e565b604051808273ffffffffffffffffffffffffffffffffffffffff1673ffffffffffffffffffffffffffffffffffffffff16815260200191505060405180910390f35b6000809054906101000a900473ffffffffffffffffffffffffffffffffffffffff1681565b6000809054906101000a900473ffffffffffffffffffffffffffffffffffffffff1673ffffffffffffffffffffffffffffffffffffffff163373ffffffffffffffffffffffffffffffffffffffff1614151561027b57600080fd5b600073ffffffffffffffffffffffffffffffffffffffff168173ffffffffffffffffffffffffffffffffffffffff16141515156102b757600080fd5b806000806101000a81548173ffffffffffffffffffffffffffffffffffffffff021916908373ffffffffffffffffffffffffffffffffffffffff16021790555050565b6000809054906101000a900473ffffffffffffffffffffffffffffffffffffffff1673ffffffffffffffffffffffffffffffffffffffff163373ffffffffffffffffffffffffffffffffffffffff1614151561035557600080fd5b600073ffffffffffffffffffffffffffffffffffffffff168173ffffffffffffffffffffffffffffffffffffffff161415151561039157600080fd5b80600160006101000a81548173ffffffffffffffffffffffffffffffffffffffff021916908373ffffffffffffffffffffffffffffffffffffffff16021790555050565b6000809054906101000a900473ffffffffffffffffffffffffffffffffffffffff1673ffffffffffffffffffffffffffffffffffffffff163373ffffffffffffffffffffffffffffffffffffffff1614151561043057600080fd5b600160149054906101000a900460ff16151561044b57600080fd5b6000600160146101000a81548160ff021916908315150217905550565b600160149054906101000a900460ff1681565b6000809054906101000a900473ffffffffffffffffffffffffffffffffffffffff1673ffffffffffffffffffffffffffffffffffffffff163373ffffffffffffffffffffffffffffffffffffffff161415156104d657600080fd5b600160149054906101000a900460ff161515156104f257600080fd5b60018060146101000a81548160ff021916908315150217905550565b600160009054906101000a900473ffffffffffffffffffffffffffffffffffffffff16815600a165627a7a72305820e2c1798d528baee8ba13fc1aab8b236d9fda7dd66f78117bd860cbd024a92e9f0029",
  "source": "pragma solidity ^0.4.18;\n\n\n// inspired by\n// https://github.com/axiomzen/cryptokitties-bounty/blob/master/contracts/KittyAccessControl.sol\ncontract AccessControl {\n    /// @dev The addresses of the accounts (or contracts) that can execute actions within each roles\n    address public ceoAddress;\n    address public cooAddress;\n\n    /// @dev Keeps track whether the contract is paused. When that is true, most actions are blocked\n    bool public paused = false;\n\n    /// @dev The AccessControl constructor sets the original C roles of the contract to the sender account\n    function AccessControl() public {\n        ceoAddress = msg.sender;\n        cooAddress = msg.sender;\n    }\n\n    /// @dev Access modifier for CEO-only functionality\n    modifier onlyCEO() {\n        require(msg.sender == ceoAddress);\n        _;\n    }\n\n    /// @dev Access modifier for COO-only functionality\n    modifier onlyCOO() {\n        require(msg.sender == cooAddress);\n        _;\n    }\n\n    /// @dev Access modifier for any CLevel functionality\n    modifier onlyCLevel() {\n        require(msg.sender == ceoAddress || msg.sender == cooAddress);\n        _;\n    }\n\n    /// @dev Assigns a new address to act as the CEO. Only available to the current CEO\n    /// @param _newCEO The address of the new CEO\n    function setCEO(address _newCEO) public onlyCEO {\n        require(_newCEO != address(0));\n        ceoAddress = _newCEO;\n    }\n\n    /// @dev Assigns a new address to act as the COO. Only available to the current CEO\n    /// @param _newCOO The address of the new COO\n    function setCOO(address _newCOO) public onlyCEO {\n        require(_newCOO != address(0));\n        cooAddress = _newCOO;\n    }\n\n    /// @dev Modifier to allow actions only when the contract IS NOT paused\n    modifier whenNotPaused() {\n        require(!paused);\n        _;\n    }\n\n    /// @dev Modifier to allow actions only when the contract IS paused\n    modifier whenPaused {\n        require(paused);\n        _;\n    }\n\n    /// @dev Pause the smart contract. Only can be called by the CEO\n    function pause() public onlyCEO whenNotPaused {\n        paused = true;\n    }\n\n    /// @dev Unpauses the smart contract. Only can be called by the CEO\n    function unpause() public onlyCEO whenPaused {\n        paused = false;\n    }\n}",
  "sourcePath": "/home/quentin/CryptoCards/contracts/AccessControl.sol",
  "compiler": {
    "name": "solc",
    "version": "0.4.19+commit.c4cbbb05.Emscripten.clang"
  },
  "schemaVersion": "2.0.0",
  "updatedAt": "2018-03-26T02:58:56.681Z"
}