{
  "contractName": "CardAuction",
  "abi": [
    {
      "constant": true,
      "inputs": [],
      "name": "skillScience",
      "outputs": [
        {
          "name": "",
          "type": "address"
        }
      ],
      "payable": false,
      "stateMutability": "view",
      "type": "function"
    },
    {
      "constant": true,
      "inputs": [],
      "name": "name",
      "outputs": [
        {
          "name": "",
          "type": "string"
        }
      ],
      "payable": false,
      "stateMutability": "view",
      "type": "function"
    },
    {
      "constant": true,
      "inputs": [],
      "name": "ceoAddress",
      "outputs": [
        {
          "name": "",
          "type": "address"
        }
      ],
      "payable": false,
      "stateMutability": "view",
      "type": "function"
    },
    {
      "constant": false,
      "inputs": [
        {
          "name": "val",
          "type": "uint256"
        }
      ],
      "name": "setAutoCombineFee",
      "outputs": [],
      "payable": false,
      "stateMutability": "nonpayable",
      "type": "function"
    },
    {
      "constant": false,
      "inputs": [
        {
          "name": "_newCEO",
          "type": "address"
        }
      ],
      "name": "setCEO",
      "outputs": [],
      "payable": false,
      "stateMutability": "nonpayable",
      "type": "function"
    },
    {
      "constant": false,
      "inputs": [
        {
          "name": "_newCOO",
          "type": "address"
        }
      ],
      "name": "setCOO",
      "outputs": [],
      "payable": false,
      "stateMutability": "nonpayable",
      "type": "function"
    },
    {
      "constant": true,
      "inputs": [
        {
          "name": "",
          "type": "uint256"
        }
      ],
      "name": "cardIndexToApproved",
      "outputs": [
        {
          "name": "",
          "type": "address"
        }
      ],
      "payable": false,
      "stateMutability": "view",
      "type": "function"
    },
    {
      "constant": false,
      "inputs": [
        {
          "name": "_cardId",
          "type": "uint256"
        },
        {
          "name": "_startingPrice",
          "type": "uint256"
        },
        {
          "name": "_endingPrice",
          "type": "uint256"
        },
        {
          "name": "_duration",
          "type": "uint256"
        }
      ],
      "name": "createSaleAuction",
      "outputs": [],
      "payable": false,
      "stateMutability": "nonpayable",
      "type": "function"
    },
    {
      "constant": false,
      "inputs": [],
      "name": "unpause",
      "outputs": [],
      "payable": false,
      "stateMutability": "nonpayable",
      "type": "function"
    },
    {
      "constant": false,
      "inputs": [
        {
          "name": "_address",
          "type": "address"
        }
      ],
      "name": "setSkillScienceAddress",
      "outputs": [],
      "payable": false,
      "stateMutability": "nonpayable",
      "type": "function"
    },
    {
      "constant": true,
      "inputs": [
        {
          "name": "_cardId",
          "type": "uint256"
        }
      ],
      "name": "isReadyToCombine",
      "outputs": [
        {
          "name": "",
          "type": "bool"
        }
      ],
      "payable": false,
      "stateMutability": "view",
      "type": "function"
    },
    {
      "constant": true,
      "inputs": [],
      "name": "paused",
      "outputs": [
        {
          "name": "",
          "type": "bool"
        }
      ],
      "payable": false,
      "stateMutability": "view",
      "type": "function"
    },
    {
      "constant": false,
      "inputs": [
        {
          "name": "_firstIngredientId",
          "type": "uint256"
        }
      ],
      "name": "spawnCard",
      "outputs": [
        {
          "name": "",
          "type": "uint256"
        }
      ],
      "payable": false,
      "stateMutability": "nonpayable",
      "type": "function"
    },
    {
      "constant": false,
      "inputs": [
        {
          "name": "_address",
          "type": "address"
        }
      ],
      "name": "setSaleAuctionAddress",
      "outputs": [],
      "payable": false,
      "stateMutability": "nonpayable",
      "type": "function"
    },
    {
      "constant": true,
      "inputs": [],
      "name": "autoCombineFee",
      "outputs": [
        {
          "name": "",
          "type": "uint256"
        }
      ],
      "payable": false,
      "stateMutability": "view",
      "type": "function"
    },
    {
      "constant": true,
      "inputs": [
        {
          "name": "",
          "type": "uint256"
        }
      ],
      "name": "cardIndexToOwner",
      "outputs": [
        {
          "name": "",
          "type": "address"
        }
      ],
      "payable": false,
      "stateMutability": "view",
      "type": "function"
    },
    {
      "constant": true,
      "inputs": [],
      "name": "secondsPerBlock",
      "outputs": [
        {
          "name": "",
          "type": "uint256"
        }
      ],
      "payable": false,
      "stateMutability": "view",
      "type": "function"
    },
    {
      "constant": false,
      "inputs": [],
      "name": "pause",
      "outputs": [],
      "payable": false,
      "stateMutability": "nonpayable",
      "type": "function"
    },
    {
      "constant": true,
      "inputs": [
        {
          "name": "_owner",
          "type": "address"
        }
      ],
      "name": "tokensOfOwner",
      "outputs": [
        {
          "name": "ownerTokens",
          "type": "uint256[]"
        }
      ],
      "payable": false,
      "stateMutability": "view",
      "type": "function"
    },
    {
      "constant": true,
      "inputs": [],
      "name": "symbol",
      "outputs": [
        {
          "name": "",
          "type": "string"
        }
      ],
      "payable": false,
      "stateMutability": "view",
      "type": "function"
    },
    {
      "constant": true,
      "inputs": [
        {
          "name": "",
          "type": "uint256"
        }
      ],
      "name": "cooldowns",
      "outputs": [
        {
          "name": "",
          "type": "uint32"
        }
      ],
      "payable": false,
      "stateMutability": "view",
      "type": "function"
    },
    {
      "constant": true,
      "inputs": [],
      "name": "combiningCards",
      "outputs": [
        {
          "name": "",
          "type": "uint256"
        }
      ],
      "payable": false,
      "stateMutability": "view",
      "type": "function"
    },
    {
      "constant": true,
      "inputs": [],
      "name": "cooAddress",
      "outputs": [
        {
          "name": "",
          "type": "address"
        }
      ],
      "payable": false,
      "stateMutability": "view",
      "type": "function"
    },
    {
      "constant": false,
      "inputs": [
        {
          "name": "_firstIngredientId",
          "type": "uint256"
        },
        {
          "name": "_secondIngredientId",
          "type": "uint256"
        }
      ],
      "name": "combineWith",
      "outputs": [],
      "payable": false,
      "stateMutability": "nonpayable",
      "type": "function"
    },
    {
      "constant": true,
      "inputs": [],
      "name": "saleAuction",
      "outputs": [
        {
          "name": "",
          "type": "address"
        }
      ],
      "payable": false,
      "stateMutability": "view",
      "type": "function"
    },
    {
      "constant": true,
      "inputs": [
        {
          "name": "_firstIngredientId",
          "type": "uint256"
        },
        {
          "name": "_secondIngredientId",
          "type": "uint256"
        }
      ],
      "name": "canCombineWith",
      "outputs": [
        {
          "name": "",
          "type": "bool"
        }
      ],
      "payable": false,
      "stateMutability": "view",
      "type": "function"
    },
    {
      "anonymous": false,
      "inputs": [
        {
          "indexed": false,
          "name": "owner",
          "type": "address"
        },
        {
          "indexed": false,
          "name": "firstIngredientId",
          "type": "uint256"
        },
        {
          "indexed": false,
          "name": "secondIngredientId",
          "type": "uint256"
        }
      ],
      "name": "Combining",
      "type": "event"
    },
    {
      "anonymous": false,
      "inputs": [
        {
          "indexed": false,
          "name": "cardId",
          "type": "uint256"
        },
        {
          "indexed": false,
          "name": "cooldownEndBlock",
          "type": "uint256"
        }
      ],
      "name": "AutoCombine",
      "type": "event"
    },
    {
      "anonymous": false,
      "inputs": [
        {
          "indexed": false,
          "name": "from",
          "type": "address"
        },
        {
          "indexed": false,
          "name": "to",
          "type": "address"
        },
        {
          "indexed": false,
          "name": "tokenId",
          "type": "uint256"
        }
      ],
      "name": "Transfer",
      "type": "event"
    },
    {
      "anonymous": false,
      "inputs": [
        {
          "indexed": false,
          "name": "owner",
          "type": "address"
        },
        {
          "indexed": false,
          "name": "approved",
          "type": "address"
        },
        {
          "indexed": false,
          "name": "tokenId",
          "type": "uint256"
        }
      ],
      "name": "Approval",
      "type": "event"
    },
    {
      "anonymous": false,
      "inputs": [
        {
          "indexed": false,
          "name": "owner",
          "type": "address"
        },
        {
          "indexed": false,
          "name": "tokenId",
          "type": "uint256"
        },
        {
          "indexed": false,
          "name": "skills",
          "type": "uint128"
        },
        {
          "indexed": false,
          "name": "name",
          "type": "bytes32"
        }
      ],
      "name": "Spawn",
      "type": "event"
    },
    {
      "constant": true,
      "inputs": [],
      "name": "totalSupply",
      "outputs": [
        {
          "name": "",
          "type": "uint256"
        }
      ],
      "payable": false,
      "stateMutability": "view",
      "type": "function"
    },
    {
      "constant": true,
      "inputs": [
        {
          "name": "_owner",
          "type": "address"
        }
      ],
      "name": "balanceOf",
      "outputs": [
        {
          "name": "count",
          "type": "uint256"
        }
      ],
      "payable": false,
      "stateMutability": "view",
      "type": "function"
    },
    {
      "constant": true,
      "inputs": [
        {
          "name": "_tokenId",
          "type": "uint256"
        }
      ],
      "name": "ownerOf",
      "outputs": [
        {
          "name": "owner",
          "type": "address"
        }
      ],
      "payable": false,
      "stateMutability": "view",
      "type": "function"
    },
    {
      "constant": false,
      "inputs": [
        {
          "name": "_to",
          "type": "address"
        },
        {
          "name": "_tokenId",
          "type": "uint256"
        }
      ],
      "name": "approve",
      "outputs": [],
      "payable": false,
      "stateMutability": "nonpayable",
      "type": "function"
    },
    {
      "constant": false,
      "inputs": [
        {
          "name": "_to",
          "type": "address"
        },
        {
          "name": "_tokenId",
          "type": "uint256"
        }
      ],
      "name": "transfer",
      "outputs": [],
      "payable": false,
      "stateMutability": "nonpayable",
      "type": "function"
    },
    {
      "constant": false,
      "inputs": [
        {
          "name": "_from",
          "type": "address"
        },
        {
          "name": "_to",
          "type": "address"
        },
        {
          "name": "_tokenId",
          "type": "uint256"
        }
      ],
      "name": "transferFrom",
      "outputs": [],
      "payable": false,
      "stateMutability": "nonpayable",
      "type": "function"
    },
    {
      "constant": true,
      "inputs": [
        {
          "name": "_interfaceID",
          "type": "bytes4"
        }
      ],
      "name": "supportsInterface",
      "outputs": [
        {
          "name": "",
          "type": "bool"
        }
      ],
      "payable": false,
      "stateMutability": "view",
      "type": "function"
    }
  ],
  "bytecode": "0x60606040526000600160146101000a81548160ff0219169083151502179055506101c060405190810160405280603c63ffffffff1663ffffffff168152602001607863ffffffff1663ffffffff16815260200161012c63ffffffff1663ffffffff16815260200161025863ffffffff1663ffffffff16815260200161070863ffffffff1663ffffffff168152602001610e1063ffffffff1663ffffffff168152602001611c2063ffffffff1663ffffffff16815260200161384063ffffffff1663ffffffff16815260200161708063ffffffff1663ffffffff16815260200161e10063ffffffff1663ffffffff1681526020016201518063ffffffff1663ffffffff1681526020016202a30063ffffffff1663ffffffff1681526020016205460063ffffffff1663ffffffff16815260200162093a8063ffffffff1663ffffffff16815250600290600e6200015692919062000179565b50600f60045566038d7ea4c68000600a5534156200017357600080fd5b62000259565b82600e600701600890048101928215620002105791602002820160005b83821115620001dc57835183826101000a81548163ffffffff021916908363ffffffff160217905550926020019260040160208160030104928301926001030262000196565b80156200020e5782816101000a81549063ffffffff0219169055600401602081600301049283019260010302620001dc565b505b5090506200021f919062000223565b5090565b6200025691905b808211156200025257600081816101000a81549063ffffffff0219169055506001016200022a565b5090565b90565b61323480620002696000396000f3006060604052600436106101a1576000357c0100000000000000000000000000000000000000000000000000000000900463ffffffff16806301ffc9a7146101a6578063036c05e21461020057806306fdde0314610255578063095ea7b3146102e35780630a0f816814610325578063123e090c1461037a57806318160ddd1461039d57806323b872dd146103c657806327d7874c146104275780632ba73c1514610460578063394baa0b146104995780633d7d3f5a146104fc5780633f4ba83a1461053a578063440010361461054f578063588ee75b146105885780635c975abb146105c35780636352211e146105f057806367b5d06d146106535780636fbde40d1461068a57806370a08231146106c357806373248c681461071057806378d0df50146107395780637a7d49371461079c5780638456cb59146107c55780638462151c146107da57806395d89b41146108685780639d6fac6f146108f6578063a28b350914610939578063a9059cbb14610962578063b047fb50146109a4578063ccc0c3b2146109f9578063e6cbe35114610a25578063f9110f9b14610a7a575b600080fd5b34156101b157600080fd5b6101e660048080357bffffffffffffffffffffffffffffffffffffffffffffffffffffffff1916906020019091905050610abe565b604051808215151515815260200191505060405180910390f35b341561020b57600080fd5b610213610dcf565b604051808273ffffffffffffffffffffffffffffffffffffffff1673ffffffffffffffffffffffffffffffffffffffff16815260200191505060405180910390f35b341561026057600080fd5b610268610df5565b6040518080602001828103825283818151815260200191508051906020019080838360005b838110156102a857808201518184015260208101905061028d565b50505050905090810190601f1680156102d55780820380516001836020036101000a031916815260200191505b509250505060405180910390f35b34156102ee57600080fd5b610323600480803573ffffffffffffffffffffffffffffffffffffffff16906020019091908035906020019091905050610e2e565b005b341561033057600080fd5b610338610f0c565b604051808273ffffffffffffffffffffffffffffffffffffffff1673ffffffffffffffffffffffffffffffffffffffff16815260200191505060405180910390f35b341561038557600080fd5b61039b6004808035906020019091905050610f31565b005b34156103a857600080fd5b6103b0610f97565b6040518082815260200191505060405180910390f35b34156103d157600080fd5b610425600480803573ffffffffffffffffffffffffffffffffffffffff1690602001909190803573ffffffffffffffffffffffffffffffffffffffff16906020019091908035906020019091905050610fa4565b005b341561043257600080fd5b61045e600480803573ffffffffffffffffffffffffffffffffffffffff16906020019091905050611071565b005b341561046b57600080fd5b610497600480803573ffffffffffffffffffffffffffffffffffffffff1690602001909190505061114b565b005b34156104a457600080fd5b6104ba6004808035906020019091905050611226565b604051808273ffffffffffffffffffffffffffffffffffffffff1673ffffffffffffffffffffffffffffffffffffffff16815260200191505060405180910390f35b341561050757600080fd5b6105386004808035906020019091908035906020019091908035906020019091908035906020019091905050611259565b005b341561054557600080fd5b61054d6113ac565b005b341561055a57600080fd5b610586600480803573ffffffffffffffffffffffffffffffffffffffff1690602001909190505061143f565b005b341561059357600080fd5b6105a96004808035906020019091905050611576565b604051808215151515815260200191505060405180910390f35b34156105ce57600080fd5b6105d6611737565b604051808215151515815260200191505060405180910390f35b34156105fb57600080fd5b610611600480803590602001909190505061174a565b604051808273ffffffffffffffffffffffffffffffffffffffff1673ffffffffffffffffffffffffffffffffffffffff16815260200191505060405180910390f35b341561065e57600080fd5b61067460048080359060200190919050506117c3565b6040518082815260200191505060405180910390f35b341561069557600080fd5b6106c1600480803573ffffffffffffffffffffffffffffffffffffffff16906020019091905050611c6a565b005b34156106ce57600080fd5b6106fa600480803573ffffffffffffffffffffffffffffffffffffffff16906020019091905050611da1565b6040518082815260200191505060405180910390f35b341561071b57600080fd5b610723611dea565b6040518082815260200191505060405180910390f35b341561074457600080fd5b61075a6004808035906020019091905050611df0565b604051808273ffffffffffffffffffffffffffffffffffffffff1673ffffffffffffffffffffffffffffffffffffffff16815260200191505060405180910390f35b34156107a757600080fd5b6107af611e23565b6040518082815260200191505060405180910390f35b34156107d057600080fd5b6107d8611e29565b005b34156107e557600080fd5b610811600480803573ffffffffffffffffffffffffffffffffffffffff16906020019091905050611ebc565b6040518080602001828103825283818151815260200191508051906020019060200280838360005b83811015610854578082015181840152602081019050610839565b505050509050019250505060405180910390f35b341561087357600080fd5b61087b611ff3565b6040518080602001828103825283818151815260200191508051906020019080838360005b838110156108bb5780820151818401526020810190506108a0565b50505050905090810190601f1680156108e85780820380516001836020036101000a031916815260200191505b509250505060405180910390f35b341561090157600080fd5b610917600480803590602001909190505061202c565b604051808263ffffffff1663ffffffff16815260200191505060405180910390f35b341561094457600080fd5b61094c61205b565b6040518082815260200191505060405180910390f35b341561096d57600080fd5b6109a2600480803573ffffffffffffffffffffffffffffffffffffffff16906020019091908035906020019091905050612061565b005b34156109af57600080fd5b6109b7612175565b604051808273ffffffffffffffffffffffffffffffffffffffff1673ffffffffffffffffffffffffffffffffffffffff16815260200191505060405180910390f35b3415610a0457600080fd5b610a23600480803590602001909190803590602001909190505061219b565b005b3415610a3057600080fd5b610a3861256f565b604051808273ffffffffffffffffffffffffffffffffffffffff1673ffffffffffffffffffffffffffffffffffffffff16815260200191505060405180910390f35b3415610a8557600080fd5b610aa46004808035906020019091908035906020019091905050612595565b604051808215151515815260200191505060405180910390f35b600060405180807f737570706f727473496e74657266616365286279746573342900000000000000815250601901905060405180910390207bffffffffffffffffffffffffffffffffffffffffffffffffffffffff1916827bffffffffffffffffffffffffffffffffffffffffffffffffffffffff19161480610dc8575060405180807f746f6b656e4d657461646174612875696e743235362c737472696e6729000000815250601d019050604051809103902060405180807f746f6b656e734f664f776e6572286164647265737329000000000000000000008152506016019050604051809103902060405180807f7472616e7366657246726f6d28616464726573732c616464726573732c75696e81526020017f74323536290000000000000000000000000000000000000000000000000000008152506025019050604051809103902060405180807f7472616e7366657228616464726573732c75696e7432353629000000000000008152506019019050604051809103902060405180807f617070726f766528616464726573732c75696e743235362900000000000000008152506018019050604051809103902060405180807f6f776e65724f662875696e7432353629000000000000000000000000000000008152506010019050604051809103902060405180807f62616c616e63654f6628616464726573732900000000000000000000000000008152506012019050604051809103902060405180807f746f74616c537570706c79282900000000000000000000000000000000000000815250600d019050604051809103902060405180807f73796d626f6c28290000000000000000000000000000000000000000000000008152506008019050604051809103902060405180807f6e616d6528290000000000000000000000000000000000000000000000000000815250600601905060405180910390201818181818181818187bffffffffffffffffffffffffffffffffffffffffffffffffffffffff1916827bffffffffffffffffffffffffffffffffffffffffffffffffffffffff1916145b9050919050565b600c60009054906101000a900473ffffffffffffffffffffffffffffffffffffffff1681565b6040805190810160405280600b81526020017f43727970746f436172647300000000000000000000000000000000000000000081525081565b600160149054906101000a900460ff16151515610e4a57600080fd5b610e54338261260d565b1515610e5f57600080fd5b610e698183612679565b7f8c5be1e5ebec7d5bd14f71427d1e84f3dd0314c0f7b2291e5b200ac8c7c3b925338383604051808473ffffffffffffffffffffffffffffffffffffffff1673ffffffffffffffffffffffffffffffffffffffff1681526020018373ffffffffffffffffffffffffffffffffffffffff1673ffffffffffffffffffffffffffffffffffffffff168152602001828152602001935050505060405180910390a15050565b6000809054906101000a900473ffffffffffffffffffffffffffffffffffffffff1681565b600160009054906101000a900473ffffffffffffffffffffffffffffffffffffffff1673ffffffffffffffffffffffffffffffffffffffff163373ffffffffffffffffffffffffffffffffffffffff16141515610f8d57600080fd5b80600a8190555050565b6000600580549050905090565b600160149054906101000a900460ff16151515610fc057600080fd5b600073ffffffffffffffffffffffffffffffffffffffff168273ffffffffffffffffffffffffffffffffffffffff1614151515610ffc57600080fd5b3073ffffffffffffffffffffffffffffffffffffffff168273ffffffffffffffffffffffffffffffffffffffff161415151561103757600080fd5b61104133826126cf565b151561104c57600080fd5b611056838261260d565b151561106157600080fd5b61106c83838361273b565b505050565b6000809054906101000a900473ffffffffffffffffffffffffffffffffffffffff1673ffffffffffffffffffffffffffffffffffffffff163373ffffffffffffffffffffffffffffffffffffffff161415156110cc57600080fd5b600073ffffffffffffffffffffffffffffffffffffffff168173ffffffffffffffffffffffffffffffffffffffff161415151561110857600080fd5b806000806101000a81548173ffffffffffffffffffffffffffffffffffffffff021916908373ffffffffffffffffffffffffffffffffffffffff16021790555050565b6000809054906101000a900473ffffffffffffffffffffffffffffffffffffffff1673ffffffffffffffffffffffffffffffffffffffff163373ffffffffffffffffffffffffffffffffffffffff161415156111a657600080fd5b600073ffffffffffffffffffffffffffffffffffffffff168173ffffffffffffffffffffffffffffffffffffffff16141515156111e257600080fd5b80600160006101000a81548173ffffffffffffffffffffffffffffffffffffffff021916908373ffffffffffffffffffffffffffffffffffffffff16021790555050565b60086020528060005260406000206000915054906101000a900473ffffffffffffffffffffffffffffffffffffffff1681565b600160149054906101000a900460ff1615151561127557600080fd5b61127f338561260d565b151561128a57600080fd5b6112b684600960009054906101000a900473ffffffffffffffffffffffffffffffffffffffff16612679565b600960009054906101000a900473ffffffffffffffffffffffffffffffffffffffff1673ffffffffffffffffffffffffffffffffffffffff166327ebe40a85858585336040518663ffffffff167c0100000000000000000000000000000000000000000000000000000000028152600401808681526020018581526020018481526020018381526020018273ffffffffffffffffffffffffffffffffffffffff1673ffffffffffffffffffffffffffffffffffffffff16815260200195505050505050600060405180830381600087803b151561139257600080fd5b6102c65a03f115156113a357600080fd5b50505050505050565b6000809054906101000a900473ffffffffffffffffffffffffffffffffffffffff1673ffffffffffffffffffffffffffffffffffffffff163373ffffffffffffffffffffffffffffffffffffffff1614151561140757600080fd5b600160149054906101000a900460ff16151561142257600080fd5b6000600160146101000a81548160ff021916908315150217905550565b60008060009054906101000a900473ffffffffffffffffffffffffffffffffffffffff1673ffffffffffffffffffffffffffffffffffffffff163373ffffffffffffffffffffffffffffffffffffffff1614151561149c57600080fd5b8190508073ffffffffffffffffffffffffffffffffffffffff1663830995736000604051602001526040518163ffffffff167c0100000000000000000000000000000000000000000000000000000000028152600401602060405180830381600087803b151561150b57600080fd5b6102c65a03f1151561151c57600080fd5b50505060405180519050151561153157600080fd5b80600c60006101000a81548173ffffffffffffffffffffffffffffffffffffffff021916908373ffffffffffffffffffffffffffffffffffffffff1602179055505050565b60008060008311151561158857600080fd5b60058381548110151561159757fe5b9060005260206000209060030201905061172f8161012060405190810160405290816000820160009054906101000a90046fffffffffffffffffffffffffffffffff166fffffffffffffffffffffffffffffffff166fffffffffffffffffffffffffffffffff1681526020016000820160109054906101000a900467ffffffffffffffff1667ffffffffffffffff1667ffffffffffffffff1681526020016000820160189054906101000a900467ffffffffffffffff1667ffffffffffffffff1667ffffffffffffffff1681526020016001820154600019166000191681526020016002820160009054906101000a900463ffffffff1663ffffffff1663ffffffff1681526020016002820160049054906101000a900463ffffffff1663ffffffff1663ffffffff1681526020016002820160089054906101000a900463ffffffff1663ffffffff1663ffffffff16815260200160028201600c9054906101000a900461ffff1661ffff1661ffff16815260200160028201600e9054906101000a900461ffff1661ffff1661ffff168152505061293d565b915050919050565b600160149054906101000a900460ff1681565b60006006600083815260200190815260200160002060009054906101000a900473ffffffffffffffffffffffffffffffffffffffff169050600073ffffffffffffffffffffffffffffffffffffffff168173ffffffffffffffffffffffffffffffffffffffff16141515156117be57600080fd5b919050565b600080600080600080600080600160149054906101000a900460ff161515156117eb57600080fd5b6005898154811015156117fa57fe5b9060005260206000209060030201965060008760000160109054906101000a900467ffffffffffffffff1667ffffffffffffffff161415151561183c57600080fd5b6119c48761012060405190810160405290816000820160009054906101000a90046fffffffffffffffffffffffffffffffff166fffffffffffffffffffffffffffffffff166fffffffffffffffffffffffffffffffff1681526020016000820160109054906101000a900467ffffffffffffffff1667ffffffffffffffff1667ffffffffffffffff1681526020016000820160189054906101000a900467ffffffffffffffff1667ffffffffffffffff1667ffffffffffffffff1681526020016001820154600019166000191681526020016002820160009054906101000a900463ffffffff1663ffffffff1663ffffffff1681526020016002820160049054906101000a900463ffffffff1663ffffffff1663ffffffff1681526020016002820160089054906101000a900463ffffffff1663ffffffff1663ffffffff16815260200160028201600c9054906101000a900461ffff1661ffff1661ffff16815260200160028201600e9054906101000a900461ffff1661ffff1661ffff1681525050612977565b15156119cf57600080fd5b8660020160089054906101000a900463ffffffff1663ffffffff1695506005868154811015156119fb57fe5b9060005260206000209060030201945086600201600e9054906101000a900461ffff1661ffff16935086600201600e9054906101000a900461ffff1661ffff1685600201600e9054906101000a900461ffff1661ffff161115611a725784600201600e9054906101000a900461ffff1661ffff1693505b600c60009054906101000a900473ffffffffffffffffffffffffffffffffffffffff1673ffffffffffffffffffffffffffffffffffffffff16633deabf248860000160009054906101000a90046fffffffffffffffffffffffffffffffff168760000160009054906101000a90046fffffffffffffffffffffffffffffffff166000604051602001526040518363ffffffff167c010000000000000000000000000000000000000000000000000000000002815260040180836fffffffffffffffffffffffffffffffff166fffffffffffffffffffffffffffffffff168152602001826fffffffffffffffffffffffffffffffff166fffffffffffffffffffffffffffffffff16815260200192505050602060405180830381600087803b1515611b9b57600080fd5b6102c65a03f11515611bac57600080fd5b505050604051805190506fffffffffffffffffffffffffffffffff169250600660008a815260200190815260200160002060009054906101000a900473ffffffffffffffffffffffffffffffffffffffff169150611c2f8388600101548b8a60020160089054906101000a900463ffffffff1663ffffffff1660018901876129a8565b90508660020160086101000a81549063ffffffff0219169055600b600081548092919060019003919050555080975050505050505050919050565b60008060009054906101000a900473ffffffffffffffffffffffffffffffffffffffff1673ffffffffffffffffffffffffffffffffffffffff163373ffffffffffffffffffffffffffffffffffffffff16141515611cc757600080fd5b8190508073ffffffffffffffffffffffffffffffffffffffff166385b861886000604051602001526040518163ffffffff167c0100000000000000000000000000000000000000000000000000000000028152600401602060405180830381600087803b1515611d3657600080fd5b6102c65a03f11515611d4757600080fd5b505050604051805190501515611d5c57600080fd5b80600960006101000a81548173ffffffffffffffffffffffffffffffffffffffff021916908373ffffffffffffffffffffffffffffffffffffffff1602179055505050565b6000600760008373ffffffffffffffffffffffffffffffffffffffff1673ffffffffffffffffffffffffffffffffffffffff168152602001908152602001600020549050919050565b600a5481565b60066020528060005260406000206000915054906101000a900473ffffffffffffffffffffffffffffffffffffffff1681565b60045481565b6000809054906101000a900473ffffffffffffffffffffffffffffffffffffffff1673ffffffffffffffffffffffffffffffffffffffff163373ffffffffffffffffffffffffffffffffffffffff16141515611e8457600080fd5b600160149054906101000a900460ff16151515611ea057600080fd5b60018060146101000a81548160ff021916908315150217905550565b611ec4613043565b6000611ece613043565b6000806000611edc87611da1565b94506000851415611f0e576000604051805910611ef65750595b90808252806020026020018201604052509550611fe9565b84604051805910611f1c5750595b90808252806020026020018201604052509350611f37610f97565b925060009150600090505b8281111515611fe5578673ffffffffffffffffffffffffffffffffffffffff166006600083815260200190815260200160002060009054906101000a900473ffffffffffffffffffffffffffffffffffffffff1673ffffffffffffffffffffffffffffffffffffffff161415611fd857808483815181101515611fc157fe5b906020019060200201818152505081806001019250505b8080600101915050611f42565b8395505b5050505050919050565b6040805190810160405280600281526020017f434300000000000000000000000000000000000000000000000000000000000081525081565b600281600e8110151561203b57fe5b60089182820401919006600402915054906101000a900463ffffffff1681565b600b5481565b600160149054906101000a900460ff1615151561207d57600080fd5b600073ffffffffffffffffffffffffffffffffffffffff168273ffffffffffffffffffffffffffffffffffffffff16141515156120b957600080fd5b3073ffffffffffffffffffffffffffffffffffffffff168273ffffffffffffffffffffffffffffffffffffffff16141515156120f457600080fd5b600960009054906101000a900473ffffffffffffffffffffffffffffffffffffffff1673ffffffffffffffffffffffffffffffffffffffff168273ffffffffffffffffffffffffffffffffffffffff161415151561215157600080fd5b61215b338261260d565b151561216657600080fd5b61217133838361273b565b5050565b600160009054906101000a900473ffffffffffffffffffffffffffffffffffffffff1681565b600080600160149054906101000a900460ff161515156121ba57600080fd5b6121c4338561260d565b15156121cf57600080fd5b6121d98484612d1e565b15156121e457600080fd5b6005848154811015156121f357fe5b9060005260206000209060030201915061238b8261012060405190810160405290816000820160009054906101000a90046fffffffffffffffffffffffffffffffff166fffffffffffffffffffffffffffffffff166fffffffffffffffffffffffffffffffff1681526020016000820160109054906101000a900467ffffffffffffffff1667ffffffffffffffff1667ffffffffffffffff1681526020016000820160189054906101000a900467ffffffffffffffff1667ffffffffffffffff1667ffffffffffffffff1681526020016001820154600019166000191681526020016002820160009054906101000a900463ffffffff1663ffffffff1663ffffffff1681526020016002820160049054906101000a900463ffffffff1663ffffffff1663ffffffff1681526020016002820160089054906101000a900463ffffffff1663ffffffff1663ffffffff16815260200160028201600c9054906101000a900461ffff1661ffff1661ffff16815260200160028201600e9054906101000a900461ffff1661ffff1661ffff168152505061293d565b151561239657600080fd5b6005838154811015156123a557fe5b9060005260206000209060030201905061253d8161012060405190810160405290816000820160009054906101000a90046fffffffffffffffffffffffffffffffff166fffffffffffffffffffffffffffffffff166fffffffffffffffffffffffffffffffff1681526020016000820160109054906101000a900467ffffffffffffffff1667ffffffffffffffff1667ffffffffffffffff1681526020016000820160189054906101000a900467ffffffffffffffff1667ffffffffffffffff1667ffffffffffffffff1681526020016001820154600019166000191681526020016002820160009054906101000a900463ffffffff1663ffffffff1663ffffffff1681526020016002820160049054906101000a900463ffffffff1663ffffffff1663ffffffff1681526020016002820160089054906101000a900463ffffffff1663ffffffff1663ffffffff16815260200160028201600c9054906101000a900461ffff1661ffff1661ffff16815260200160028201600e9054906101000a900461ffff1661ffff1661ffff168152505061293d565b151561254857600080fd5b61255482858386612dc8565b151561255f57600080fd5b6125698484612e39565b50505050565b600960009054906101000a900473ffffffffffffffffffffffffffffffffffffffff1681565b60008060008085101515156125a957600080fd5b600084101515156125b957600080fd5b6005858154811015156125c857fe5b906000526020600020906003020191506005848154811015156125e757fe5b9060005260206000209060030201905061260382868387612dc8565b9250505092915050565b60008273ffffffffffffffffffffffffffffffffffffffff166006600084815260200190815260200160002060009054906101000a900473ffffffffffffffffffffffffffffffffffffffff1673ffffffffffffffffffffffffffffffffffffffff1614905092915050565b806008600084815260200190815260200160002060006101000a81548173ffffffffffffffffffffffffffffffffffffffff021916908373ffffffffffffffffffffffffffffffffffffffff1602179055505050565b60008273ffffffffffffffffffffffffffffffffffffffff166008600084815260200190815260200160002060009054906101000a900473ffffffffffffffffffffffffffffffffffffffff1673ffffffffffffffffffffffffffffffffffffffff1614905092915050565b600760008373ffffffffffffffffffffffffffffffffffffffff1673ffffffffffffffffffffffffffffffffffffffff16815260200190815260200160002060008154809291906001019190505550816006600083815260200190815260200160002060006101000a81548173ffffffffffffffffffffffffffffffffffffffff021916908373ffffffffffffffffffffffffffffffffffffffff160217905550600073ffffffffffffffffffffffffffffffffffffffff168373ffffffffffffffffffffffffffffffffffffffff1614151561289957600760008473ffffffffffffffffffffffffffffffffffffffff1673ffffffffffffffffffffffffffffffffffffffff16815260200190815260200160002060008154809291906001900391905055506008600082815260200190815260200160002060006101000a81549073ffffffffffffffffffffffffffffffffffffffff02191690555b7fddf252ad1be2c89b69c2b068fc378daa952ba7f163c4a11628f55a4df523b3ef838383604051808473ffffffffffffffffffffffffffffffffffffffff1673ffffffffffffffffffffffffffffffffffffffff1681526020018373ffffffffffffffffffffffffffffffffffffffff1673ffffffffffffffffffffffffffffffffffffffff168152602001828152602001935050505060405180910390a1505050565b6000808260c0015163ffffffff1614801561297057504367ffffffffffffffff16826040015167ffffffffffffffff1611155b9050919050565b6000808260c0015163ffffffff16141580156129a1575042826040015167ffffffffffffffff1611155b9050919050565b6000806129b3613057565b60008763ffffffff16881415156129c957600080fd5b8663ffffffff16871415156129dd57600080fd5b8561ffff16861415156129ef57600080fd5b896fffffffffffffffffffffffffffffffff168a141515612a0f57600080fd5b600286811515612a1b57fe5b049250600d8361ffff161115612a3057600d92505b610120604051908101604052808b6fffffffffffffffffffffffffffffffff1681526020014267ffffffffffffffff168152602001600067ffffffffffffffff1681526020018a6000191681526020018963ffffffff1681526020018863ffffffff168152602001600063ffffffff1681526020018461ffff1681526020018761ffff168152509150600160058054806001018281612acf91906130e7565b9160005260206000209060030201600085909190915060008201518160000160006101000a8154816fffffffffffffffffffffffffffffffff02191690836fffffffffffffffffffffffffffffffff16021790555060208201518160000160106101000a81548167ffffffffffffffff021916908367ffffffffffffffff16021790555060408201518160000160186101000a81548167ffffffffffffffff021916908367ffffffffffffffff1602179055506060820151816001019060001916905560808201518160020160006101000a81548163ffffffff021916908363ffffffff16021790555060a08201518160020160046101000a81548163ffffffff021916908363ffffffff16021790555060c08201518160020160086101000a81548163ffffffff021916908363ffffffff16021790555060e082015181600201600c6101000a81548161ffff021916908361ffff16021790555061010082015181600201600e6101000a81548161ffff021916908361ffff16021790555050500390507f48d6aec1edb3e4cadf4d749f84324482512022011be86e3c5c7d4ae7fc080bf1858284600001518560600151604051808573ffffffffffffffffffffffffffffffffffffffff1673ffffffffffffffffffffffffffffffffffffffff168152602001848152602001836fffffffffffffffffffffffffffffffff166fffffffffffffffffffffffffffffffff168152602001826000191660001916815260200194505050505060405180910390a1612d0e6000868361273b565b8093505050509695505050505050565b60008060006006600086815260200190815260200160002060009054906101000a900473ffffffffffffffffffffffffffffffffffffffff1691506006600085815260200190815260200160002060009054906101000a900473ffffffffffffffffffffffffffffffffffffffff1690508073ffffffffffffffffffffffffffffffffffffffff168273ffffffffffffffffffffffffffffffffffffffff16149250505092915050565b600081841415612ddb5760009050612e31565b60008560020160009054906101000a900463ffffffff1663ffffffff161480612e1e575060008360020160009054906101000a900463ffffffff1663ffffffff16145b15612e2c5760019050612e31565b600190505b949350505050565b600080600584815481101515612e4b57fe5b90600052602060002090600302019150600583815481101515612e6a57fe5b90600052602060002090600302019050828260020160086101000a81548163ffffffff021916908363ffffffff160217905550612ea682612f6d565b612eaf81612f6d565b600b600081548092919060010191905055507f49ab4b23f0f261f284e8d09939f739b85768f1f8aea7e9aec8ebadab6ee5f8d36006600086815260200190815260200160002060009054906101000a900473ffffffffffffffffffffffffffffffffffffffff168585604051808473ffffffffffffffffffffffffffffffffffffffff1673ffffffffffffffffffffffffffffffffffffffff168152602001838152602001828152602001935050505060405180910390a150505050565b43600454600283600201600c9054906101000a900461ffff1661ffff16600e81101515612f9657fe5b600891828204019190066004029054906101000a900463ffffffff1663ffffffff16811515612fc157fe5b04018160000160186101000a81548167ffffffffffffffff021916908367ffffffffffffffff160217905550600d81600201600c9054906101000a900461ffff1661ffff16101561304057600181600201600c8282829054906101000a900461ffff160192506101000a81548161ffff021916908361ffff1602179055505b50565b602060405190810160405280600081525090565b6101206040519081016040528060006fffffffffffffffffffffffffffffffff168152602001600067ffffffffffffffff168152602001600067ffffffffffffffff16815260200160008019168152602001600063ffffffff168152602001600063ffffffff168152602001600063ffffffff168152602001600061ffff168152602001600061ffff1681525090565b815481835581811511613114576003028160030283600052602060002091820191016131139190613119565b5b505050565b61320591905b8082111561320157600080820160006101000a8154906fffffffffffffffffffffffffffffffff02191690556000820160106101000a81549067ffffffffffffffff02191690556000820160186101000a81549067ffffffffffffffff021916905560018201600090556002820160006101000a81549063ffffffff02191690556002820160046101000a81549063ffffffff02191690556002820160086101000a81549063ffffffff021916905560028201600c6101000a81549061ffff021916905560028201600e6101000a81549061ffff02191690555060030161311f565b5090565b905600a165627a7a72305820fc0d7856a54779243d843013f639c2b77b08202d85c9e02df35194cced879aa70029",
  "source": "pragma solidity ^0.4.18;\r\n\r\ncontract ERC721 {\r\n    // Required methods\r\n    function totalSupply() public view returns (uint256 total);\r\n    function balanceOf(address _owner) public view returns (uint256 balance);\r\n    function ownerOf(uint256 _tokenId) external view returns (address owner);\r\n    function approve(address _to, uint256 _tokenId) external;\r\n    function transfer(address _to, uint256 _tokenId) external;\r\n    function transferFrom(address _from, address _to, uint256 _tokenId) external;\r\n\r\n    // Events\r\n    event Transfer(address from, address to, uint256 tokenId);\r\n    event Approval(address owner, address approved, uint256 tokenId);\r\n\r\n    // Optional\r\n    // function name() public view returns (string name);\r\n    // function symbol() public view returns (string symbol);\r\n    // function tokensOfOwner(address _owner) external view returns (uint256[] tokenIds);\r\n    // function tokenMetadata(uint256 _tokenId, string _preferredTransport) public view returns (string infoUrl);\r\n\r\n    // ERC-165 Compatibility (https://github.com/ethereum/EIPs/issues/165)\r\n    function supportsInterface(bytes4 _interfaceID) external view returns (bool);\r\n}\r\n\r\n/**\r\n* @title Ownable\r\n* @dev The Ownable contract has an owner address, and provides basic authorization control\r\n*  functions, this simplifies the implementation of \"user permissions\".\r\n*/\r\ncontract Ownable {\r\n    address public owner;\r\n\r\n    // @dev The Ownable constructor sets the original 'onwer' of the contract to the sender\r\n    //  account\r\n    function Ownable() public {\r\n        owner = msg.sender;\r\n    }\r\n\r\n    // @dev Throws if called by any account other than the owner.\r\n    modifier onlyOwner() {\r\n        require(msg.sender == owner);\r\n        _;\r\n    }\r\n\r\n    // @dev Allows the current owner to transfer control of the contract to a newOwner.\r\n    // @param newOwner The address to transfer ownership to.\r\n    function transferOwnership(address newOwner) public onlyOwner {\r\n        if (newOwner != address(0)) {\r\n            owner = newOwner;\r\n        }\r\n    }\r\n}\r\n\r\ncontract Pausable is Ownable {\r\n    event Pause();\r\n    event Unpause();\r\n\r\n    bool public paused = false;\r\n\r\n    // @dev modifier to allow actions only when the contract IS NOT paused\r\n    modifier whenNotPaused() {\r\n        require(!paused);\r\n        _;\r\n    }\r\n\r\n    // @dev modifier to allow actions only when the contract IS paused\r\n    modifier whenPaused {\r\n        require(paused);\r\n        _;\r\n    }\r\n\r\n    // @dev called by the owner to puase. Triggers stopped state\r\n    function pause() public onlyOwner whenNotPaused returns (bool) {\r\n        paused = true;\r\n        Pause();\r\n        return true;\r\n    }\r\n\r\n    // @dev called by the owner to unpause, returns to normal state\r\n    function unpause() public onlyOwner whenPaused returns (bool) {\r\n        paused = false;\r\n        Unpause();\r\n        return true;\r\n    }\r\n}\r\n\r\ncontract ClockAuctionBase {\r\n    // Represents an auction on an NFT\r\n    struct Auction {\r\n        // Current owner of NFT\r\n        address seller;\r\n        // Price (in wei) at beginning of auction\r\n        uint128 startingPrice;\r\n        // Price (in wei) at end of auction\r\n        uint128 endingPrice;\r\n        // Duration (in seconds) of auction\r\n        uint64 duration;\r\n        // Time when auction started\r\n        // NOTE: 0 if this auction has been concluded\r\n        uint64 startedAt;\r\n    }\r\n\r\n    // Reference to contract tracking NFT ownership\r\n    ERC721 public nonFungibleContract;\r\n\r\n    // Cut owner takes on each auction, measured in basis points (1/100 of a percent).\r\n    // Values 0-10,000 map to 0%-100%\r\n    uint256 public ownerCut;\r\n\r\n    // Map from token ID to their corresponding auction.\r\n    mapping (uint256 => Auction) tokenIdToAuction;\r\n\r\n    event AuctionCreated(uint256 tokenId, uint256 startingPrice, uint256 endingPrice, uint256 duration);\r\n    event AuctionSuccessful(uint256 tokenId, uint256 totalPrice, address winner);\r\n    event AuctionCancelled(uint256 tokenId);\r\n\r\n    // @dev Returns true if the claimant owns the token.\r\n    // @param _claimant - Address caliming to own the token.\r\n    // @param _tokenId - ID of token whose ownership needs to be verified\r\n    function _owns(address _claimant, uint256 _tokenId) internal view returns (bool) {\r\n        return(nonFungibleContract.ownerOf(_tokenId) == _claimant);\r\n    }\r\n\r\n    // @dev Escrows the NFT, assigning ownership to this contract.\r\n    //  Throws if the escrow fails.\r\n    // @param _owner - Current owner address of token to escrow.\r\n    // @param _tokenId - ID of token whose approval to verify\r\n    function _escrow(address _owner, uint256 _tokenId) internal {\r\n        // it will throw if transfer fails\r\n        nonFungibleContract.transferFrom(_owner, this, _tokenId);\r\n    }\r\n\r\n    // @dev Transfers an NFT owned by this contract to another address.\r\n    //  Returns true if the transfer succeeds\r\n    // @param _receiver - Address to transfer NFT to.\r\n    // @param _tokenId - ID of token to transfer.\r\n    function _transfer(address _receiver, uint256 _tokenId) internal {\r\n        // it will throw if transfer fails\r\n        nonFungibleContract.transfer(_receiver, _tokenId);\r\n    }\r\n\r\n    // @dev Adds an auction to the list of open auctions. Also fires the \r\n    //  AuctionCreated event\r\n    // @param _tokenId - The ID of the token to be put on the auctioin.\r\n    // @param _auction - Auction to add.\r\n    function _addAuction(uint256 _tokenId, Auction _auction) internal {\r\n        // Require that all auctions have a duration of\r\n        // at least one minute. (Keeps our math from getting hairy!)\r\n        require(_auction.duration >= 1 minutes);\r\n\r\n        tokenIdToAuction[_tokenId] = _auction;\r\n\r\n        AuctionCreated(\r\n            uint256(_tokenId),\r\n            uint256(_auction.startingPrice),\r\n            uint256(_auction.endingPrice),\r\n            uint256(_auction.duration)\r\n        );\r\n    }\r\n\r\n    // @dev Cancels an auction unconditionally.\r\n    function _cancelAuction(uint256 _tokenId, address _seller) internal {\r\n        _removeAuction(_tokenId);\r\n        _transfer(_seller, _tokenId);\r\n        AuctionCancelled(_tokenId);\r\n    }\r\n\r\n    // @dev Computes the price and transfers winnings.\r\n    // Does NOT transfer ownership of token\r\n    function _bid(uint256 _tokenId, uint256 _bidAmount) internal returns (uint256) {\r\n        // Get a reference to the auction struct\r\n        Auction storage auction = tokenIdToAuction[_tokenId];\r\n\r\n        // Explicitly check that this auction is currently live.\r\n        // (because of how Ethereum mappings work, we can't just count\r\n        // on the lookup above failing. An invalid _tokenId will just\r\n        // return an auction object that is all zeros.)\r\n        require(_isOnAuction(auction));\r\n\r\n        // Check that the bid is greater than or equal to the current price\r\n        uint256 price = _currentPrice(auction);\r\n        require(_bidAmount >= price);\r\n\r\n        // Grab a reference to the seller before the auction struct\r\n        // gets deleted\r\n        address seller = auction.seller;\r\n\r\n        // The bid is good! Remove the auction before sending the fees\r\n        // to the sender so we can't have a reentrancy attack.\r\n        _removeAuction(_tokenId);\r\n\r\n        // Transfer proceeds to seller (if there are any!)\r\n        if (price > 0) {\r\n            // Calculate the auctioneer's cut.\r\n            // (NOTE: _computeCut() is guaranteed to return a\r\n            // value <= price, so this subtraction can't go negative.)\r\n            uint256 auctioneerCut = _computeCut(price);\r\n            uint256 sellerProceeds = price - auctioneerCut;\r\n\r\n            // NOTE: Doing a transfer() in the middle of a complex\r\n            // method like this is generally discouraged because of\r\n            // reentrancy attacks and DoS attacks if the seller is\r\n            // a contract with an invalid fallback function. We explicitly\r\n            // guard aggainst reentrancy attacks by removing the auction\r\n            // before calling transfer(), and the only thing the seller\r\n            // can DoS is the sale of their own asset! (And if it's an\r\n            // accident, they can call cancelAuction().)\r\n            seller.transfer(sellerProceeds);\r\n        }\r\n\r\n        // Calculate any excess funds included with the bid. If the excess\r\n        // is anything worth worrying about, transfer it back to bidder.\r\n        // NOTE: We checked above that the bid amount is greater than or\r\n        // equal to the price so this cannot underflow\r\n        uint256 bidExcess = _bidAmount - price;\r\n\r\n        if (bidExcess > 0) {\r\n          // Return the funds. Similar to the previous transfer, this is\r\n          // not susceptible to a re-entry attack because the auction is\r\n          // removed before any transfers occur.\r\n          msg.sender.transfer(bidExcess);\r\n        }\r\n\r\n        // Tell the world!\r\n        AuctionSuccessful(_tokenId,price, msg.sender);\r\n\r\n        return price;\r\n    }\r\n\r\n    // @dev Removes an auction from the list of open auctions.\r\n    // @param _tokenId - ID of NFT on auction.\r\n    function _removeAuction(uint256 _tokenId) internal {\r\n        delete tokenIdToAuction[_tokenId];\r\n    }\r\n\r\n    // @dev Returns true if the NFT is on auction.\r\n    // @param _auction - Auction to check.\r\n    function _isOnAuction(Auction storage _auction) internal view returns (bool) {\r\n        return (_auction.startedAt > 0);\r\n    }\r\n\r\n    // @dev Returns current price of an NFT on auction. Broken into two\r\n    //  functions (this one, that computes the duration from the auction\r\n    //  structure, and the other that does the price computation) so we \r\n    //  can easily test that the price computation works correctly.\r\n    function _currentPrice(Auction storage _auction) internal view returns (uint256) {\r\n        uint256 secondsPassed = 0;\r\n\r\n        // A bit of insurance against negative values (or wraparound).\r\n        // Progably not necessary (since Ethereum guarantees that the \r\n        // now variables doesn't ever go backwards).\r\n        if (now > _auction.startedAt) {\r\n            secondsPassed = now - _auction.startedAt;\r\n        }\r\n\r\n        return _computeCurrentPrice(\r\n            _auction.startingPrice,\r\n            _auction.endingPrice,\r\n            _auction.duration,\r\n            secondsPassed\r\n        );\r\n    }\r\n\r\n    // @dev Computes the current price of an auction. Factored out\r\n    //  from _currentPrice so we can run extensive unit tests.\r\n    //  When testing, make this function public and turn on\r\n    //  'Current price computation' test suite.\r\n    function _computeCurrentPrice(\r\n        uint256 _startingPrice,\r\n        uint256 _endingPrice,\r\n        uint256 _duration,\r\n        uint256 _secondsPassed\r\n    )\r\n        internal\r\n        pure\r\n        returns (uint256)\r\n    {\r\n        // NOTE: We don't use SafeMath (or similar) in this function because\r\n        //  all of our public functions carefully cap the maximum values for\r\n        //  time (at 64-bits) and currency (at 128-bits). _duration is\r\n        //  also known to be non-zero (see the require() statement in\r\n        //  _addAuction())\r\n        if (_secondsPassed >= _duration) {\r\n            // We've reached the end of the dynamic pricing portion\r\n            // of the auction, just return the end price.\r\n            return _endingPrice;\r\n        } else {\r\n            // Starting price can be higher than ending price (and often is!), so\r\n            // this delta can be negative.\r\n            int256 totalPriceChange = int256(_endingPrice) - int256(_startingPrice);\r\n\r\n            // This multiplication can't overflow, _secondsPassed will easily fit within\r\n            // 64-bits, and totalPriceChange will easily fit within 128-bits, their product\r\n            // will always fit within 256-bits.\r\n            int256 currentPriceChange = totalPriceChange * int256(_secondsPassed) / int256(_duration);\r\n\r\n            // currentPriceChange can be negative, but if so, will have a magnitude\r\n            // less than _startingPrice. Thus, this result will always end up positive.\r\n            int256 currentPrice = int256(_startingPrice) + currentPriceChange;\r\n\r\n            return uint256(currentPrice);\r\n        }\r\n    }\r\n\r\n    // @dev Computes owner's cut of a sale.\r\n    // #param _price - Sale price of NFT.\r\n    function _computeCut(uint256 _price) internal view returns (uint256) {\r\n        // NOTE: We don't use SafeMath (or similar) in this function because\r\n        //  all of our entry functions carefully cap the maximum values for\r\n        //  currency (at 128-bits), and ownerCut <= 10000 (see the require()\r\n        //  statement in the ClockAuction constructor). The result of this\r\n        //  function is always guaranteed to be <= _price.\r\n        return _price * ownerCut / 10000;\r\n    }\r\n}\r\n\r\ncontract ClockAuction is Pausable, ClockAuctionBase {\r\n    // @dev The ERC-165 interface signature for ERC721.\r\n    //  Ref: https://github.com/ethereum/EIPs/issues/165\r\n    //  Ref: https://github.com/ethereum/EIPs/issues/721\r\n    bytes4 constant InterfaceSignature_ERC721 = bytes4(0x9a20483d);\r\n\r\n    // @dev Constructor creates a reference to the NFT ownership contract\r\n    //  and verifies the owner cut is in the valid range.\r\n    // @param _nftAddress - address of a deployed contract implementing\r\n    //  the Nonfungible Interface\r\n    // @param _cut - percent cut the owner takes on each auction, must be\r\n    //  between 0-10,000.\r\n    function ClockAuction(address _nftAddress, uint256 _cut) public {\r\n        require(_cut <= 10000);\r\n        ownerCut = _cut;\r\n\r\n        ERC721 candidateContract = ERC721(_nftAddress);\r\n        require(candidateContract.supportsInterface(InterfaceSignature_ERC721));\r\n        nonFungibleContract = candidateContract;\r\n    }\r\n\r\n    // @dev Remove all Ether from the contract, which is the owner's cuts\r\n    //  as well as any Ether sent directly to the contract address.\r\n    //  Always transfers to the NFT contract, but can be called either by\r\n    //  the owner or the NFT contract.\r\n    function withdrawBalance() external {\r\n        address nftAddress = address(nonFungibleContract);\r\n\r\n        require(\r\n            msg.sender == owner ||\r\n            msg.sender == nftAddress\r\n        );\r\n        \r\n        nftAddress.transfer(nftAddress.balance);\r\n    }\r\n\r\n    // @dev Creates and begins a new auction.\r\n    // @param _tokenId - ID of token to auction, sender must be owner.\r\n    // @param _startingPrice - Price of iten (in wei) at beginning of auction.\r\n    // @param _endingPrice - Price of item (in wei) at beginning of auction.\r\n    // @param _duration - Length of time to move between starting\r\n    //  price and ending price (in seconds).\r\n    // @param _seller - Seller, if not the message sender\r\n    function createAuction(\r\n        uint256 _tokenId,\r\n        uint256 _startingPrice,\r\n        uint256 _endingPrice,\r\n        uint256 _duration,\r\n        address _seller\r\n    )\r\n    external\r\n    whenNotPaused\r\n    {\r\n        // Sanity check that no inputs overflow how many bits we've allocated\r\n        // to store them in the auction struct.\r\n        require(_startingPrice == uint256(uint128(_startingPrice)));\r\n        require(_endingPrice == uint256(uint128(_endingPrice)));\r\n        require(_duration == uint256(uint64(_duration)));\r\n\r\n        require(_owns(msg.sender, _tokenId));\r\n        _escrow(msg.sender, _tokenId);\r\n        Auction memory auction = Auction(\r\n            _seller,\r\n            uint128(_startingPrice),\r\n            uint128(_endingPrice),\r\n            uint64(_duration),\r\n            uint64(now)\r\n        );\r\n        _addAuction(_tokenId, auction);\r\n    }\r\n\r\n    // @dev Bids on an open auction, completing the auction and transferring\r\n    //  ownership of the NFT if enough Ether is supplied\r\n    // @param _tokenId - ID of token to bid on\r\n    function bid(uint256 _tokenId)\r\n        external\r\n        payable\r\n        whenNotPaused\r\n    {\r\n        // _bid will throw if the bid or funs tranfer fails\r\n        _bid(_tokenId, msg.value);\r\n        _transfer(msg.sender, _tokenId);\r\n    }\r\n\r\n    // @dev Cancels an auction that hasn't been won yet.\r\n    //  Returns the NFT to original owner.\r\n    // @notice This is a state-modifying function that can\r\n    //  be called while the contract is paused.\r\n    // @param _tokenId - ID of token on auction\r\n    function cancelAuction(uint256 _tokenId)\r\n        external\r\n    {\r\n        Auction storage auction = tokenIdToAuction[_tokenId];\r\n        require(_isOnAuction(auction));\r\n        address seller = auction.seller;\r\n        require(msg.sender == seller);\r\n        _cancelAuction(_tokenId, seller);\r\n    }\r\n\r\n    // @dev Cancels an auction when the contract is paused.\r\n    //  Only the owner may do this, and NFTs are returned to\r\n    //  the seller. This should only be used in emergencies.\r\n    // @param _tokenId - ID of the NFT on auction to cancel.\r\n    function cancelAuctionWhenPaused(uint256 _tokenId)\r\n        whenPaused\r\n        onlyOwner\r\n        external\r\n    {\r\n        Auction storage auction = tokenIdToAuction[_tokenId];\r\n        require(_isOnAuction(auction));\r\n        _cancelAuction(_tokenId, auction.seller);\r\n    }\r\n\r\n    // @dev Returns auction info for an NFT on auction.\r\n    // @param _tokenId - ID of NFT on auction.\r\n    function getAuction(uint256 _tokenId)\r\n        external\r\n        view\r\n        returns\r\n    (\r\n        address seller,\r\n        uint256 startingPrice,\r\n        uint256 endingPrice,\r\n        uint256 duration,\r\n        uint256 startedAt\r\n    ) {\r\n        Auction storage auction = tokenIdToAuction[_tokenId];\r\n        require(_isOnAuction(auction));\r\n        return (\r\n            auction.seller,\r\n            auction.startingPrice,\r\n            auction.endingPrice,\r\n            auction.duration,\r\n            auction.startedAt\r\n        );\r\n    }\r\n\r\n    // @dev Returns the current price of an auction.\r\n    // @param _tokenId - ID of the token price we are checking.\r\n    function getCurrentPrice(uint256 _tokenId)\r\n        external\r\n        view\r\n        returns (uint256)\r\n    {\r\n        Auction storage auction = tokenIdToAuction[_tokenId];\r\n        require(_isOnAuction(auction));\r\n        return _currentPrice(auction);\r\n    }\r\n}\r\n\r\ncontract SaleClockAuction is ClockAuction {\r\n\r\n    // @dev Sanity check that allows us to ensure that we are pointing to the\r\n    //  right auction in our setSaleAuctionAddress() call.\r\n    bool public isSaleClockAuction = true;\r\n\r\n    // Tracks last 5 sale price of gen0 cards\r\n    uint256 public gen0SaleCount;\r\n    uint256[5] public lastGen0SalePrices;\r\n\r\n    // Delegate constructor\r\n    function SaleClockAuction(address _nftAddr, uint256 _cut) public\r\n        ClockAuction(_nftAddr, _cut) {}\r\n\r\n    // @dev Creates and begins a new auction.\r\n    // @param _tokenId - ID of token to auction, sender must be owner.\r\n    // @param _startingPrice - Price of item (in wei) at beginning of auction.\r\n    // @param _endingPrice - Price of item (in wei) at end of auction.\r\n    // @param _duration - Length of auction (in seconds).\r\n    // @param _seller - Seller, if not the message sender\r\n    function createAuction(\r\n        uint256 _tokenId,\r\n        uint256 _startingPrice,\r\n        uint256 _endingPrice,\r\n        uint256 _duration,\r\n        address _seller\r\n    )\r\n        external\r\n    {\r\n        // Sanity check that no inputs overflow how many bits we've allocated\r\n        // to store them in the auction struct.\r\n        require(_startingPrice == uint256(uint128(_startingPrice)));\r\n        require(_endingPrice == uint256(uint128(_endingPrice)));\r\n        require(_duration == uint256(uint64(_duration)));\r\n\r\n        require(msg.sender == address(nonFungibleContract));\r\n        _escrow(_seller, _tokenId);\r\n        Auction memory auction = Auction(\r\n            _seller,\r\n            uint128(_startingPrice),\r\n            uint128(_endingPrice),\r\n            uint64(_duration),\r\n            uint64(now)\r\n        );\r\n        _addAuction(_tokenId, auction);\r\n    }\r\n\r\n    // @dev Updates lastSalePrice if seller is the nft contract\r\n    // Otherwise, works the same as default bid method.\r\n    function bid(uint256 _tokenId)\r\n        external\r\n        payable\r\n    {\r\n        // _bid verifies token ID size\r\n        address seller = tokenIdToAuction[_tokenId].seller;\r\n        uint256 price = _bid(_tokenId, msg.value);\r\n        _transfer(msg.sender, _tokenId);\r\n\r\n        // If not a gen0 auction, exit\r\n        if (seller == address(nonFungibleContract)) {\r\n            // Track gen0 sale prices\r\n            lastGen0SalePrices[gen0SaleCount % 5] = price;\r\n            gen0SaleCount++;\r\n        }\r\n    }\r\n\r\n    function averageGen0SalePrice() external view returns (uint256) {\r\n        uint256 sum = 0;\r\n        for (uint256 i = 0; i < 5; i++) {\r\n            sum += lastGen0SalePrices[i];\r\n        }\r\n        return sum / 5;\r\n    }\r\n}\r\n\r\ncontract AccessControl {\r\n    /// @dev The addresses of the accounts (or contracts) that can execute actions within each roles\r\n    address public ceoAddress;\r\n    address public cooAddress;\r\n\r\n    /// @dev Keeps track whether the contract is paused. When that is true, most actions are blocked\r\n    bool public paused = false;\r\n\r\n    /// @dev Access modifier for CEO-only functionality\r\n    modifier onlyCEO() {\r\n        require(msg.sender == ceoAddress);\r\n        _;\r\n    }\r\n\r\n    /// @dev Access modifier for COO-only functionality\r\n    modifier onlyCOO() {\r\n        require(msg.sender == cooAddress);\r\n        _;\r\n    }\r\n\r\n    /// @dev Access modifier for any CLevel functionality\r\n    modifier onlyCLevel() {\r\n        require(msg.sender == ceoAddress || msg.sender == cooAddress);\r\n        _;\r\n    }\r\n\r\n    /// @dev Assigns a new address to act as the CEO. Only available to the current CEO\r\n    /// @param _newCEO The address of the new CEO\r\n    function setCEO(address _newCEO) public onlyCEO {\r\n        require(_newCEO != address(0));\r\n        ceoAddress = _newCEO;\r\n    }\r\n\r\n    /// @dev Assigns a new address to act as the COO. Only available to the current CEO\r\n    /// @param _newCOO The address of the new COO\r\n    function setCOO(address _newCOO) public onlyCEO {\r\n        require(_newCOO != address(0));\r\n        cooAddress = _newCOO;\r\n    }\r\n\r\n    /// @dev Modifier to allow actions only when the contract IS NOT paused\r\n    modifier whenNotPaused() {\r\n        require(!paused);\r\n        _;\r\n    }\r\n\r\n    /// @dev Modifier to allow actions only when the contract IS paused\r\n    modifier whenPaused {\r\n        require(paused);\r\n        _;\r\n    }\r\n\r\n    /// @dev Pause the smart contract. Only can be called by the CEO\r\n    function pause() public onlyCEO whenNotPaused {\r\n        paused = true;\r\n    }\r\n\r\n    /// @dev Unpauses the smart contract. Only can be called by the CEO\r\n    function unpause() public onlyCEO whenPaused {\r\n        paused = false;\r\n    }\r\n}\r\n\r\ncontract CryptoCardsBase is AccessControl {\r\n\r\n    /*** EVENTS ***/\r\n\r\n    // @dev The spawn event is fired whenever a new card is minted\r\n    event Spawn(address owner, uint256 tokenId, uint128 skills, bytes32 name);\r\n\r\n    // @dev Transfer event as defined in current draft of ERC721. Emitted evry time a \r\n    //  card ownership is assigned, including minting\r\n    event Transfer(address from, address to, uint256 tokenId);\r\n\r\n    /*** DATA TYPES ***/\r\n\r\n    // @dev The main Card struct. Every card in CryptoCards is represented by a copy\r\n    //  of this structure.\r\n    // WORK IN PROGRESS\r\n    struct Card {\r\n        // Contains info on skills/traits/rarity fo card\r\n        uint128 skills;\r\n\r\n        // The timestamp from the block when this card came into existence\r\n        uint64 spawnTime;\r\n\r\n        // The minimum timestamp after which this card can engage in\r\n        // combining activities again.\r\n        uint64 cooldownEndBlock;\r\n\r\n        // Name of the card\r\n        bytes32 name;\r\n\r\n        // The ID of the parents of this card, set to 0 for gen0 cards.\r\n        uint32 firstIngredientId;\r\n        uint32 secondIngredientId;\r\n\r\n        // Set to the ID of one of the ingredient cards, chosen pseudorandomly\r\n        // Will indicate this card is combining with other card to spawn new card\r\n        // and point to other card. Non zero ID indicates it is 'combining' and is\r\n        // unusable in play.\r\n        uint32 combiningWithId;\r\n\r\n        // Set to index in cooldown array (see below) that represents\r\n        // the current cooldown duration for this card\r\n        uint16 cooldownIndex;\r\n\r\n        // The 'generation number' of this card. Generation number is the\r\n        // the larger of the two 'ingredient's' generation + 1\r\n        // (i.e. max(firstIngredientId.generation, secondIndredientId.generation) + 1)\r\n        uint16 generation;\r\n    }\r\n\r\n    /*** CONSTANTS ***/\r\n\r\n    // @dev A lookup table indicating the cooldown duration after any successful\r\n    //  combination.\r\n    uint32[14] public cooldowns = [\r\n        uint32(1 minutes),\r\n        uint32(2 minutes),\r\n        uint32(5 minutes),\r\n        uint32(10 minutes),\r\n        uint32(30 minutes),\r\n        uint32(1 hours),\r\n        uint32(2 hours),\r\n        uint32(4 hours),\r\n        uint32(8 hours),\r\n        uint32(16 hours),\r\n        uint32(1 days),\r\n        uint32(2 days),\r\n        uint32(4 days),\r\n        uint32(7 days)\r\n    ];\r\n\r\n   \r\n    \r\n    // An approximation of currently how many seconds are in between blocks.\r\n    uint256 public secondsPerBlock = 15;\r\n\r\n    /*** STORAGE ***/\r\n\r\n    // @dev An array containing the Card struct for cards in existence. The ID\r\n    //  of each card is an index into this array. \r\n    Card[] cards;\r\n\r\n    // @dev A mapping from card IDs to the address that owns them. All cards have\r\n    //  some valid owner address.\r\n    mapping (uint256 => address) public cardIndexToOwner;\r\n\r\n    // @dev A mapping from owner address to count of tokens that address owns.\r\n    //  Used internally inside balanceOf() to resolve ownership count.\r\n    mapping (address => uint256) ownershipTokenCount;\r\n\r\n    // @dev A mapping from card IDs to an address that has been approved to call\r\n    //  transferFrom(). Each card can only have one approved address for transfer\r\n    //  at any time. A zero value means no approval is outstanding.\r\n    mapping (uint256 => address) public cardIndexToApproved;\r\n\r\n    // @dev The addrress of a custom ClockAuction that handles sales of Cards. This\r\n    //  will handle peer-to-peer sales as well as the gen0 sales\r\n    SaleClockAuction public saleAuction;\r\n\r\n    // @dev Assigns ownership of a specific Card to an address\r\n    function _transfer(address _from, address _to, uint256 _tokenId) internal {\r\n        // Increase ownershipTokenCount of address receiving card\r\n        ownershipTokenCount[_to]++;\r\n        // Transfer ownership.\r\n        cardIndexToOwner[_tokenId] = _to;\r\n        // Additional accounting. Newly minted cards 'from' address would be zero\r\n        // so check for that first\r\n        if (_from != address(0)) {\r\n            ownershipTokenCount[_from]--;\r\n            // clear any previously approved ownership exchange\r\n            delete cardIndexToApproved[_tokenId];\r\n        }\r\n        // Emit the transfer event.\r\n        Transfer(_from, _to, _tokenId);\r\n    }\r\n\r\n    // @dev An internal method that creates a new card and stores it. This\r\n    //   method doesn't do any checking and should only be called when the\r\n    //   input data is known to be valid. Will generate a Spawn event \r\n    //   and a Transfer event.\r\n    // @param _skills contains crucial info about card\r\n    // @param _owner The initial owner of this card, must be nonzero\r\n    function _createCard(\r\n        uint256 _skills, \r\n        bytes32 _name, \r\n        uint256 _firstIngredientId,\r\n        uint256 _secondIngredientId,\r\n        uint256 _generation,\r\n        address _owner\r\n    ) \r\n        internal \r\n        returns(uint256) \r\n    {\r\n        // These requires make sure _createCard is being passed correctly sized values\r\n        require(_firstIngredientId == uint256(uint32(_firstIngredientId)));\r\n        require(_secondIngredientId == uint256(uint32(_secondIngredientId)));\r\n        require(_generation == uint256(uint16(_generation)));\r\n        require(_skills == uint256(uint128(_skills)));\r\n\r\n        // Sets initial cooldown index to floor(generation/2)\r\n        uint16 _cooldownIndex = uint16(_generation / 2);\r\n        if (_cooldownIndex > 13) {\r\n            _cooldownIndex = 13;\r\n        }\r\n\r\n        Card memory _card = Card({\r\n            skills: uint128(_skills),\r\n            name: _name,\r\n            spawnTime: uint64(now),\r\n            cooldownEndBlock: 0,\r\n            firstIngredientId: uint32(_firstIngredientId),\r\n            secondIngredientId: uint32(_secondIngredientId),\r\n            combiningWithId: 0,\r\n            cooldownIndex: _cooldownIndex,\r\n            generation: uint16(_generation)\r\n        });\r\n        uint256 newCardId = cards.push(_card) - 1;\r\n\r\n        // emit the Spawn event\r\n        Spawn(_owner, newCardId, _card.skills, _card.name);\r\n\r\n        // This will assign ownership, and also emit the Transfer event as \r\n        // per ERC721 draft\r\n        _transfer(0, _owner, newCardId);\r\n\r\n        return newCardId;\r\n    }\r\n}\r\n\r\ncontract CardOwnership is CryptoCardsBase, ERC721 {\r\n\r\n    // @notice Name and symbol of the non fungible token, as defined in ERC721\r\n    string public constant name = \"CryptoCards\";\r\n    string public constant symbol = \"CC\";\r\n\r\n    /*** POTENTIAL METADATA & INTERFACE STUFF ***/\r\n    \r\n    bytes4 constant InterfaceSignature_ERC165 = \r\n        bytes4(keccak256('supportsInterface(bytes4)'));\r\n\r\n     bytes4 constant InterfaceSignature_ERC721 =\r\n        bytes4(keccak256('name()')) ^\r\n        bytes4(keccak256('symbol()')) ^\r\n        bytes4(keccak256('totalSupply()')) ^\r\n        bytes4(keccak256('balanceOf(address)')) ^\r\n        bytes4(keccak256('ownerOf(uint256)')) ^\r\n        bytes4(keccak256('approve(address,uint256)')) ^\r\n        bytes4(keccak256('transfer(address,uint256)')) ^\r\n        bytes4(keccak256('transferFrom(address,address,uint256)')) ^\r\n        bytes4(keccak256('tokensOfOwner(address)')) ^\r\n        bytes4(keccak256('tokenMetadata(uint256,string)'));\r\n\r\n    // @notice Introspection interface as per ERC-165 (https://github.com/ethereum/EIPs/issues/165).\r\n    //  Returns true for any standardized interfaces implemented by this contract. We implement\r\n    //  ERC-165 (obviously!) and ERC-721.\r\n    function supportsInterface(bytes4 _interfaceID) external view returns (bool) {\r\n        // DEBUG ONLY\r\n        //require((InterfaceSignature_ERC165 == 0x01ffc9a7) && (InterfaceSignature_ERC721 == 0x9a20483d));\r\n\r\n        return ((_interfaceID == InterfaceSignature_ERC165) || (_interfaceID == InterfaceSignature_ERC721));\r\n    }\r\n\r\n    /*** INTERNAL UTILITY FUNCTIONS ***/\r\n    // These functions assume that their input arguments are valid.\r\n    // Leaving it to public methods to sanitize inputs\r\n\r\n    // @dev Checks if a given address is the current owner of a particular Card\r\n    // @param _claimant the address we are validating against\r\n    // @param _tokenId card id, only valid when > 0\r\n    function _owns(address _claimant, uint256 _tokenId) internal view returns (bool) {\r\n        return cardIndexToOwner[_tokenId] == _claimant;\r\n    }\r\n\r\n    // @dev Checks if a given address currently has transferApproval for a pareticular Card.\r\n    // @param _claimant the address we are confirming the kitten is approved for.\r\n    // @param _tokenId Card ID, only valid when > 0\r\n    function _approvedFor(address _claimant, uint256 _tokenId) internal view returns (bool) {\r\n        return cardIndexToApproved[_tokenId] == _claimant;\r\n    }\r\n\r\n    // @dev Marks an address as being approved for transferFrom(), overwriting any previous\r\n    //  approval. Setting _approved to address (0) clears all transfer approval.\r\n    //  NOTE: _approve() does NOT send the Approval event. This is intentional because\r\n    //  _approve() and transferFrom() are used together for putting Cards on auction, and\r\n    //  there is no value in spamming the log with Approval events in that case\r\n    function _approve(uint256 _tokenId, address _approved) internal {\r\n        cardIndexToApproved[_tokenId] = _approved;\r\n    }\r\n\r\n    // @notice Returns the number of Cards owned by a specific address.\r\n    // @param _owner the owner address to check.\r\n    // @dev Required for ERC721 compliance\r\n    function balanceOf(address _owner) public view returns (uint256 count) {\r\n        return ownershipTokenCount[_owner];\r\n    }\r\n\r\n    // @notice Transfers a Card to another address. If transferring to a smart \r\n    //  contract be VERY CAREFUL to ensure that it is are of ERC721 (or\r\n    //  CryptoCards specifically) or your Card may be lost forever. Fo Rlz.\r\n    // @param _to The address of the recipient\r\n    // @param _tokenId The ID of the Card to transfer\r\n    // @dev Required for ERC721 compliance\r\n    function transfer(address _to, uint256 _tokenId) external whenNotPaused {\r\n        // Safety check to prevent against an unexpected 0x0 default\r\n        require(_to != address(0));\r\n        // Disallow transfers to this contract to prevent accidental misuse.\r\n        // The contract should never own any Cards (except very briefly\r\n        // after a gen0 Card is created and before it goes on auction).\r\n        require(_to != address(this));\r\n        // Disallow transfers to the auction contracts to prevent accidental\r\n        // misuse. Auction contracts should only take ownership of kitties\r\n        // through the allow + transferFrom flow.\r\n        require(_to != address(saleAuction));\r\n\r\n        // You can only send your own Card\r\n        require(_owns(msg.sender, _tokenId));\r\n\r\n        // Reassign ownership, clear pending approvals, emit Transfer event\r\n        _transfer(msg.sender, _to, _tokenId);\r\n    }\r\n\r\n    // @notice Grant another address the right to transfer a specific Card via\r\n    //  transferFrom(). This is the preferred flow for transferring NFTs to contracts.\r\n    // @param _to The address to be granted transfer approval. Pass address(0) to\r\n    //  clear all approvals.\r\n    // @param _tokenId The ID of the Card that can be transferred if this call succeeds.\r\n    // @dev Required for ERC721 compliance\r\n    function approve(address _to, uint256 _tokenId) external whenNotPaused {\r\n        // Only an owner can grant transfer approval.\r\n        require(_owns(msg.sender, _tokenId));\r\n\r\n        // Register the approval (replacing any previous approval).\r\n        _approve(_tokenId, _to);\r\n\r\n        // Emit approval event.\r\n        Approval(msg.sender, _to, _tokenId);\r\n    }\r\n\r\n    // @notice Transfer a Card owned by another address, for which the calling address\r\n    //  has previously been granted transfer approval by the owner.\r\n    // @param _from The address that owns the Card to be transferred.\r\n    // @param _to The address that should take ownershuip of the Card. Can be any address,\r\n    //  including the caller.\r\n    // @param _tokenId The ID of the Card to be transferred.\r\n    // @dev Required for ERC721 compliance.\r\n    function transferFrom(address _from, address _to, uint256 _tokenId) external whenNotPaused {\r\n        // Safety check to prevent against an unexpected 0x0 default.\r\n        require(_to != address(0));\r\n        // Disallow transfers to this contract to prevent accidental misuse.\r\n        // The contract should never own any Cards (except very briefly\r\n        // after a gen0 card is created and before it goes on auction).\r\n        require(_to != address(this));\r\n        // Check for approval and valid ownership\r\n        require(_approvedFor(msg.sender, _tokenId));\r\n        require(_owns(_from, _tokenId));\r\n\r\n        // Reassign ownership (also clears pending approvals and emits Transfer event).\r\n        _transfer(_from, _to, _tokenId);\r\n    }\r\n\r\n    // @notice Returns the total number of Cards currently in existence.\r\n    // @dev Required for ERC721 compliance.\r\n    function totalSupply() public view returns (uint) {\r\n        return cards.length;\r\n    }\r\n\r\n    // @notice Returns the address currently assigned ownership of a given Card.\r\n    // @dev Required for ERC721 compliance.\r\n    function ownerOf(uint256 _tokenId) external view returns (address owner) {\r\n        owner = cardIndexToOwner[_tokenId];\r\n\r\n        require(owner != address(0));\r\n    }\r\n\r\n    // @notice Returns a list of all Card IDs assigned to an address.\r\n    // @param _owner The owner whose Cards we are interested in.\r\n    // @dev This method MUST NEVER be called by smart contract code. First, it's fairly\r\n    //  expensive (it walks the intire Card array looking for Cards belonging to owner),\r\n    //  but it also returns a dynamic array, which is only supported for web3 calls, and\r\n    //  not contract-to-contract calls.\r\n    function tokensOfOwner(address _owner) external view returns (uint256[] ownerTokens) {\r\n        uint256 tokenCount = balanceOf(_owner);\r\n\r\n        if (tokenCount == 0) {\r\n            // Return an empty array\r\n            return new uint256[](0);\r\n        } else {\r\n            uint256[] memory result = new uint256[](tokenCount);\r\n            uint256 totalCards = totalSupply();\r\n            uint256 resultIndex = 0;\r\n\r\n            // We count on the fact that all cats have IDs starting at 1 and increasing\r\n            // sequentially up to the totalCard count\r\n            uint256 cardId;\r\n\r\n            for (cardId = 0; cardId <= totalCards; cardId++) {\r\n                if (cardIndexToOwner[cardId] == _owner) {\r\n                    result[resultIndex] = cardId;\r\n                    resultIndex++;\r\n                }\r\n            }\r\n            return result;\r\n        }\r\n    }\r\n\r\n    // @dev Adapted from memcpy() by @arachnid (Nick Johnson <arachnid@notdot.net>)\r\n    //  This method is licenced under the Apache License.\r\n    //  Ref: https://github.com/Arachnid/solidity-stringutils/blob/2f6ca9accb48ae14c66f1437ec50ed19a0616f78/strings.sol\r\n    function _memcpy(uint _dest, uint _src, uint _len) private view {\r\n        // Copy word-length chuncks while possible\r\n        for(; _len >= 32; _len -= 32) {\r\n            assembly {\r\n                mstore(_dest, mload(_src))\r\n            }\r\n            _dest += 32;\r\n            _src += 32;\r\n        }\r\n\r\n        // Copy remaining bytes\r\n        uint256 mask = 256 ** (32 - _len) - 1;\r\n        assembly {\r\n            let srcpart := and(mload(_src), not(mask))\r\n            let destpart := and(mload(_dest), mask)\r\n            mstore(_dest, or(destpart, srcpart))\r\n        }\r\n    }\r\n\r\n    // @dev Adapted from toString(slice) by @arachnid (Nick Johnson <arachnid@notdot.net>)\r\n    //  This method is licensed under the Apache License.\r\n    //  Ref: https://github.com/Arachnid/solidity-stringutils/blob/2f6ca9accb48ae14c66f1437ec50ed19a0616f78/strings.sol\r\n    function _toString(bytes[4] _rawBytes, uint256 _stringLength) private view returns (string) {\r\n        var outputString = new string(_stringLength);\r\n        uint256 outputPtr;\r\n        uint256 bytesPtr;\r\n\r\n        assembly {\r\n            outputPtr := add(outputString, 32)\r\n            bytesPtr := _rawBytes\r\n        }\r\n\r\n        _memcpy(outputPtr, bytesPtr, _stringLength);\r\n\r\n        return outputString;\r\n    }\r\n}\r\n\r\n\r\n\r\ncontract skillScience {\r\n\r\n    // @dev Number of times to loop through various skills\r\n    uint256 public numLoops;\r\n\r\n     // Array containing trait strings for easy referencing\r\n    uint128[] public traitStrings;\r\n\r\n    // Define array to mask skills string to extract appropriate attributes\r\n    function maskArray() internal {\r\n\r\n        // Starting point\r\n        uint128 baseMask = 0xFFFF0000000000000000000000000000;\r\n\r\n        for(uint256 i = 0; i < numLoops; i++) {\r\n            uint128 thisMask = baseMask >> (4 * i);\r\n            traitStrings.push(thisMask);\r\n        }\r\n    }\r\n\r\n    // Constructor for SkillScience -- initializes array (so far)\r\n    function skillScience(uint256 _numLoops) public {\r\n\r\n        // make sure numLoops is not too large\r\n        //require(numLoops == uint256(uint32(_numLoops)));\r\n\r\n        numLoops = _numLoops;\r\n        maskArray();\r\n    }\r\n\r\n    \r\n\r\n    function _mixSkills(uint128 _skills1, uint128 _skills2) internal returns (uint128) {        \r\n\r\n        // Arrays which will hold values of each trait for both 'ingredients'\r\n        uint16[] memory firstTraitVals = new uint16[](numLoops);\r\n        uint16[] memory secondTraitVals = new uint16[](numLoops);\r\n\r\n        // New array of skills\r\n        uint16[] memory newTraitVals = new uint16[](numLoops);\r\n\r\n        \r\n        uint128 newSkills;\r\n\r\n        uint256 timeStamp = now;\r\n\r\n        firstTraitVals = defineTraitVals(_skills1);\r\n        secondTraitVals = defineTraitVals(_skills2);\r\n\r\n        // Loop through parent attributes to generate new spawned card traits\r\n        for(uint256 i = 0; i < numLoops; i++) {\r\n            uint256 nowHash = uint256(keccak256(timeStamp + i));\r\n            uint256 index = myRand(0, 7, nowHash);\r\n\r\n            if(index < 5) {\r\n                newTraitVals[index] = baseSkillMix(index, nowHash, firstTraitVals, secondTraitVals);\r\n            } else {\r\n                newTraitVals[index] = traitChoose(index, nowHash, firstTraitVals, secondTraitVals);\r\n            }\r\n        }\r\n\r\n        newSkills = combine(newTraitVals);   \r\n\r\n        return newSkills;    \r\n        \r\n    }\r\n\r\n    function defineTraitVals(uint128 _skills) internal view returns(uint16[]) {\r\n        uint16[] memory vals = new uint16[](8);\r\n        for(uint256 i = 0; i < 8; i++){\r\n            uint128 _mask = traitStrings[i];\r\n            uint16 thisTrait = uint16((_skills & _mask) >> 4*(7 - i));\r\n            vals[i] = thisTrait;\r\n        }\r\n\r\n        return vals;\r\n    }\r\n\r\n    // Create new skill string from newTraitVals array\r\n    function combine(uint16[] memory newTraitVals) internal view returns(uint128) {\r\n        uint128 _newSkills = 0;\r\n        for(uint256 i = 0; i < 8; i++) {\r\n            uint128 preShift = uint128(newTraitVals[i]);\r\n            _newSkills += preShift << 4 * (7 - i);\r\n        }\r\n\r\n        return _newSkills;\r\n    }\r\n\r\n    function baseSkillMix(uint256 ind, uint256 thisHash, uint16[] memory firstTraitVals, uint16[] memory secondTraitVals) internal returns (uint16){\r\n        uint256 outcome = myRand(0, 3, thisHash % 1009);\r\n\r\n        if(outcome == 0){\r\n            return ++firstTraitVals[ind];\r\n        } else if(outcome == 1) {\r\n            return --firstTraitVals[ind];\r\n        } else if(outcome == 2) {\r\n            return ++secondTraitVals[ind];\r\n        } else {\r\n            return --secondTraitVals[ind];\r\n        }\r\n    }\r\n\r\n    function traitChoose(uint256 ind, uint256 thisHash, uint16[] memory firstTraitVals, uint16[] memory secondTraitVals) internal returns (uint16) {\r\n        uint256 outcome = myRand(0, 2, thisHash % 1009);\r\n\r\n         if(outcome == 0){\r\n            return firstTraitVals[ind];\r\n        } else if(outcome == 1) {\r\n            return firstTraitVals[ind];\r\n        } else {\r\n            return 0;\r\n        } \r\n    }\r\n    \r\n\r\n     /* ************************************\r\n        \r\n            Insert Description stuff here\r\n        \r\n           ************************************** */\r\n\r\n\r\n    // Returns an integer x such that low <= x <= high\r\n    function myRand(uint256 low, uint256 high, uint256 myHash) internal returns(uint256) {\r\n        // Ensure no negative values or mod(0) operations\r\n        require(high > low);\r\n\r\n        uint256 modVal = high - low + 1;\r\n        uint256 result = low + (myHash % modVal);\r\n\r\n        return result;\r\n    }\r\n}\r\n\r\ncontract SkillScienceInterface is skillScience{\r\n\r\n    function SkillScienceInterface(uint256 _numLoops) public\r\n        skillScience(_numLoops){}\r\n\r\n    function isSkillScience() public pure returns (bool) {\r\n        return true;\r\n    }\r\n\r\n    function mixSkills(uint128 skills1, uint128 skills2) public returns (uint128) {\r\n        \r\n        return 2;\r\n    }\r\n}\r\n\r\ncontract CardCombining is CardOwnership {\r\n    event Combining(address owner, uint256 firstIngredientId, uint256 secondIngredientId);\r\n\r\n    event AutoCombine(uint256 cardId, uint256 cooldownEndBlock);\r\n\r\n    uint256 public autoCombineFee = 1000000 * 1000000000; // (1M * 1 gwei)\r\n    \r\n    // Keeps track of number of combining cards\r\n    uint256 public combiningCards;\r\n\r\n    SkillScienceInterface public skillScience;\r\n\r\n    function setSkillScienceAddress(address _address) public onlyCEO {\r\n        SkillScienceInterface candidateContract = SkillScienceInterface(_address);\r\n\r\n        require(candidateContract.isSkillScience());\r\n\r\n        skillScience = candidateContract;\r\n    }\r\n\r\n\r\n    function _isReadyToCombine(Card _card) internal view returns (bool) {\r\n        return (_card.combiningWithId == 0) && (_card.cooldownEndBlock <= uint64(block.number));\r\n    }\r\n\r\n    function _isCombiningPermitted(uint256 _firstIngredientId, uint256 _secondIngredientId) internal view returns (bool) {\r\n        address cardOwner = cardIndexToOwner[_firstIngredientId];\r\n        address secondCardOwner = cardIndexToOwner[_secondIngredientId];\r\n\r\n        return (cardOwner == secondCardOwner);\r\n    }\r\n\r\n    function _triggerCooldown(Card storage _card) internal {\r\n        _card.cooldownEndBlock = uint64((cooldowns[_card.cooldownIndex] / secondsPerBlock) + block.number);\r\n\r\n        if(_card.cooldownIndex < 13) {\r\n            _card.cooldownIndex += 1;\r\n        }\r\n    }\r\n\r\n    function setAutoCombineFee(uint256 val) public onlyCOO {\r\n        autoCombineFee = val;\r\n    }\r\n\r\n    // Check to see if the cards are combining and the time period has passed\r\n    function _isReadyToSpawn(Card _card) private view returns (bool) {\r\n        return (_card.combiningWithId != 0) && (_card.cooldownEndBlock <= now);\r\n    }\r\n\r\n    // Checks that the given card is able to breed, ie not currently combining or in cooldown\r\n    function isReadyToCombine(uint256 _cardId)\r\n        public \r\n        view \r\n        returns (bool)\r\n    {\r\n        require(_cardId > 0);\r\n        Card storage card = cards[_cardId];\r\n        return _isReadyToCombine(card);\r\n    }\r\n\r\n    function _isValidCombination(\r\n        Card storage _firstIngredient,\r\n        uint256 _firstIngredientId,\r\n        Card storage _secondIngredient,\r\n        uint256 _secondIngredientId\r\n    )\r\n        private\r\n        view\r\n        returns(bool)\r\n    {\r\n        // Can't combine card with itself!\r\n        if (_firstIngredientId == _secondIngredientId) {\r\n            return false;\r\n        }\r\n\r\n        // Allow combination if either are gen 0\r\n        if(_firstIngredient.firstIngredientId == 0 || _secondIngredient.firstIngredientId == 0) {\r\n            return true;\r\n        }\r\n\r\n        return true;\r\n    }\r\n\r\n    function canCombineWith(uint256 _firstIngredientId, uint256 _secondIngredientId)\r\n        public\r\n        view\r\n        returns(bool)\r\n    {\r\n        require(_firstIngredientId >= 0);\r\n        require(_secondIngredientId >= 0);\r\n        Card storage firstIngredient = cards[_firstIngredientId];\r\n        Card storage secondIngredient = cards[_secondIngredientId];\r\n        return _isValidCombination(firstIngredient, _firstIngredientId, secondIngredient, _secondIngredientId);\r\n    }\r\n\r\n    function combineWith(uint256 _firstIngredientId, uint256 _secondIngredientId) public whenNotPaused {\r\n        require(_owns(msg.sender, _firstIngredientId));\r\n        require(_isCombiningPermitted(_firstIngredientId, _secondIngredientId));\r\n\r\n        Card storage firstIngredient = cards[_firstIngredientId];\r\n\r\n        require(_isReadyToCombine(firstIngredient));\r\n\r\n        Card storage secondIngredient = cards[_secondIngredientId];\r\n\r\n        require(_isReadyToCombine(secondIngredient));\r\n\r\n        require(_isValidCombination(\r\n            firstIngredient,\r\n            _firstIngredientId,\r\n            secondIngredient,\r\n            _secondIngredientId\r\n        ));\r\n\r\n        // All checks passed, card gets pregnant!\r\n        _combineWith(_firstIngredientId, _secondIngredientId);\r\n    }\r\n\r\n    function _combineWith(uint256 _firstIngredientId, uint256 _secondIngredientId) internal {\r\n        Card storage firstIngredient = cards[_firstIngredientId];\r\n        Card storage secondIngredient = cards[_secondIngredientId];\r\n\r\n        firstIngredient.combiningWithId = uint32(_secondIngredientId);\r\n\r\n        _triggerCooldown(firstIngredient);\r\n        _triggerCooldown(secondIngredient);\r\n\r\n        // Every time a card combines, counter is incremented\r\n        combiningCards++;\r\n\r\n        Combining(cardIndexToOwner[_firstIngredientId], _firstIngredientId, _secondIngredientId);\r\n    }\r\n\r\n    function spawnCard(uint256 _firstIngredientId)\r\n        public\r\n        whenNotPaused\r\n        returns(uint256)\r\n    {\r\n        Card storage firstIngredient = cards[_firstIngredientId];\r\n\r\n        require(firstIngredient.spawnTime != 0);\r\n\r\n        require(_isReadyToSpawn(firstIngredient));\r\n\r\n        uint256 secondIngredientId = firstIngredient.combiningWithId;\r\n        Card storage secondIngredient = cards[secondIngredientId];\r\n\r\n        uint newGen = firstIngredient.generation;\r\n        if (secondIngredient.generation > firstIngredient.generation) {\r\n            newGen = secondIngredient.generation;\r\n        }\r\n\r\n        uint256 newCardSkills = skillScience.mixSkills(firstIngredient.skills, secondIngredient.skills);\r\n\r\n        address owner = cardIndexToOwner[_firstIngredientId];\r\n        uint256 cardId = _createCard(newCardSkills, firstIngredient.name, _firstIngredientId, firstIngredient.combiningWithId, newGen + 1, owner);\r\n\r\n        delete firstIngredient.combiningWithId;\r\n\r\n        // Every time card spawns, counter is decremented.\r\n        combiningCards--;\r\n\r\n        return cardId;\r\n    }\r\n}\r\n\r\ncontract CardAuction is CardCombining {\r\n    // @notice The auction contract variables are defined in CryptoCardsBase to allow\r\n    //  us to refer to them in CardOwnership to prevent accidental transfers.\r\n    \r\n    // @dev Sets the reference to the sale auction.\r\n    // @param _address - Address of sale contract.\r\n    function setSaleAuctionAddress(address _address) external onlyCEO {\r\n        SaleClockAuction candidateContract = SaleClockAuction(_address);\r\n\r\n        // NOTE: Verify that a contract is what we expect\r\n        require(candidateContract.isSaleClockAuction());\r\n\r\n        // Set the new contract address\r\n        saleAuction = candidateContract;\r\n    }\r\n\r\n    // @dev Put a kitty up for auction.\r\n    //  Does some ownership trickery to create auctions in one tx.\r\n    function createSaleAuction(\r\n        uint256 _cardId,\r\n        uint256 _startingPrice,\r\n        uint256 _endingPrice,\r\n        uint256 _duration\r\n    )\r\n        external\r\n        whenNotPaused\r\n    {\r\n        // Auction contract checks input sizes\r\n        // If card is already on any auction, this will throw\r\n        // becuase it will be owned by the auction contract.\r\n        require(_owns(msg.sender, _cardId));\r\n        _approve(_cardId, saleAuction);\r\n        // Sale auction throws if inputs are invalid and clears\r\n        // transfer approval after escrowing the card\r\n        saleAuction.createAuction(\r\n            _cardId,\r\n            _startingPrice,\r\n            _endingPrice,\r\n            _duration,\r\n            msg.sender\r\n        );\r\n    }\r\n}\r\n\r\ncontract CardMinting is CardAuction {\r\n\r\n    // Constants for gen0 auctions.\r\n    // DANGER CHANGED THESE CONSTANTS\r\n    uint256 public constant GEN0_STARTING_PRICE = 1 wei;\r\n    uint256 public constant GEN0_AUCTION_DURATION = 1 days;\r\n\r\n    // Counts the number of cards the contract owner has created.\r\n    uint256 public gen0CreatedCount;\r\n\r\n    // @dev Creates a new gen0 card with the given skills and\r\n    //  creates an auction for it.\r\n    function createGen0Auction(uint128 _skills, bytes32 _name) external onlyCLevel {\r\n        uint256 cardId = _createCard(_skills, _name, 0, 0, 0, address(this));\r\n        _approve(cardId, saleAuction);\r\n\r\n        saleAuction.createAuction(\r\n            cardId,\r\n            _computeNextGen0Price(),\r\n            0,\r\n            GEN0_AUCTION_DURATION,\r\n            address(this)\r\n        );\r\n\r\n        gen0CreatedCount++;\r\n    }\r\n\r\n    // @dev Computes the next gen0 auction starting price, given\r\n    //  the average of the past 5 prices + 50%\r\n    function _computeNextGen0Price() internal view returns (uint256) {\r\n        uint256 avePrice = saleAuction.averageGen0SalePrice();\r\n\r\n        // Sanity check to ensure we don't overflow arithmetic\r\n        require(avePrice == uint256(uint128(avePrice)));\r\n\r\n        uint256 nextPrice = avePrice + (avePrice / 2);\r\n\r\n        // We never auction for less than starting price\r\n        if (nextPrice < GEN0_STARTING_PRICE) {\r\n            nextPrice = GEN0_STARTING_PRICE;\r\n        }\r\n\r\n        return nextPrice;\r\n    }\r\n}\r\n\r\ncontract CryptoCardsCore is CardMinting {\r\n    \r\n    // Set in case the core contract is broken and an upgrade is required\r\n    address public newContractAddress;\r\n\r\n    // @notice Creates the main CryptoKitties smart contract instance.\r\n    function CryptoCardsCore() public payable {\r\n        // Starts paused.\r\n        paused = true;\r\n\r\n        // the creator of the contract is the initial CEO\r\n        ceoAddress = msg.sender;\r\n\r\n        // the creator of the contract is also the intial COO\r\n        cooAddress = msg.sender;\r\n    }\r\n\r\n    // @notice No tipping!\r\n    // @dev Reject all Ether from being sent here, unless it's from one of the\r\n    //  two auction contracts. (Hopefully, we can prevent user accidents.)\r\n    function() external payable {\r\n        require(\r\n            msg.sender == address(saleAuction)\r\n        );\r\n    }\r\n\r\n    // @notice Returns all the relevant info about a specific card.\r\n    // @param _id The ID of the card of interest.\r\n    function getCard(uint256 _id) external view returns (\r\n        bool isCombining,\r\n        bool isReady,\r\n        uint256 cooldownIndex,\r\n        uint256 nextActionAt,\r\n        uint256 combiningWithId,\r\n        uint256 spawnTime,\r\n        uint256 firstIngredientId,\r\n        uint256 secondIngredientId,\r\n        uint256 generation,\r\n        uint256 skills, \r\n        bytes32 name        \r\n        ) {\r\n        Card storage card = cards[_id];\r\n\r\n        isCombining = (card.combiningWithId != 0);\r\n        isReady = (card.cooldownEndBlock <= block.number);\r\n        cooldownIndex = uint256(card.cooldownIndex);\r\n        nextActionAt = uint256(card.cooldownEndBlock);\r\n        combiningWithId = uint256(card.combiningWithId);\r\n        spawnTime = uint256(card.spawnTime);\r\n        firstIngredientId = uint256(card.firstIngredientId);\r\n        secondIngredientId = uint256(card.secondIngredientId);\r\n        generation = uint256(card.generation);\r\n        skills = uint256(card.skills);\r\n        name = card.name;\r\n    }\r\n\r\n    // @dev Override unpause so it requires all external contract addresses\r\n    //  to be set before contract can be unpaused. Also, we can't have\r\n    //  newContractAddress set either, because then the contract was upgraded.\r\n    // @notice This is public rather than external so we can call super.unpause\r\n    //  without using an expensive CALL.\r\n    function unpause() public onlyCEO whenPaused {\r\n        require(saleAuction != address(0));\r\n        require(newContractAddress == address(0));\r\n        require(skillScience != address(0));\r\n\r\n        // Actually unpause the contract.\r\n        super.unpause();        \r\n    }\r\n\r\n    // @dev Allows the CEO to capture the balance available to the contract.\r\n    function withdrawBalance() external onlyCEO {\r\n        uint256 balance = this.balance;\r\n        // Subtract all the currently combining cards, plus 1 of margin.\r\n        uint256 subtractFees = (combiningCards + 1) * autoCombineFee;\r\n\r\n        if (balance > subtractFees) {\r\n            ceoAddress.transfer(balance - subtractFees);\r\n        }\r\n    }\r\n}",
  "sourcePath": "C:\\Users\\Lan\\CryptoCards\\contracts\\CryptoCardsCore.sol",
  "compiler": {
    "name": "solc",
    "version": "0.4.19+commit.c4cbbb05.Emscripten.clang"
  },
  "schemaVersion": "1.0.1",
  "updatedAt": "2018-04-30T03:12:46.459Z"
}