{
  "contractName": "ClockAuction",
  "abi": [
    {
      "constant": false,
      "inputs": [],
      "name": "unpause",
      "outputs": [
        {
          "name": "",
          "type": "bool"
        }
      ],
      "payable": false,
      "stateMutability": "nonpayable",
      "type": "function"
    },
    {
      "constant": true,
      "inputs": [],
      "name": "paused",
      "outputs": [
        {
          "name": "",
          "type": "bool"
        }
      ],
      "payable": false,
      "stateMutability": "view",
      "type": "function"
    },
    {
      "constant": true,
      "inputs": [],
      "name": "ownerCut",
      "outputs": [
        {
          "name": "",
          "type": "uint256"
        }
      ],
      "payable": false,
      "stateMutability": "view",
      "type": "function"
    },
    {
      "constant": false,
      "inputs": [],
      "name": "pause",
      "outputs": [
        {
          "name": "",
          "type": "bool"
        }
      ],
      "payable": false,
      "stateMutability": "nonpayable",
      "type": "function"
    },
    {
      "constant": true,
      "inputs": [],
      "name": "owner",
      "outputs": [
        {
          "name": "",
          "type": "address"
        }
      ],
      "payable": false,
      "stateMutability": "view",
      "type": "function"
    },
    {
      "constant": true,
      "inputs": [],
      "name": "nonFungibleContract",
      "outputs": [
        {
          "name": "",
          "type": "address"
        }
      ],
      "payable": false,
      "stateMutability": "view",
      "type": "function"
    },
    {
      "constant": false,
      "inputs": [
        {
          "name": "newOwner",
          "type": "address"
        }
      ],
      "name": "transferOwnership",
      "outputs": [],
      "payable": false,
      "stateMutability": "nonpayable",
      "type": "function"
    },
    {
      "inputs": [
        {
          "name": "_nftAddress",
          "type": "address"
        },
        {
          "name": "_cut",
          "type": "uint256"
        }
      ],
      "payable": false,
      "stateMutability": "nonpayable",
      "type": "constructor"
    },
    {
      "anonymous": false,
      "inputs": [
        {
          "indexed": false,
          "name": "tokenId",
          "type": "uint256"
        },
        {
          "indexed": false,
          "name": "startingPrice",
          "type": "uint256"
        },
        {
          "indexed": false,
          "name": "endingPrice",
          "type": "uint256"
        },
        {
          "indexed": false,
          "name": "duration",
          "type": "uint256"
        }
      ],
      "name": "AuctionCreated",
      "type": "event"
    },
    {
      "anonymous": false,
      "inputs": [
        {
          "indexed": false,
          "name": "tokenId",
          "type": "uint256"
        },
        {
          "indexed": false,
          "name": "totalPrice",
          "type": "uint256"
        },
        {
          "indexed": false,
          "name": "winner",
          "type": "address"
        }
      ],
      "name": "AuctionSuccessful",
      "type": "event"
    },
    {
      "anonymous": false,
      "inputs": [
        {
          "indexed": false,
          "name": "tokenId",
          "type": "uint256"
        }
      ],
      "name": "AuctionCancelled",
      "type": "event"
    },
    {
      "anonymous": false,
      "inputs": [],
      "name": "Pause",
      "type": "event"
    },
    {
      "anonymous": false,
      "inputs": [],
      "name": "Unpause",
      "type": "event"
    },
    {
      "constant": false,
      "inputs": [],
      "name": "withdrawBalance",
      "outputs": [],
      "payable": false,
      "stateMutability": "nonpayable",
      "type": "function"
    },
    {
      "constant": false,
      "inputs": [
        {
          "name": "_tokenId",
          "type": "uint256"
        },
        {
          "name": "_startingPrice",
          "type": "uint256"
        },
        {
          "name": "_endingPrice",
          "type": "uint256"
        },
        {
          "name": "_duration",
          "type": "uint256"
        },
        {
          "name": "_seller",
          "type": "address"
        }
      ],
      "name": "createAuction",
      "outputs": [],
      "payable": false,
      "stateMutability": "nonpayable",
      "type": "function"
    },
    {
      "constant": false,
      "inputs": [
        {
          "name": "_tokenId",
          "type": "uint256"
        }
      ],
      "name": "bid",
      "outputs": [],
      "payable": true,
      "stateMutability": "payable",
      "type": "function"
    },
    {
      "constant": false,
      "inputs": [
        {
          "name": "_tokenId",
          "type": "uint256"
        }
      ],
      "name": "cancelAuction",
      "outputs": [],
      "payable": false,
      "stateMutability": "nonpayable",
      "type": "function"
    },
    {
      "constant": false,
      "inputs": [
        {
          "name": "_tokenId",
          "type": "uint256"
        }
      ],
      "name": "cancelAuctionWhenPaused",
      "outputs": [],
      "payable": false,
      "stateMutability": "nonpayable",
      "type": "function"
    },
    {
      "constant": true,
      "inputs": [
        {
          "name": "_tokenId",
          "type": "uint256"
        }
      ],
      "name": "getAuction",
      "outputs": [
        {
          "name": "seller",
          "type": "address"
        },
        {
          "name": "startingPrice",
          "type": "uint256"
        },
        {
          "name": "endingPrice",
          "type": "uint256"
        },
        {
          "name": "duration",
          "type": "uint256"
        },
        {
          "name": "startedAt",
          "type": "uint256"
        }
      ],
      "payable": false,
      "stateMutability": "view",
      "type": "function"
    },
    {
      "constant": true,
      "inputs": [
        {
          "name": "_tokenId",
          "type": "uint256"
        }
      ],
      "name": "getCurrentPrice",
      "outputs": [
        {
          "name": "",
          "type": "uint256"
        }
      ],
      "payable": false,
      "stateMutability": "view",
      "type": "function"
    }
  ],
  "bytecode": "0x606060405260008060146101000a81548160ff021916908315150217905550341561002957600080fd5b604051604080611774833981016040528080519060200190919080519060200190919050506000336000806101000a81548173ffffffffffffffffffffffffffffffffffffffff021916908373ffffffffffffffffffffffffffffffffffffffff16021790555061271082111515156100a157600080fd5b816002819055508290508073ffffffffffffffffffffffffffffffffffffffff166301ffc9a7639a20483d7c0100000000000000000000000000000000000000000000000000000000026000604051602001526040518263ffffffff167c010000000000000000000000000000000000000000000000000000000002815260040180827bffffffffffffffffffffffffffffffffffffffffffffffffffffffff19167bffffffffffffffffffffffffffffffffffffffffffffffffffffffff19168152602001915050602060405180830381600087803b151561018357600080fd5b6102c65a03f1151561019457600080fd5b5050506040518051905015156101a957600080fd5b80600160006101000a81548173ffffffffffffffffffffffffffffffffffffffff021916908373ffffffffffffffffffffffffffffffffffffffff160217905550505050611578806101fc6000396000f3006060604052600436106100d0576000357c0100000000000000000000000000000000000000000000000000000000900463ffffffff16806327ebe40a146100d55780633f4ba83a14610132578063454a2ab31461015f5780635c975abb146101775780635fd8c710146101a457806378bd7935146101b957806383b5ff8b146102385780638456cb5914610261578063878eb3681461028e5780638da5cb5b146102b157806396b5a75514610306578063c55d0f5614610329578063dd1b7a0f14610360578063f2fde38b146103b5575b600080fd5b34156100e057600080fd5b610130600480803590602001909190803590602001909190803590602001909190803590602001909190803573ffffffffffffffffffffffffffffffffffffffff169060200190919050506103ee565b005b341561013d57600080fd5b610145610513565b604051808215151515815260200191505060405180910390f35b61017560048080359060200190919050506105d8565b005b341561018257600080fd5b61018a61060c565b604051808215151515815260200191505060405180910390f35b34156101af57600080fd5b6101b761061f565b005b34156101c457600080fd5b6101da6004808035906020019091905050610731565b604051808673ffffffffffffffffffffffffffffffffffffffff1673ffffffffffffffffffffffffffffffffffffffff1681526020018581526020018481526020018381526020018281526020019550505050505060405180910390f35b341561024357600080fd5b61024b610854565b6040518082815260200191505060405180910390f35b341561026c57600080fd5b61027461085a565b604051808215151515815260200191505060405180910390f35b341561029957600080fd5b6102af6004808035906020019091905050610921565b005b34156102bc57600080fd5b6102c46109f3565b604051808273ffffffffffffffffffffffffffffffffffffffff1673ffffffffffffffffffffffffffffffffffffffff16815260200191505060405180910390f35b341561031157600080fd5b6103276004808035906020019091905050610a18565b005b341561033457600080fd5b61034a6004808035906020019091905050610ab4565b6040518082815260200191505060405180910390f35b341561036b57600080fd5b610373610af1565b604051808273ffffffffffffffffffffffffffffffffffffffff1673ffffffffffffffffffffffffffffffffffffffff16815260200191505060405180910390f35b34156103c057600080fd5b6103ec600480803573ffffffffffffffffffffffffffffffffffffffff16906020019091905050610b17565b005b6103f66114ce565b600060149054906101000a900460ff1615151561041257600080fd5b846fffffffffffffffffffffffffffffffff168514151561043257600080fd5b836fffffffffffffffffffffffffffffffff168414151561045257600080fd5b8267ffffffffffffffff168314151561046a57600080fd5b6104743387610bec565b151561047f57600080fd5b6104893387610cd8565b60a0604051908101604052808373ffffffffffffffffffffffffffffffffffffffff168152602001866fffffffffffffffffffffffffffffffff168152602001856fffffffffffffffffffffffffffffffff1681526020018467ffffffffffffffff1681526020014267ffffffffffffffff16815250905061050b8682610de8565b505050505050565b60008060009054906101000a900473ffffffffffffffffffffffffffffffffffffffff1673ffffffffffffffffffffffffffffffffffffffff163373ffffffffffffffffffffffffffffffffffffffff1614151561057057600080fd5b600060149054906101000a900460ff16151561058b57600080fd5b60008060146101000a81548160ff0219169083151502179055507f7805862f689e2f13df9f062ff482ad3ad112aca9e0847911ed832e158c525b3360405160405180910390a16001905090565b600060149054906101000a900460ff161515156105f457600080fd5b6105fe8134610fcd565b50610609338261116c565b50565b600060149054906101000a900460ff1681565b6000600160009054906101000a900473ffffffffffffffffffffffffffffffffffffffff1690506000809054906101000a900473ffffffffffffffffffffffffffffffffffffffff1673ffffffffffffffffffffffffffffffffffffffff163373ffffffffffffffffffffffffffffffffffffffff1614806106cc57508073ffffffffffffffffffffffffffffffffffffffff163373ffffffffffffffffffffffffffffffffffffffff16145b15156106d757600080fd5b8073ffffffffffffffffffffffffffffffffffffffff166108fc8273ffffffffffffffffffffffffffffffffffffffff16319081150290604051600060405180830381858888f19350505050151561072e57600080fd5b50565b60008060008060008060036000888152602001908152602001600020905061075881611248565b151561076357600080fd5b8060000160009054906101000a900473ffffffffffffffffffffffffffffffffffffffff168160010160009054906101000a90046fffffffffffffffffffffffffffffffff168260010160109054906101000a90046fffffffffffffffffffffffffffffffff168360020160009054906101000a900467ffffffffffffffff168460020160089054906101000a900467ffffffffffffffff16836fffffffffffffffffffffffffffffffff169350826fffffffffffffffffffffffffffffffff1692508167ffffffffffffffff1691508067ffffffffffffffff169050955095509550955095505091939590929450565b60025481565b60008060009054906101000a900473ffffffffffffffffffffffffffffffffffffffff1673ffffffffffffffffffffffffffffffffffffffff163373ffffffffffffffffffffffffffffffffffffffff161415156108b757600080fd5b600060149054906101000a900460ff161515156108d357600080fd5b6001600060146101000a81548160ff0219169083151502179055507f6985a02210a168e66602d3235cb6db0e70f92b3ba4d376a33c0f3d9434bff62560405160405180910390a16001905090565b60008060149054906101000a900460ff16151561093d57600080fd5b6000809054906101000a900473ffffffffffffffffffffffffffffffffffffffff1673ffffffffffffffffffffffffffffffffffffffff163373ffffffffffffffffffffffffffffffffffffffff1614151561099857600080fd5b6003600083815260200190815260200160002090506109b681611248565b15156109c157600080fd5b6109ef828260000160009054906101000a900473ffffffffffffffffffffffffffffffffffffffff16611276565b5050565b6000809054906101000a900473ffffffffffffffffffffffffffffffffffffffff1681565b600080600360008481526020019081526020016000209150610a3982611248565b1515610a4457600080fd5b8160000160009054906101000a900473ffffffffffffffffffffffffffffffffffffffff1690508073ffffffffffffffffffffffffffffffffffffffff163373ffffffffffffffffffffffffffffffffffffffff16141515610aa557600080fd5b610aaf8382611276565b505050565b600080600360008481526020019081526020016000209050610ad581611248565b1515610ae057600080fd5b610ae9816112c4565b915050919050565b600160009054906101000a900473ffffffffffffffffffffffffffffffffffffffff1681565b6000809054906101000a900473ffffffffffffffffffffffffffffffffffffffff1673ffffffffffffffffffffffffffffffffffffffff163373ffffffffffffffffffffffffffffffffffffffff16141515610b7257600080fd5b600073ffffffffffffffffffffffffffffffffffffffff168173ffffffffffffffffffffffffffffffffffffffff16141515610be957806000806101000a81548173ffffffffffffffffffffffffffffffffffffffff021916908373ffffffffffffffffffffffffffffffffffffffff1602179055505b50565b60008273ffffffffffffffffffffffffffffffffffffffff16600160009054906101000a900473ffffffffffffffffffffffffffffffffffffffff1673ffffffffffffffffffffffffffffffffffffffff16636352211e846000604051602001526040518263ffffffff167c010000000000000000000000000000000000000000000000000000000002815260040180828152602001915050602060405180830381600087803b1515610c9e57600080fd5b6102c65a03f11515610caf57600080fd5b5050506040518051905073ffffffffffffffffffffffffffffffffffffffff1614905092915050565b600160009054906101000a900473ffffffffffffffffffffffffffffffffffffffff1673ffffffffffffffffffffffffffffffffffffffff166323b872dd8330846040518463ffffffff167c0100000000000000000000000000000000000000000000000000000000028152600401808473ffffffffffffffffffffffffffffffffffffffff1673ffffffffffffffffffffffffffffffffffffffff1681526020018373ffffffffffffffffffffffffffffffffffffffff1673ffffffffffffffffffffffffffffffffffffffff1681526020018281526020019350505050600060405180830381600087803b1515610dd057600080fd5b6102c65a03f11515610de157600080fd5b5050505050565b603c816060015167ffffffffffffffff1610151515610e0657600080fd5b806003600084815260200190815260200160002060008201518160000160006101000a81548173ffffffffffffffffffffffffffffffffffffffff021916908373ffffffffffffffffffffffffffffffffffffffff16021790555060208201518160010160006101000a8154816fffffffffffffffffffffffffffffffff02191690836fffffffffffffffffffffffffffffffff16021790555060408201518160010160106101000a8154816fffffffffffffffffffffffffffffffff02191690836fffffffffffffffffffffffffffffffff16021790555060608201518160020160006101000a81548167ffffffffffffffff021916908367ffffffffffffffff16021790555060808201518160020160086101000a81548167ffffffffffffffff021916908367ffffffffffffffff1602179055509050507fa9c8dfcda5664a5a124c713e386da27de87432d5b668e79458501eb296389ba78282602001516fffffffffffffffffffffffffffffffff1683604001516fffffffffffffffffffffffffffffffff16846060015167ffffffffffffffff166040518085815260200184815260200183815260200182815260200194505050505060405180910390a15050565b6000806000806000806000600360008a81526020019081526020016000209550610ff686611248565b151561100157600080fd5b61100a866112c4565b945084881015151561101b57600080fd5b8560000160009054906101000a900473ffffffffffffffffffffffffffffffffffffffff16935061104b896113b7565b60008511156110a55761105d85611473565b925082850391508373ffffffffffffffffffffffffffffffffffffffff166108fc839081150290604051600060405180830381858888f1935050505015156110a457600080fd5b5b84880390503373ffffffffffffffffffffffffffffffffffffffff166108fc829081150290604051600060405180830381858888f1935050505015156110ea57600080fd5b7f4fcc30d90a842164dd58501ab874a101a3749c3d4747139cefe7c876f4ccebd2898633604051808481526020018381526020018273ffffffffffffffffffffffffffffffffffffffff1673ffffffffffffffffffffffffffffffffffffffff168152602001935050505060405180910390a184965050505050505092915050565b600160009054906101000a900473ffffffffffffffffffffffffffffffffffffffff1673ffffffffffffffffffffffffffffffffffffffff1663a9059cbb83836040518363ffffffff167c0100000000000000000000000000000000000000000000000000000000028152600401808373ffffffffffffffffffffffffffffffffffffffff1673ffffffffffffffffffffffffffffffffffffffff16815260200182815260200192505050600060405180830381600087803b151561123057600080fd5b6102c65a03f1151561124157600080fd5b5050505050565b6000808260020160089054906101000a900467ffffffffffffffff1667ffffffffffffffff16119050919050565b61127f826113b7565b611289818361116c565b7f2809c7e17bf978fbc7194c0a694b638c4215e9140cacc6c38ca36010b45697df826040518082815260200191505060405180910390a15050565b600080600090508260020160089054906101000a900467ffffffffffffffff1667ffffffffffffffff1642111561131d578260020160089054906101000a900467ffffffffffffffff1667ffffffffffffffff16420390505b6113af8360010160009054906101000a90046fffffffffffffffffffffffffffffffff166fffffffffffffffffffffffffffffffff168460010160109054906101000a90046fffffffffffffffffffffffffffffffff166fffffffffffffffffffffffffffffffff168560020160009054906101000a900467ffffffffffffffff1667ffffffffffffffff168461148e565b915050919050565b60036000828152602001908152602001600020600080820160006101000a81549073ffffffffffffffffffffffffffffffffffffffff02191690556001820160006101000a8154906fffffffffffffffffffffffffffffffff02191690556001820160106101000a8154906fffffffffffffffffffffffffffffffff02191690556002820160006101000a81549067ffffffffffffffff02191690556002820160086101000a81549067ffffffffffffffff0219169055505050565b6000612710600254830281151561148657fe5b049050919050565b60008060008085851015156114a5578693506114c3565b8787039250858584028115156114b757fe5b05915081880190508093505b505050949350505050565b60a060405190810160405280600073ffffffffffffffffffffffffffffffffffffffff16815260200160006fffffffffffffffffffffffffffffffff16815260200160006fffffffffffffffffffffffffffffffff168152602001600067ffffffffffffffff168152602001600067ffffffffffffffff16815250905600a165627a7a723058201209f2a7234d68da66dccfdb65cb1479275ebe37d380ee623a23aec6cf9c75830029",
  "source": "// @title Clock auction for non-fungible tokens\r\n// @notice We omit a fallback function to prevent accidental sends to this contract.\r\n\r\npragma solidity ^0.4.18;\r\n\r\nimport \"./ClockAuctionBase.sol\";\r\nimport \"./Pausable.sol\";\r\n//import \"./ERC721.sol\";\r\n\r\ncontract ClockAuction is Pausable, ClockAuctionBase {\r\n    // @dev The ERC-165 interface signature for ERC721.\r\n    //  Ref: https://github.com/ethereum/EIPs/issues/165\r\n    //  Ref: https://github.com/ethereum/EIPs/issues/721\r\n    bytes4 constant InterfaceSignature_ERC721 = bytes4(0x9a20483d);\r\n\r\n    // @dev Constructor creates a reference to the NFT ownership contract\r\n    //  and verifies the owner cut is in the valid range.\r\n    // @param _nftAddress - address of a deployed contract implementing\r\n    //  the Nonfungible Interface\r\n    // @param _cut - percent cut the owner takes on each auction, must be\r\n    //  between 0-10,000.\r\n    function ClockAuction(address _nftAddress, uint256 _cut) public {\r\n        require(_cut <= 10000);\r\n        ownerCut = _cut;\r\n\r\n        ERC721 candidateContract = ERC721(_nftAddress);\r\n        require(candidateContract.supportsInterface(InterfaceSignature_ERC721));\r\n        nonFungibleContract = candidateContract;\r\n    }\r\n\r\n    // @dev Remove all Ether from the contract, which is the owner's cuts\r\n    //  as well as any Ether sent directly to the contract address.\r\n    //  Always transfers to the NFT contract, but can be called either by\r\n    //  the owner or the NFT contract.\r\n    function withdrawBalance() external {\r\n        address nftAddress = address(nonFungibleContract);\r\n\r\n        require(\r\n            msg.sender == owner ||\r\n            msg.sender == nftAddress\r\n        );\r\n        \r\n        nftAddress.transfer(nftAddress.balance);\r\n    }\r\n\r\n    // @dev Creates and begins a new auction.\r\n    // @param _tokenId - ID of token to auction, sender must be owner.\r\n    // @param _startingPrice - Price of iten (in wei) at beginning of auction.\r\n    // @param _endingPrice - Price of item (in wei) at beginning of auction.\r\n    // @param _duration - Length of time to move between starting\r\n    //  price and ending price (in seconds).\r\n    // @param _seller - Seller, if not the message sender\r\n    function createAuction(\r\n        uint256 _tokenId,\r\n        uint256 _startingPrice,\r\n        uint256 _endingPrice,\r\n        uint256 _duration,\r\n        address _seller\r\n    )\r\n    external\r\n    whenNotPaused\r\n    {\r\n        // Sanity check that no inputs overflow how many bits we've allocated\r\n        // to store them in the auction struct.\r\n        require(_startingPrice == uint256(uint128(_startingPrice)));\r\n        require(_endingPrice == uint256(uint128(_endingPrice)));\r\n        require(_duration == uint256(uint64(_duration)));\r\n\r\n        require(_owns(msg.sender, _tokenId));\r\n        _escrow(msg.sender, _tokenId);\r\n        Auction memory auction = Auction(\r\n            _seller,\r\n            uint128(_startingPrice),\r\n            uint128(_endingPrice),\r\n            uint64(_duration),\r\n            uint64(now)\r\n        );\r\n        _addAuction(_tokenId, auction);\r\n    }\r\n\r\n    // @dev Bids on an open auction, completing the auction and transferring\r\n    //  ownership of the NFT if enough Ether is supplied\r\n    // @param _tokenId - ID of token to bid on\r\n    function bid(uint256 _tokenId)\r\n        external\r\n        payable\r\n        whenNotPaused\r\n    {\r\n        // _bid will throw if the bid or funs tranfer fails\r\n        _bid(_tokenId, msg.value);\r\n        _transfer(msg.sender, _tokenId);\r\n    }\r\n\r\n    // @dev Cancels an auction that hasn't been won yet.\r\n    //  Returns the NFT to original owner.\r\n    // @notice This is a state-modifying function that can\r\n    //  be called while the contract is paused.\r\n    // @param _tokenId - ID of token on auction\r\n    function cancelAuction(uint256 _tokenId)\r\n        external\r\n    {\r\n        Auction storage auction = tokenIdToAuction[_tokenId];\r\n        require(_isOnAuction(auction));\r\n        address seller = auction.seller;\r\n        require(msg.sender == seller);\r\n        _cancelAuction(_tokenId, seller);\r\n    }\r\n\r\n    // @dev Cancels an auction when the contract is paused.\r\n    //  Only the owner may do this, and NFTs are returned to\r\n    //  the seller. This should only be used in emergencies.\r\n    // @param _tokenId - ID of the NFT on auction to cancel.\r\n    function cancelAuctionWhenPaused(uint256 _tokenId)\r\n        whenPaused\r\n        onlyOwner\r\n        external\r\n    {\r\n        Auction storage auction = tokenIdToAuction[_tokenId];\r\n        require(_isOnAuction(auction));\r\n        _cancelAuction(_tokenId, auction.seller);\r\n    }\r\n\r\n    // @dev Returns auction info for an NFT on auction.\r\n    // @param _tokenId - ID of NFT on auction.\r\n    function getAuction(uint256 _tokenId)\r\n        external\r\n        view\r\n        returns\r\n    (\r\n        address seller,\r\n        uint256 startingPrice,\r\n        uint256 endingPrice,\r\n        uint256 duration,\r\n        uint256 startedAt\r\n    ) {\r\n        Auction storage auction = tokenIdToAuction[_tokenId];\r\n        require(_isOnAuction(auction));\r\n        return (\r\n            auction.seller,\r\n            auction.startingPrice,\r\n            auction.endingPrice,\r\n            auction.duration,\r\n            auction.startedAt\r\n        );\r\n    }\r\n\r\n    // @dev Returns the current price of an auction.\r\n    // @param _tokenId - ID of the token price we are checking.\r\n    function getCurrentPrice(uint256 _tokenId)\r\n        external\r\n        view\r\n        returns (uint256)\r\n    {\r\n        Auction storage auction = tokenIdToAuction[_tokenId];\r\n        require(_isOnAuction(auction));\r\n        return _currentPrice(auction);\r\n    }\r\n}",
  "sourcePath": "C:\\Users\\Lan\\CryptoCards\\contracts\\ClockAuction.sol",
  "compiler": {
    "name": "solc",
    "version": "0.4.19+commit.c4cbbb05.Emscripten.clang"
  },
  "schemaVersion": "1.0.1",
  "updatedAt": "2018-04-07T22:46:48.757Z"
}