{
  "contractName": "CryptoCardsCore",
  "abi": [
    {
      "constant": true,
      "inputs": [],
      "name": "name",
      "outputs": [
        {
          "name": "",
          "type": "string"
        }
      ],
      "payable": false,
      "stateMutability": "view",
      "type": "function"
    },
    {
      "constant": true,
      "inputs": [],
      "name": "ceoAddress",
      "outputs": [
        {
          "name": "",
          "type": "address"
        }
      ],
      "payable": false,
      "stateMutability": "view",
      "type": "function"
    },
    {
      "constant": true,
      "inputs": [],
      "name": "GEN0_STARTING_PRICE",
      "outputs": [
        {
          "name": "",
          "type": "uint256"
        }
      ],
      "payable": false,
      "stateMutability": "view",
      "type": "function"
    },
    {
      "constant": true,
      "inputs": [],
      "name": "GEN0_AUCTION_DURATION",
      "outputs": [
        {
          "name": "",
          "type": "uint256"
        }
      ],
      "payable": false,
      "stateMutability": "view",
      "type": "function"
    },
    {
      "constant": false,
      "inputs": [
        {
          "name": "_newCEO",
          "type": "address"
        }
      ],
      "name": "setCEO",
      "outputs": [],
      "payable": false,
      "stateMutability": "nonpayable",
      "type": "function"
    },
    {
      "constant": false,
      "inputs": [
        {
          "name": "_newCOO",
          "type": "address"
        }
      ],
      "name": "setCOO",
      "outputs": [],
      "payable": false,
      "stateMutability": "nonpayable",
      "type": "function"
    },
    {
      "constant": true,
      "inputs": [
        {
          "name": "",
          "type": "uint256"
        }
      ],
      "name": "cardIndexToApproved",
      "outputs": [
        {
          "name": "",
          "type": "address"
        }
      ],
      "payable": false,
      "stateMutability": "view",
      "type": "function"
    },
    {
      "constant": false,
      "inputs": [
        {
          "name": "_cardId",
          "type": "uint256"
        },
        {
          "name": "_startingPrice",
          "type": "uint256"
        },
        {
          "name": "_endingPrice",
          "type": "uint256"
        },
        {
          "name": "_duration",
          "type": "uint256"
        }
      ],
      "name": "createSaleAuction",
      "outputs": [],
      "payable": false,
      "stateMutability": "nonpayable",
      "type": "function"
    },
    {
      "constant": false,
      "inputs": [],
      "name": "unpause",
      "outputs": [],
      "payable": false,
      "stateMutability": "nonpayable",
      "type": "function"
    },
    {
      "constant": false,
      "inputs": [
        {
          "name": "_skills",
          "type": "uint128"
        }
      ],
      "name": "createGen0Auction",
      "outputs": [],
      "payable": false,
      "stateMutability": "nonpayable",
      "type": "function"
    },
    {
      "constant": true,
      "inputs": [],
      "name": "paused",
      "outputs": [
        {
          "name": "",
          "type": "bool"
        }
      ],
      "payable": false,
      "stateMutability": "view",
      "type": "function"
    },
    {
      "constant": false,
      "inputs": [],
      "name": "withdrawBalance",
      "outputs": [],
      "payable": false,
      "stateMutability": "nonpayable",
      "type": "function"
    },
    {
      "constant": true,
      "inputs": [],
      "name": "newContractAddress",
      "outputs": [
        {
          "name": "",
          "type": "address"
        }
      ],
      "payable": false,
      "stateMutability": "view",
      "type": "function"
    },
    {
      "constant": false,
      "inputs": [
        {
          "name": "_address",
          "type": "address"
        }
      ],
      "name": "setSaleAuctionAddress",
      "outputs": [],
      "payable": false,
      "stateMutability": "nonpayable",
      "type": "function"
    },
    {
      "constant": true,
      "inputs": [
        {
          "name": "",
          "type": "uint256"
        }
      ],
      "name": "cardIndexToOwner",
      "outputs": [
        {
          "name": "",
          "type": "address"
        }
      ],
      "payable": false,
      "stateMutability": "view",
      "type": "function"
    },
    {
      "constant": false,
      "inputs": [],
      "name": "pause",
      "outputs": [],
      "payable": false,
      "stateMutability": "nonpayable",
      "type": "function"
    },
    {
      "constant": true,
      "inputs": [
        {
          "name": "_owner",
          "type": "address"
        }
      ],
      "name": "tokensOfOwner",
      "outputs": [
        {
          "name": "ownerTokens",
          "type": "uint256[]"
        }
      ],
      "payable": false,
      "stateMutability": "view",
      "type": "function"
    },
    {
      "constant": true,
      "inputs": [
        {
          "name": "_id",
          "type": "uint256"
        }
      ],
      "name": "getCard",
      "outputs": [
        {
          "name": "skills",
          "type": "uint128"
        }
      ],
      "payable": false,
      "stateMutability": "view",
      "type": "function"
    },
    {
      "constant": true,
      "inputs": [],
      "name": "symbol",
      "outputs": [
        {
          "name": "",
          "type": "string"
        }
      ],
      "payable": false,
      "stateMutability": "view",
      "type": "function"
    },
    {
      "constant": true,
      "inputs": [],
      "name": "cooAddress",
      "outputs": [
        {
          "name": "",
          "type": "address"
        }
      ],
      "payable": false,
      "stateMutability": "view",
      "type": "function"
    },
    {
      "constant": true,
      "inputs": [],
      "name": "saleAuction",
      "outputs": [
        {
          "name": "",
          "type": "address"
        }
      ],
      "payable": false,
      "stateMutability": "view",
      "type": "function"
    },
    {
      "constant": true,
      "inputs": [],
      "name": "gen0CreatedCount",
      "outputs": [
        {
          "name": "",
          "type": "uint256"
        }
      ],
      "payable": false,
      "stateMutability": "view",
      "type": "function"
    },
    {
      "inputs": [],
      "payable": false,
      "stateMutability": "nonpayable",
      "type": "constructor"
    },
    {
      "payable": true,
      "stateMutability": "payable",
      "type": "fallback"
    },
    {
      "anonymous": false,
      "inputs": [
        {
          "indexed": false,
          "name": "from",
          "type": "address"
        },
        {
          "indexed": false,
          "name": "to",
          "type": "address"
        },
        {
          "indexed": false,
          "name": "tokenId",
          "type": "uint256"
        }
      ],
      "name": "Transfer",
      "type": "event"
    },
    {
      "anonymous": false,
      "inputs": [
        {
          "indexed": false,
          "name": "owner",
          "type": "address"
        },
        {
          "indexed": false,
          "name": "approved",
          "type": "address"
        },
        {
          "indexed": false,
          "name": "tokenId",
          "type": "uint256"
        }
      ],
      "name": "Approval",
      "type": "event"
    },
    {
      "anonymous": false,
      "inputs": [
        {
          "indexed": false,
          "name": "owner",
          "type": "address"
        },
        {
          "indexed": false,
          "name": "tokenId",
          "type": "uint256"
        },
        {
          "indexed": false,
          "name": "skills",
          "type": "uint128"
        }
      ],
      "name": "Spawn",
      "type": "event"
    },
    {
      "constant": true,
      "inputs": [],
      "name": "totalSupply",
      "outputs": [
        {
          "name": "",
          "type": "uint256"
        }
      ],
      "payable": false,
      "stateMutability": "view",
      "type": "function"
    },
    {
      "constant": true,
      "inputs": [
        {
          "name": "_owner",
          "type": "address"
        }
      ],
      "name": "balanceOf",
      "outputs": [
        {
          "name": "count",
          "type": "uint256"
        }
      ],
      "payable": false,
      "stateMutability": "view",
      "type": "function"
    },
    {
      "constant": true,
      "inputs": [
        {
          "name": "_tokenId",
          "type": "uint256"
        }
      ],
      "name": "ownerOf",
      "outputs": [
        {
          "name": "owner",
          "type": "address"
        }
      ],
      "payable": false,
      "stateMutability": "view",
      "type": "function"
    },
    {
      "constant": false,
      "inputs": [
        {
          "name": "_to",
          "type": "address"
        },
        {
          "name": "_tokenId",
          "type": "uint256"
        }
      ],
      "name": "approve",
      "outputs": [],
      "payable": false,
      "stateMutability": "nonpayable",
      "type": "function"
    },
    {
      "constant": false,
      "inputs": [
        {
          "name": "_to",
          "type": "address"
        },
        {
          "name": "_tokenId",
          "type": "uint256"
        }
      ],
      "name": "transfer",
      "outputs": [],
      "payable": false,
      "stateMutability": "nonpayable",
      "type": "function"
    },
    {
      "constant": false,
      "inputs": [
        {
          "name": "_from",
          "type": "address"
        },
        {
          "name": "_to",
          "type": "address"
        },
        {
          "name": "_tokenId",
          "type": "uint256"
        }
      ],
      "name": "transferFrom",
      "outputs": [],
      "payable": false,
      "stateMutability": "nonpayable",
      "type": "function"
    },
    {
      "constant": true,
      "inputs": [
        {
          "name": "_interfaceID",
          "type": "bytes4"
        }
      ],
      "name": "supportsInterface",
      "outputs": [
        {
          "name": "",
          "type": "bool"
        }
      ],
      "payable": false,
      "stateMutability": "view",
      "type": "function"
    }
  ],
  "bytecode": "0x60606040526000600160146101000a81548160ff021916908315150217905550341561002a57600080fd5b6000600160146101000a81548160ff021916908315150217905550336000806101000a81548173ffffffffffffffffffffffffffffffffffffffff021916908373ffffffffffffffffffffffffffffffffffffffff16021790555033600160006101000a81548173ffffffffffffffffffffffffffffffffffffffff021916908373ffffffffffffffffffffffffffffffffffffffff160217905550612360806100d56000396000f300606060405260043610610175576000357c0100000000000000000000000000000000000000000000000000000000900463ffffffff16806301ffc9a7146101d357806306fdde031461022d578063095ea7b3146102bb5780630a0f8168146102fd5780630e583df01461035257806318160ddd1461037b57806319c2f201146103a457806323b872dd146103cd57806327d7874c1461042e5780632ba73c1514610467578063394baa0b146104a05780633d7d3f5a146105035780633f4ba83a14610541578063421182b7146105565780635c975abb1461058b5780635fd8c710146105b85780636352211e146105cd5780636af04a57146106305780636fbde40d1461068557806370a08231146106be57806378d0df501461070b5780638456cb591461076e5780638462151c146107835780639188d3121461081157806395d89b411461086c578063a9059cbb146108fa578063b047fb501461093c578063e6cbe35114610991578063f1ca9410146109e6575b600660009054906101000a900473ffffffffffffffffffffffffffffffffffffffff1673ffffffffffffffffffffffffffffffffffffffff163373ffffffffffffffffffffffffffffffffffffffff161415156101d157600080fd5b005b34156101de57600080fd5b61021360048080357bffffffffffffffffffffffffffffffffffffffffffffffffffffffff1916906020019091905050610a0f565b604051808215151515815260200191505060405180910390f35b341561023857600080fd5b610240610d20565b6040518080602001828103825283818151815260200191508051906020019080838360005b83811015610280578082015181840152602081019050610265565b50505050905090810190601f1680156102ad5780820380516001836020036101000a031916815260200191505b509250505060405180910390f35b34156102c657600080fd5b6102fb600480803573ffffffffffffffffffffffffffffffffffffffff16906020019091908035906020019091905050610d59565b005b341561030857600080fd5b610310610e37565b604051808273ffffffffffffffffffffffffffffffffffffffff1673ffffffffffffffffffffffffffffffffffffffff16815260200191505060405180910390f35b341561035d57600080fd5b610365610e5c565b6040518082815260200191505060405180910390f35b341561038657600080fd5b61038e610e67565b6040518082815260200191505060405180910390f35b34156103af57600080fd5b6103b7610e74565b6040518082815260200191505060405180910390f35b34156103d857600080fd5b61042c600480803573ffffffffffffffffffffffffffffffffffffffff1690602001909190803573ffffffffffffffffffffffffffffffffffffffff16906020019091908035906020019091905050610e7b565b005b341561043957600080fd5b610465600480803573ffffffffffffffffffffffffffffffffffffffff16906020019091905050610f48565b005b341561047257600080fd5b61049e600480803573ffffffffffffffffffffffffffffffffffffffff16906020019091905050611022565b005b34156104ab57600080fd5b6104c160048080359060200190919050506110fd565b604051808273ffffffffffffffffffffffffffffffffffffffff1673ffffffffffffffffffffffffffffffffffffffff16815260200191505060405180910390f35b341561050e57600080fd5b61053f6004808035906020019091908035906020019091908035906020019091908035906020019091905050611130565b005b341561054c57600080fd5b610554611283565b005b341561056157600080fd5b61058960048080356fffffffffffffffffffffffffffffffff169060200190919050506113be565b005b341561059657600080fd5b61059e6115bc565b604051808215151515815260200191505060405180910390f35b34156105c357600080fd5b6105cb6115cf565b005b34156105d857600080fd5b6105ee60048080359060200190919050506116aa565b604051808273ffffffffffffffffffffffffffffffffffffffff1673ffffffffffffffffffffffffffffffffffffffff16815260200191505060405180910390f35b341561063b57600080fd5b610643611723565b604051808273ffffffffffffffffffffffffffffffffffffffff1673ffffffffffffffffffffffffffffffffffffffff16815260200191505060405180910390f35b341561069057600080fd5b6106bc600480803573ffffffffffffffffffffffffffffffffffffffff16906020019091905050611749565b005b34156106c957600080fd5b6106f5600480803573ffffffffffffffffffffffffffffffffffffffff16906020019091905050611880565b6040518082815260200191505060405180910390f35b341561071657600080fd5b61072c60048080359060200190919050506118c9565b604051808273ffffffffffffffffffffffffffffffffffffffff1673ffffffffffffffffffffffffffffffffffffffff16815260200191505060405180910390f35b341561077957600080fd5b6107816118fc565b005b341561078e57600080fd5b6107ba600480803573ffffffffffffffffffffffffffffffffffffffff1690602001909190505061198f565b6040518080602001828103825283818151815260200191508051906020019060200280838360005b838110156107fd5780820151818401526020810190506107e2565b505050509050019250505060405180910390f35b341561081c57600080fd5b6108326004808035906020019091905050611ac6565b60405180826fffffffffffffffffffffffffffffffff166fffffffffffffffffffffffffffffffff16815260200191505060405180910390f35b341561087757600080fd5b61087f611b0e565b6040518080602001828103825283818151815260200191508051906020019080838360005b838110156108bf5780820151818401526020810190506108a4565b50505050905090810190601f1680156108ec5780820380516001836020036101000a031916815260200191505b509250505060405180910390f35b341561090557600080fd5b61093a600480803573ffffffffffffffffffffffffffffffffffffffff16906020019091908035906020019091905050611b47565b005b341561094757600080fd5b61094f611c5b565b604051808273ffffffffffffffffffffffffffffffffffffffff1673ffffffffffffffffffffffffffffffffffffffff16815260200191505060405180910390f35b341561099c57600080fd5b6109a4611c81565b604051808273ffffffffffffffffffffffffffffffffffffffff1673ffffffffffffffffffffffffffffffffffffffff16815260200191505060405180910390f35b34156109f157600080fd5b6109f9611ca7565b6040518082815260200191505060405180910390f35b600060405180807f737570706f727473496e74657266616365286279746573342900000000000000815250601901905060405180910390207bffffffffffffffffffffffffffffffffffffffffffffffffffffffff1916827bffffffffffffffffffffffffffffffffffffffffffffffffffffffff19161480610d19575060405180807f746f6b656e4d657461646174612875696e743235362c737472696e6729000000815250601d019050604051809103902060405180807f746f6b656e734f664f776e6572286164647265737329000000000000000000008152506016019050604051809103902060405180807f7472616e7366657246726f6d28616464726573732c616464726573732c75696e81526020017f74323536290000000000000000000000000000000000000000000000000000008152506025019050604051809103902060405180807f7472616e7366657228616464726573732c75696e7432353629000000000000008152506019019050604051809103902060405180807f617070726f766528616464726573732c75696e743235362900000000000000008152506018019050604051809103902060405180807f6f776e65724f662875696e7432353629000000000000000000000000000000008152506010019050604051809103902060405180807f62616c616e63654f6628616464726573732900000000000000000000000000008152506012019050604051809103902060405180807f746f74616c537570706c79282900000000000000000000000000000000000000815250600d019050604051809103902060405180807f73796d626f6c28290000000000000000000000000000000000000000000000008152506008019050604051809103902060405180807f6e616d6528290000000000000000000000000000000000000000000000000000815250600601905060405180910390201818181818181818187bffffffffffffffffffffffffffffffffffffffffffffffffffffffff1916827bffffffffffffffffffffffffffffffffffffffffffffffffffffffff1916145b9050919050565b6040805190810160405280600b81526020017f43727970746f436172647300000000000000000000000000000000000000000081525081565b600160149054906101000a900460ff16151515610d7557600080fd5b610d7f3382611cad565b1515610d8a57600080fd5b610d948183611d19565b7f8c5be1e5ebec7d5bd14f71427d1e84f3dd0314c0f7b2291e5b200ac8c7c3b925338383604051808473ffffffffffffffffffffffffffffffffffffffff1673ffffffffffffffffffffffffffffffffffffffff1681526020018373ffffffffffffffffffffffffffffffffffffffff1673ffffffffffffffffffffffffffffffffffffffff168152602001828152602001935050505060405180910390a15050565b6000809054906101000a900473ffffffffffffffffffffffffffffffffffffffff1681565b662386f26fc1000081565b6000600280549050905090565b6201518081565b600160149054906101000a900460ff16151515610e9757600080fd5b600073ffffffffffffffffffffffffffffffffffffffff168273ffffffffffffffffffffffffffffffffffffffff1614151515610ed357600080fd5b3073ffffffffffffffffffffffffffffffffffffffff168273ffffffffffffffffffffffffffffffffffffffff1614151515610f0e57600080fd5b610f183382611d6f565b1515610f2357600080fd5b610f2d8382611cad565b1515610f3857600080fd5b610f43838383611ddb565b505050565b6000809054906101000a900473ffffffffffffffffffffffffffffffffffffffff1673ffffffffffffffffffffffffffffffffffffffff163373ffffffffffffffffffffffffffffffffffffffff16141515610fa357600080fd5b600073ffffffffffffffffffffffffffffffffffffffff168173ffffffffffffffffffffffffffffffffffffffff1614151515610fdf57600080fd5b806000806101000a81548173ffffffffffffffffffffffffffffffffffffffff021916908373ffffffffffffffffffffffffffffffffffffffff16021790555050565b6000809054906101000a900473ffffffffffffffffffffffffffffffffffffffff1673ffffffffffffffffffffffffffffffffffffffff163373ffffffffffffffffffffffffffffffffffffffff1614151561107d57600080fd5b600073ffffffffffffffffffffffffffffffffffffffff168173ffffffffffffffffffffffffffffffffffffffff16141515156110b957600080fd5b80600160006101000a81548173ffffffffffffffffffffffffffffffffffffffff021916908373ffffffffffffffffffffffffffffffffffffffff16021790555050565b60056020528060005260406000206000915054906101000a900473ffffffffffffffffffffffffffffffffffffffff1681565b600160149054906101000a900460ff1615151561114c57600080fd5b6111563385611cad565b151561116157600080fd5b61118d84600660009054906101000a900473ffffffffffffffffffffffffffffffffffffffff16611d19565b600660009054906101000a900473ffffffffffffffffffffffffffffffffffffffff1673ffffffffffffffffffffffffffffffffffffffff166327ebe40a85858585336040518663ffffffff167c0100000000000000000000000000000000000000000000000000000000028152600401808681526020018581526020018481526020018381526020018273ffffffffffffffffffffffffffffffffffffffff1673ffffffffffffffffffffffffffffffffffffffff16815260200195505050505050600060405180830381600087803b151561126957600080fd5b6102c65a03f1151561127a57600080fd5b50505050505050565b6000809054906101000a900473ffffffffffffffffffffffffffffffffffffffff1673ffffffffffffffffffffffffffffffffffffffff163373ffffffffffffffffffffffffffffffffffffffff161415156112de57600080fd5b600160149054906101000a900460ff1615156112f957600080fd5b600073ffffffffffffffffffffffffffffffffffffffff16600660009054906101000a900473ffffffffffffffffffffffffffffffffffffffff1673ffffffffffffffffffffffffffffffffffffffff161415151561135757600080fd5b600073ffffffffffffffffffffffffffffffffffffffff16600860009054906101000a900473ffffffffffffffffffffffffffffffffffffffff1673ffffffffffffffffffffffffffffffffffffffff161415156113b457600080fd5b6113bc611fa7565b565b60008060009054906101000a900473ffffffffffffffffffffffffffffffffffffffff1673ffffffffffffffffffffffffffffffffffffffff163373ffffffffffffffffffffffffffffffffffffffff1614806114685750600160009054906101000a900473ffffffffffffffffffffffffffffffffffffffff1673ffffffffffffffffffffffffffffffffffffffff163373ffffffffffffffffffffffffffffffffffffffff16145b151561147357600080fd5b61147d823061203a565b90506114ab81600660009054906101000a900473ffffffffffffffffffffffffffffffffffffffff16611d19565b600660009054906101000a900473ffffffffffffffffffffffffffffffffffffffff1673ffffffffffffffffffffffffffffffffffffffff166327ebe40a826114f2612189565b600062015180306040518663ffffffff167c0100000000000000000000000000000000000000000000000000000000028152600401808681526020018581526020018481526020018381526020018273ffffffffffffffffffffffffffffffffffffffff1673ffffffffffffffffffffffffffffffffffffffff16815260200195505050505050600060405180830381600087803b151561159257600080fd5b6102c65a03f115156115a357600080fd5b5050506007600081548092919060010191905055505050565b600160149054906101000a900460ff1681565b60008060009054906101000a900473ffffffffffffffffffffffffffffffffffffffff1673ffffffffffffffffffffffffffffffffffffffff163373ffffffffffffffffffffffffffffffffffffffff1614151561162c57600080fd5b3073ffffffffffffffffffffffffffffffffffffffff163190506000809054906101000a900473ffffffffffffffffffffffffffffffffffffffff1673ffffffffffffffffffffffffffffffffffffffff166108fc829081150290604051600060405180830381858888f1935050505015156116a757600080fd5b50565b60006003600083815260200190815260200160002060009054906101000a900473ffffffffffffffffffffffffffffffffffffffff169050600073ffffffffffffffffffffffffffffffffffffffff168173ffffffffffffffffffffffffffffffffffffffff161415151561171e57600080fd5b919050565b600860009054906101000a900473ffffffffffffffffffffffffffffffffffffffff1681565b60008060009054906101000a900473ffffffffffffffffffffffffffffffffffffffff1673ffffffffffffffffffffffffffffffffffffffff163373ffffffffffffffffffffffffffffffffffffffff161415156117a657600080fd5b8190508073ffffffffffffffffffffffffffffffffffffffff166385b861886000604051602001526040518163ffffffff167c0100000000000000000000000000000000000000000000000000000000028152600401602060405180830381600087803b151561181557600080fd5b6102c65a03f1151561182657600080fd5b50505060405180519050151561183b57600080fd5b80600660006101000a81548173ffffffffffffffffffffffffffffffffffffffff021916908373ffffffffffffffffffffffffffffffffffffffff1602179055505050565b6000600460008373ffffffffffffffffffffffffffffffffffffffff1673ffffffffffffffffffffffffffffffffffffffff168152602001908152602001600020549050919050565b60036020528060005260406000206000915054906101000a900473ffffffffffffffffffffffffffffffffffffffff1681565b6000809054906101000a900473ffffffffffffffffffffffffffffffffffffffff1673ffffffffffffffffffffffffffffffffffffffff163373ffffffffffffffffffffffffffffffffffffffff1614151561195757600080fd5b600160149054906101000a900460ff1615151561197357600080fd5b60018060146101000a81548160ff021916908315150217905550565b61199761228c565b60006119a161228c565b60008060006119af87611880565b945060008514156119e15760006040518059106119c95750595b90808252806020026020018201604052509550611abc565b846040518059106119ef5750595b90808252806020026020018201604052509350611a0a610e67565b925060009150600090505b8281111515611ab8578673ffffffffffffffffffffffffffffffffffffffff166003600083815260200190815260200160002060009054906101000a900473ffffffffffffffffffffffffffffffffffffffff1673ffffffffffffffffffffffffffffffffffffffff161415611aab57808483815181101515611a9457fe5b906020019060200201818152505081806001019250505b8080600101915050611a15565b8395505b5050505050919050565b600080600283815481101515611ad857fe5b906000526020600020900190508060000160009054906101000a90046fffffffffffffffffffffffffffffffff16915050919050565b6040805190810160405280600281526020017f434300000000000000000000000000000000000000000000000000000000000081525081565b600160149054906101000a900460ff16151515611b6357600080fd5b600073ffffffffffffffffffffffffffffffffffffffff168273ffffffffffffffffffffffffffffffffffffffff1614151515611b9f57600080fd5b3073ffffffffffffffffffffffffffffffffffffffff168273ffffffffffffffffffffffffffffffffffffffff1614151515611bda57600080fd5b600660009054906101000a900473ffffffffffffffffffffffffffffffffffffffff1673ffffffffffffffffffffffffffffffffffffffff168273ffffffffffffffffffffffffffffffffffffffff1614151515611c3757600080fd5b611c413382611cad565b1515611c4c57600080fd5b611c57338383611ddb565b5050565b600160009054906101000a900473ffffffffffffffffffffffffffffffffffffffff1681565b600660009054906101000a900473ffffffffffffffffffffffffffffffffffffffff1681565b60075481565b60008273ffffffffffffffffffffffffffffffffffffffff166005600084815260200190815260200160002060009054906101000a900473ffffffffffffffffffffffffffffffffffffffff1673ffffffffffffffffffffffffffffffffffffffff1614905092915050565b806005600084815260200190815260200160002060006101000a81548173ffffffffffffffffffffffffffffffffffffffff021916908373ffffffffffffffffffffffffffffffffffffffff1602179055505050565b60008273ffffffffffffffffffffffffffffffffffffffff166005600084815260200190815260200160002060009054906101000a900473ffffffffffffffffffffffffffffffffffffffff1673ffffffffffffffffffffffffffffffffffffffff1614905092915050565b600460008373ffffffffffffffffffffffffffffffffffffffff1673ffffffffffffffffffffffffffffffffffffffff16815260200190815260200160002060008154809291906001019190505550816003600083815260200190815260200160002060006101000a81548173ffffffffffffffffffffffffffffffffffffffff021916908373ffffffffffffffffffffffffffffffffffffffff160217905550600073ffffffffffffffffffffffffffffffffffffffff168373ffffffffffffffffffffffffffffffffffffffff16141515611f0357600460008473ffffffffffffffffffffffffffffffffffffffff1673ffffffffffffffffffffffffffffffffffffffff16815260200190815260200160002060008154809291906001900391905055505b7fddf252ad1be2c89b69c2b068fc378daa952ba7f163c4a11628f55a4df523b3ef838383604051808473ffffffffffffffffffffffffffffffffffffffff1673ffffffffffffffffffffffffffffffffffffffff1681526020018373ffffffffffffffffffffffffffffffffffffffff1673ffffffffffffffffffffffffffffffffffffffff168152602001828152602001935050505060405180910390a1505050565b6000809054906101000a900473ffffffffffffffffffffffffffffffffffffffff1673ffffffffffffffffffffffffffffffffffffffff163373ffffffffffffffffffffffffffffffffffffffff1614151561200257600080fd5b600160149054906101000a900460ff16151561201d57600080fd5b6000600160146101000a81548160ff021916908315150217905550565b60006120446122a0565b6000602060405190810160405280866fffffffffffffffffffffffffffffffff16815250915060016002805480600101828161208091906122c6565b9160005260206000209001600085909190915060008201518160000160006101000a8154816fffffffffffffffffffffffffffffffff02191690836fffffffffffffffffffffffffffffffff16021790555050500390507f26a0debffe6884b69aadebb1a7c7f3cc644ba96e2ad70e3c6b9594f1e02645b484828460000151604051808473ffffffffffffffffffffffffffffffffffffffff1673ffffffffffffffffffffffffffffffffffffffff168152602001838152602001826fffffffffffffffffffffffffffffffff166fffffffffffffffffffffffffffffffff168152602001935050505060405180910390a161217e60008583611ddb565b809250505092915050565b6000806000600660009054906101000a900473ffffffffffffffffffffffffffffffffffffffff1673ffffffffffffffffffffffffffffffffffffffff1663eac9d94c6000604051602001526040518163ffffffff167c0100000000000000000000000000000000000000000000000000000000028152600401602060405180830381600087803b151561221c57600080fd5b6102c65a03f1151561222d57600080fd5b505050604051805190509150816fffffffffffffffffffffffffffffffff168214151561225957600080fd5b60028281151561226557fe5b0482019050662386f26fc1000081101561228457662386f26fc1000090505b809250505090565b602060405190810160405280600081525090565b60206040519081016040528060006fffffffffffffffffffffffffffffffff1681525090565b8154818355818115116122ed578183600052602060002091820191016122ec91906122f2565b5b505050565b61233191905b8082111561232d57600080820160006101000a8154906fffffffffffffffffffffffffffffffff0219169055506001016122f8565b5090565b905600a165627a7a72305820e86db7f2d277146d0ca621a7a4bf026584cd54f62f795901bb7c1d537c46bcaf0029",
  "source": "pragma solidity ^0.4.18;\n\ncontract ERC721 {\n    // Required methods\n    function totalSupply() public view returns (uint256 total);\n    function balanceOf(address _owner) public view returns (uint256 balance);\n    function ownerOf(uint256 _tokenId) external view returns (address owner);\n    function approve(address _to, uint256 _tokenId) external;\n    function transfer(address _to, uint256 _tokenId) external;\n    function transferFrom(address _from, address _to, uint256 _tokenId) external;\n\n    // Events\n    event Transfer(address from, address to, uint256 tokenId);\n    event Approval(address owner, address approved, uint256 tokenId);\n\n    // Optional\n    // function name() public view returns (string name);\n    // function symbol() public view returns (string symbol);\n    // function tokensOfOwner(address _owner) external view returns (uint256[] tokenIds);\n    // function tokenMetadata(uint256 _tokenId, string _preferredTransport) public view returns (string infoUrl);\n\n    // ERC-165 Compatibility (https://github.com/ethereum/EIPs/issues/165)\n    function supportsInterface(bytes4 _interfaceID) external view returns (bool);\n}\n\n/**\n* @title Ownable\n* @dev The Ownable contract has an owner address, and provides basic authorization control\n*  functions, this simplifies the implementation of \"user permissions\".\n*/\ncontract Ownable {\n    address public owner;\n\n    // @dev The Ownable constructor sets the original 'onwer' of the contract to the sender\n    //  account\n    function Ownable() {\n        owner = msg.sender;\n    }\n\n    // @dev Throws if called by any account other than the owner.\n    modifier onlyOwner() {\n        require(msg.sender == owner);\n        _;\n    }\n\n    // @dev Allows the current owner to transfer control of the contract to a newOwner.\n    // @param newOwner The address to transfer ownership to.\n    function transferOwnership(address newOwner) onlyOwner {\n        if (newOwner != address(0)) {\n            owner = newOwner;\n        }\n    }\n}\n\ncontract Pausable is Ownable {\n    event Pause();\n    event Unpause();\n\n    bool public paused = false;\n\n    // @dev modifier to allow actions only when the contract IS NOT paused\n    modifier whenNotPaused() {\n        require(!paused);\n        _;\n    }\n\n    // @dev modifier to allow actions only when the contract IS paused\n    modifier whenPaused {\n        require(paused);\n        _;\n    }\n\n    // @dev called by the owner to puase. Triggers stopped state\n    function pause() onlyOwner whenNotPaused returns (bool) {\n        paused = true;\n        Pause();\n        return true;\n    }\n\n    // @dev called by the owner to unpause, returns to normal state\n    function unpause() onlyOwner whenPaused returns (bool) {\n        paused = false;\n        Unpause();\n        return true;\n    }\n}\n\ncontract ClockAuctionBase {\n    // Represents an auction on an NFT\n    struct Auction {\n        // Current owner of NFT\n        address seller;\n        // Price (in wei) at beginning of auction\n        uint128 startingPrice;\n        // Price (in wei) at end of auction\n        uint128 endingPrice;\n        // Duration (in seconds) of auction\n        uint64 duration;\n        // Time when auction started\n        // NOTE: 0 if this auction has been concluded\n        uint64 startedAt;\n    }\n\n    // Reference to contract tracking NFT ownership\n    ERC721 public nonFungibleContract;\n\n    // Cut owner takes on each auction, measured in basis points (1/100 of a percent).\n    // Values 0-10,000 map to 0%-100%\n    uint256 public ownerCut;\n\n    // Map from token ID to their corresponding auction.\n    mapping (uint256 => Auction) tokenIdToAuction;\n\n    event AuctionCreated(uint256 tokenId, uint256 startingPrice, uint256 endingPrice, uint256 duration);\n    event AuctionSuccessful(uint256 tokenId, uint256 totalPrice, address winner);\n    event AuctionCancelled(uint256 tokenId);\n\n    // @dev Returns true if the claimant owns the token.\n    // @param _claimant - Address caliming to own the token.\n    // @param _tokenId - ID of token whose ownership needs to be verified\n    function _owns(address _claimant, uint256 _tokenId) internal view returns (bool) {\n        return(nonFungibleContract.ownerOf(_tokenId) == _claimant);\n    }\n\n    // @dev Escrows the NFT, assigning ownership to this contract.\n    //  Throws if the escrow fails.\n    // @param _owner - Current owner address of token to escrow.\n    // @param _tokenId - ID of token whose approval to verify\n    function _escrow(address _owner, uint256 _tokenId) internal {\n        // it will throw if transfer fails\n        nonFungibleContract.transferFrom(_owner, this, _tokenId);\n    }\n\n    // @dev Transfers an NFT owned by this contract to another address.\n    //  Returns true if the transfer succeeds\n    // @param _receiver - Address to transfer NFT to.\n    // @param _tokenId - ID of token to transfer.\n    function _transfer(address _receiver, uint256 _tokenId) internal {\n        // it will throw if transfer fails\n        nonFungibleContract.transfer(_receiver, _tokenId);\n    }\n\n    // @dev Adds an auction to the list of open auctions. Also fires the \n    //  AuctionCreated event\n    // @param _tokenId - The ID of the token to be put on the auctioin.\n    // @param _auction - Auction to add.\n    function _addAuction(uint256 _tokenId, Auction _auction) internal {\n        // Require that all auctions have a duration of\n        // at least one minute. (Keeps our math from getting hairy!)\n        require(_auction.duration >= 1 minutes);\n\n        tokenIdToAuction[_tokenId] = _auction;\n\n        AuctionCreated(\n            uint256(_tokenId),\n            uint256(_auction.startingPrice),\n            uint256(_auction.endingPrice),\n            uint256(_auction.duration)\n        );\n    }\n\n    // @dev Cancels an auction unconditionally.\n    function _cancelAuction(uint256 _tokenId, address _seller) internal {\n        _removeAuction(_tokenId);\n        _transfer(_seller, _tokenId);\n        AuctionCancelled(_tokenId);\n    }\n\n    // @dev Computes the price and transfers winnings.\n    // Does NOT transfer ownership of token\n    function _bid(uint256 _tokenId, uint256 _bidAmount) internal returns (uint256) {\n        // Get a reference to the auction struct\n        Auction storage auction = tokenIdToAuction[_tokenId];\n\n        // Explicitly check that this auction is currently live.\n        // (because of how Ethereum mappings work, we can't just count\n        // on the lookup above failing. An invalid _tokenId will just\n        // return an auction object that is all zeros.)\n        require(_isOnAuction(auction));\n\n        // Check that the bid is greater than or equal to the current price\n        uint256 price = _currentPrice(auction);\n        require(_bidAmount >= price);\n\n        // Grab a reference to the seller before the auction struct\n        // gets deleted\n        address seller = auction.seller;\n\n        // The bid is good! Remove the auction before sending the fees\n        // to the sender so we can't have a reentrancy attack.\n        _removeAuction(_tokenId);\n\n        // Transfer proceeds to seller (if there are any!)\n        if (price > 0) {\n            // Calculate the auctioneer's cut.\n            // (NOTE: _computeCut() is guaranteed to return a\n            // value <= price, so this subtraction can't go negative.)\n            uint256 auctioneerCut = _computeCut(price);\n            uint256 sellerProceeds = price - auctioneerCut;\n\n            // NOTE: Doing a transfer() in the middle of a complex\n            // method like this is generally discouraged because of\n            // reentrancy attacks and DoS attacks if the seller is\n            // a contract with an invalid fallback function. We explicitly\n            // guard aggainst reentrancy attacks by removing the auction\n            // before calling transfer(), and the only thing the seller\n            // can DoS is the sale of their own asset! (And if it's an\n            // accident, they can call cancelAuction().)\n            seller.transfer(sellerProceeds);\n        }\n\n        // Calculate any excess funds included with the bid. If the excess\n        // is anything worth worrying about, transfer it back to bidder.\n        // NOTE: We checked above that the bid amount is greater than or\n        // equal to the price so this cannot underflow\n        uint256 bidExcess = _bidAmount - price;\n\n        // Return the funds. Similar to the previous transfer, this is\n        // not susceptible to a re-entry attack because the auction is\n        // removed before any transfers occur.\n        msg.sender.transfer(bidExcess);\n\n        // Tell the world!\n        AuctionSuccessful(_tokenId,price, msg.sender);\n\n        return price;\n    }\n\n    // @dev Removes an auction from the list of open auctions.\n    // @param _tokenId - ID of NFT on auction.\n    function _removeAuction(uint256 _tokenId) internal {\n        delete tokenIdToAuction[_tokenId];\n    }\n\n    // @dev Returns true if the NFT is on auction.\n    // @param _auction - Auction to check.\n    function _isOnAuction(Auction storage _auction) internal view returns (bool) {\n        return (_auction.startedAt > 0);\n    }\n\n    // @dev Returns current price of an NFT on auction. Broken into two\n    //  functions (this one, that computes the duration from the auction\n    //  structure, and the other that does the price computation) so we \n    //  can easily test that the price computation works correctly.\n    function _currentPrice(Auction storage _auction) internal view returns (uint256) {\n        uint256 secondsPassed = 0;\n\n        // A bit of insurance against negative values (or wraparound).\n        // Progably not necessary (since Ethereum guarantees that the \n        // now variables doesn't ever go backwards).\n        if (now > _auction.startedAt) {\n            secondsPassed = now - _auction.startedAt;\n        }\n\n        return _computeCurrentPrice(\n            _auction.startingPrice,\n            _auction.endingPrice,\n            _auction.duration,\n            secondsPassed\n        );\n    }\n\n    // @dev Computes the current price of an auction. Factored out\n    //  from _currentPrice so we can run extensive unit tests.\n    //  When testing, make this function public and turn on\n    //  'Current price computation' test suite.\n    function _computeCurrentPrice(\n        uint256 _startingPrice,\n        uint256 _endingPrice,\n        uint256 _duration,\n        uint256 _secondsPassed\n    )\n        internal\n        pure\n        returns (uint256)\n    {\n        // NOTE: We don't use SafeMath (or similar) in this function because\n        //  all of our public functions carefully cap the maximum values for\n        //  time (at 64-bits) and currency (at 128-bits). _duration is\n        //  also known to be non-zero (see the require() statement in\n        //  _addAuction())\n        if (_secondsPassed >= _duration) {\n            // We've reached the end of the dynamic pricing portion\n            // of the auction, just return the end price.\n            return _endingPrice;\n        } else {\n            // Starting price can be higher than ending price (and often is!), so\n            // this delta can be negative.\n            int256 totalPriceChange = int256(_endingPrice) - int256(_startingPrice);\n\n            // This multiplication can't overflow, _secondsPassed will easily fit within\n            // 64-bits, and totalPriceChange will easily fit within 128-bits, their product\n            // will always fit within 256-bits.\n            int256 currentPriceChange = totalPriceChange * int256(_secondsPassed) / int256(_duration);\n\n            // currentPriceChange can be negative, but if so, will have a magnitude\n            // less than _startingPrice. Thus, this result will always end up positive.\n            int256 currentPrice = int256(_startingPrice) + currentPriceChange;\n\n            return uint256(currentPrice);\n        }\n    }\n\n    // @dev Computes owner's cut of a sale.\n    // #param _price - Sale price of NFT.\n    function _computeCut(uint256 _price) internal view returns (uint256) {\n        // NOTE: We don't use SafeMath (or similar) in this function because\n        //  all of our entry functions carefully cap the maximum values for\n        //  currency (at 128-bits), and ownerCut <= 10000 (see the require()\n        //  statement in the ClockAuction constructor). The result of this\n        //  function is always guaranteed to be <= _price.\n        return _price * ownerCut / 10000;\n    }\n}\n\ncontract ClockAuction is Pausable, ClockAuctionBase {\n    // @dev The ERC-165 interface signature for ERC721.\n    //  Ref: https://github.com/ethereum/EIPs/issues/165\n    //  Ref: https://github.com/ethereum/EIPs/issues/721\n    bytes4 constant InterfaceSignature_ERC721 = bytes4(0x9a20483d);\n\n    // @dev Constructor creates a reference to the NFT ownership contract\n    //  and verifies the owner cut is in the valid range.\n    // @param _nftAddress - address of a deployed contract implementing\n    //  the Nonfungible Interface\n    // @param _cut - percent cut the owner takes on each auction, must be\n    //  between 0-10,000.\n    function ClockAuction(address _nftAddress, uint256 _cut) public {\n        require(_cut <= 10000);\n        ownerCut = _cut;\n\n        ERC721 candidateContract = ERC721(_nftAddress);\n        require(candidateContract.supportsInterface(InterfaceSignature_ERC721));\n        nonFungibleContract = candidateContract;\n    }\n\n    // @dev Remove all Ether from the contract, which is the owner's cuts\n    //  as well as any Ether sent directly to the contract address.\n    //  Always transfers to the NFT contract, but can be called either by\n    //  the owner or the NFT contract.\n    function withdrawBalance() external {\n        address nftAddress = address(nonFungibleContract);\n\n        require(\n            msg.sender == owner ||\n            msg.sender == nftAddress\n        );\n        \n        nftAddress.transfer(nftAddress.balance);\n    }\n\n    // @dev Creates and begins a new auction.\n    // @param _tokenId - ID of token to auction, sender must be owner.\n    // @param _startingPrice - Price of iten (in wei) at beginning of auction.\n    // @param _endingPrice - Price of item (in wei) at beginning of auction.\n    // @param _duration - Length of time to move between starting\n    //  price and ending price (in seconds).\n    // @param _seller - Seller, if not the message sender\n    function createAuction(\n        uint256 _tokenId,\n        uint256 _startingPrice,\n        uint256 _endingPrice,\n        uint256 _duration,\n        address _seller\n    )\n    external\n    whenNotPaused\n    {\n        // Sanity check that no inputs overflow how many bits we've allocated\n        // to store them in the auction struct.\n        require(_startingPrice == uint256(uint128(_startingPrice)));\n        require(_endingPrice == uint256(uint128(_endingPrice)));\n        require(_duration == uint256(uint64(_duration)));\n\n        require(_owns(msg.sender, _tokenId));\n        _escrow(msg.sender, _tokenId);\n        Auction memory auction = Auction(\n            _seller,\n            uint128(_startingPrice),\n            uint128(_endingPrice),\n            uint64(_duration),\n            uint64(now)\n        );\n        _addAuction(_tokenId, auction);\n    }\n\n    // @dev Bids on an open auction, completing the auction and transferring\n    //  ownership of the NFT if enough Ether is supplied\n    // @param _tokenId - ID of token to bid on\n    function bid(uint256 _tokenId)\n        external\n        payable\n        whenNotPaused\n    {\n        // _bid will throw if the bid or funs tranfer fails\n        _bid(_tokenId, msg.value);\n        _transfer(msg.sender, _tokenId);\n    }\n\n    // @dev Cancels an auction that hasn't been won yet.\n    //  Returns the NFT to original owner.\n    // @notice This is a state-modifying function that can\n    //  be called while the contract is paused.\n    // @param _tokenId - ID of token on auction\n    function cancelAuction(uint256 _tokenId)\n        external\n    {\n        Auction storage auction = tokenIdToAuction[_tokenId];\n        require(_isOnAuction(auction));\n        address seller = auction.seller;\n        require(msg.sender == seller);\n        _cancelAuction(_tokenId, seller);\n    }\n\n    // @dev Cancels an auction when the contract is paused.\n    //  Only the owner may do this, and NFTs are returned to\n    //  the seller. This should only be used in emergencies.\n    // @param _tokenId - ID of the NFT on auction to cancel.\n    function cancelAuctionWhenPaused(uint256 _tokenId)\n        whenPaused\n        onlyOwner\n        external\n    {\n        Auction storage auction = tokenIdToAuction[_tokenId];\n        require(_isOnAuction(auction));\n        _cancelAuction(_tokenId, auction.seller);\n    }\n\n    // @dev Returns auction info for an NFT on auction.\n    // @param _tokenId - ID of NFT on auction.\n    function getAuction(uint256 _tokenId)\n        external\n        view\n        returns\n    (\n        address seller,\n        uint256 startingPrice,\n        uint256 endingPrice,\n        uint256 duration,\n        uint256 startedAt\n    ) {\n        Auction storage auction = tokenIdToAuction[_tokenId];\n        require(_isOnAuction(auction));\n        return (\n            auction.seller,\n            auction.startingPrice,\n            auction.endingPrice,\n            auction.duration,\n            auction.startedAt\n        );\n    }\n\n    // @dev Returns the current price of an auction.\n    // @param _tokenId - ID of the token price we are checking.\n    function getCurrentPrice(uint256 _tokenId)\n        external\n        view\n        returns (uint256)\n    {\n        Auction storage auction = tokenIdToAuction[_tokenId];\n        require(_isOnAuction(auction));\n        return _currentPrice(auction);\n    }\n}\n\ncontract SaleClockAuction is ClockAuction {\n\n    // @dev Sanity check that allows us to ensure that we are pointing to the\n    //  right auction in our setSaleAuctionAddress() call.\n    bool public isSaleClockAuction = true;\n\n    // Tracks last 5 sale price of gen0 cards\n    uint256 public gen0SaleCount;\n    uint256[5] public lastGen0SalePrices;\n\n    // Delegate constructor\n    function SaleClockAuction(address _nftAddr, uint256 _cut) public\n        ClockAuction(_nftAddr, _cut) {}\n\n    // @dev Creates and begins a new auction.\n    // @param _tokenId - ID of token to auction, sender must be owner.\n    // @param _startingPrice - Price of item (in wei) at beginning of auction.\n    // @param _endingPrice - Price of item (in wei) at end of auction.\n    // @param _duration - Length of auction (in seconds).\n    // @param _seller - Seller, if not the message sender\n    function createAuction(\n        uint256 _tokenId,\n        uint256 _startingPrice,\n        uint256 _endingPrice,\n        uint256 _duration,\n        address _seller\n    )\n        external\n    {\n        // Sanity check that no inputs overflow how many bits we've allocated\n        // to store them in the auction struct.\n        require(_startingPrice == uint256(uint128(_startingPrice)));\n        require(_endingPrice == uint256(uint128(_endingPrice)));\n        require(_duration == uint256(uint64(_duration)));\n\n        require(msg.sender == address(nonFungibleContract));\n        _escrow(_seller, _tokenId);\n        Auction memory auction = Auction(\n            _seller,\n            uint128(_startingPrice),\n            uint128(_endingPrice),\n            uint64(_duration),\n            uint64(now)\n        );\n        _addAuction(_tokenId, auction);\n    }\n\n    // @dev Updates lastSalePrice if seller is the nft contract\n    // Otherwise, works the same as default bid method.\n    function bid(uint256 _tokenId)\n        external\n        payable\n    {\n        // _bid verifies token ID size\n        address seller = tokenIdToAuction[_tokenId].seller;\n        uint256 price = _bid(_tokenId, msg.value);\n        _transfer(msg.sender, _tokenId);\n\n        // If not a gen0 auction, exit\n        if (seller == address(nonFungibleContract)) {\n            // Track gen0 sale prices\n            lastGen0SalePrices[gen0SaleCount % 5] = price;\n            gen0SaleCount++;\n        }\n    }\n\n    function averageGen0SalePrice() external view returns (uint256) {\n        uint256 sum = 0;\n        for (uint256 i = 0; i < 5; i++) {\n            sum += lastGen0SalePrices[i];\n        }\n        return sum / 5;\n    }\n}\n\ncontract AccessControl {\n    /// @dev The addresses of the accounts (or contracts) that can execute actions within each roles\n    address public ceoAddress;\n    address public cooAddress;\n\n    /// @dev Keeps track whether the contract is paused. When that is true, most actions are blocked\n    bool public paused = false;\n\n    /// @dev Access modifier for CEO-only functionality\n    modifier onlyCEO() {\n        require(msg.sender == ceoAddress);\n        _;\n    }\n\n    /// @dev Access modifier for COO-only functionality\n    modifier onlyCOO() {\n        require(msg.sender == cooAddress);\n        _;\n    }\n\n    /// @dev Access modifier for any CLevel functionality\n    modifier onlyCLevel() {\n        require(msg.sender == ceoAddress || msg.sender == cooAddress);\n        _;\n    }\n\n    /// @dev Assigns a new address to act as the CEO. Only available to the current CEO\n    /// @param _newCEO The address of the new CEO\n    function setCEO(address _newCEO) public onlyCEO {\n        require(_newCEO != address(0));\n        ceoAddress = _newCEO;\n    }\n\n    /// @dev Assigns a new address to act as the COO. Only available to the current CEO\n    /// @param _newCOO The address of the new COO\n    function setCOO(address _newCOO) public onlyCEO {\n        require(_newCOO != address(0));\n        cooAddress = _newCOO;\n    }\n\n    /// @dev Modifier to allow actions only when the contract IS NOT paused\n    modifier whenNotPaused() {\n        require(!paused);\n        _;\n    }\n\n    /// @dev Modifier to allow actions only when the contract IS paused\n    modifier whenPaused {\n        require(paused);\n        _;\n    }\n\n    /// @dev Pause the smart contract. Only can be called by the CEO\n    function pause() public onlyCEO whenNotPaused {\n        paused = true;\n    }\n\n    /// @dev Unpauses the smart contract. Only can be called by the CEO\n    function unpause() public onlyCEO whenPaused {\n        paused = false;\n    }\n}\n\ncontract CryptoCardsBase is AccessControl {\n\n    /*** EVENTS ***/\n\n    // @dev The spawn event is fired whenever a new card is minted\n    event Spawn(address owner, uint256 tokenId, uint128 skills);\n\n    // @dev Transfer event as defined in current draft of ERC721. Emitted evry time a \n    //  card ownership is assigned, including minting\n    event Transfer(address from, address to, uint256 tokenId);\n\n    /*** DATA TYPES ***/\n\n    // @dev The main Card struct. Every card in CryptoCards is represented by a copy\n    //  of this structure.\n    // WORK IN PROGRESS\n    struct Card {\n        // @dev Placeholder/potentially valid variable to store relvant card info\n        uint128 skills;\n    }\n\n    /*** CONSTANTS ***/\n    // -- Don't have any of these yet -- //\n\n    /*** STORAGE ***/\n\n    // @dev An array containing the Card struct for cards in existence. The ID\n    //  of each card is an index into this array. \n    Card[] cards;\n\n    // @dev A mapping from card IDs to the address that owns them. All cards have\n    //  some valid owner address.\n    mapping (uint256 => address) public cardIndexToOwner;\n\n    // @dev A mapping from owner address to count of tokens that address owns.\n    //  Used internally inside balanceOf() to resolve ownership count.\n    mapping (address => uint256) ownershipTokenCount;\n\n    // @dev A mapping from card IDs to an address that has been approved to call\n    //  transferFrom(). Each card can only have one approved address for transfer\n    //  at any time. A zero value means no approval is outstanding.\n    mapping (uint256 => address) public cardIndexToApproved;\n\n    // @dev The addrress of a custom ClockAuction that handles sales of Cards. This\n    //  will handle peer-to-peer sales as well as the gen0 sales\n    SaleClockAuction public saleAuction;\n\n    // @dev Assigns ownership of a specific Card to an address\n    function _transfer(address _from, address _to, uint256 _tokenId) internal {\n        // Increase ownershipTokenCount of address receiving card\n        ownershipTokenCount[_to]++;\n        // Transfer ownership.\n        cardIndexToOwner[_tokenId] = _to;\n        // Additional accounting. Newly minted cards 'from' address would be zero\n        // so check for that first\n        if (_from != address(0)) {\n            ownershipTokenCount[_from]--;\n        }\n        // Emit the transfer event.\n        Transfer(_from, _to, _tokenId);\n    }\n\n    // @dev An internal method that creates a new card and stores it. This\n    //   method doesn't do any checking and should only be called when the\n    //   input data is known to be valid. Will generate a Spawn event \n    //   and a Transfer event.\n    // @param _skills contains crucial info about card\n    // @param _owner The initial owner of this card, must be nonzero\n    function _createCard(uint128 _skills, address _owner) internal returns(uint256) {\n        Card memory _card = Card({\n            skills: _skills\n        });\n        uint256 newCardId = cards.push(_card) - 1;\n\n        // emit the Spawn event\n        Spawn(_owner, newCardId, _card.skills);\n\n        // This will assign ownership, and also emit the Transfer event as \n        // per ERC721 draft\n        _transfer(0, _owner, newCardId);\n\n        return newCardId;\n    }\n}\n\ncontract CardOwnership is CryptoCardsBase, ERC721 {\n\n    // @notice Name and symbol of the non fungible token, as defined in ERC721\n    string public constant name = \"CryptoCards\";\n    string public constant symbol = \"CC\";\n\n    /*** POTENTIAL METADATA & INTERFACE STUFF ***/\n    \n    bytes4 constant InterfaceSignature_ERC165 = \n        bytes4(keccak256('supportsInterface(bytes4)'));\n\n     bytes4 constant InterfaceSignature_ERC721 =\n        bytes4(keccak256('name()')) ^\n        bytes4(keccak256('symbol()')) ^\n        bytes4(keccak256('totalSupply()')) ^\n        bytes4(keccak256('balanceOf(address)')) ^\n        bytes4(keccak256('ownerOf(uint256)')) ^\n        bytes4(keccak256('approve(address,uint256)')) ^\n        bytes4(keccak256('transfer(address,uint256)')) ^\n        bytes4(keccak256('transferFrom(address,address,uint256)')) ^\n        bytes4(keccak256('tokensOfOwner(address)')) ^\n        bytes4(keccak256('tokenMetadata(uint256,string)'));\n\n    // @notice Introspection interface as per ERC-165 (https://github.com/ethereum/EIPs/issues/165).\n    //  Returns true for any standardized interfaces implemented by this contract. We implement\n    //  ERC-165 (obviously!) and ERC-721.\n    function supportsInterface(bytes4 _interfaceID) external view returns (bool) {\n        // DEBUG ONLY\n        //require((InterfaceSignature_ERC165 == 0x01ffc9a7) && (InterfaceSignature_ERC721 == 0x9a20483d));\n\n        return ((_interfaceID == InterfaceSignature_ERC165) || (_interfaceID == InterfaceSignature_ERC721));\n    }\n\n    /*** INTERNAL UTILITY FUNCTIONS ***/\n    // These functions assume that their input arguments are valid.\n    // Leaving it to public methods to sanitize inputs\n\n    // @dev Checks if a given address is the current owner of a particular Card\n    // @param _claimant the address we are validating against\n    // @param _tokenId card id, only valid when > 0\n    function _owns(address _claimant, uint256 _tokenId) internal view returns (bool) {\n        return cardIndexToApproved[_tokenId] == _claimant;\n    }\n\n    // @dev Checks if a given address currently has transferApproval for a pareticular Card.\n    // @param _claimant the address we are confirming the kitten is approved for.\n    // @param _tokenId Card ID, only valid when > 0\n    function _approvedFor(address _claimant, uint256 _tokenId) internal view returns (bool) {\n        return cardIndexToApproved[_tokenId] == _claimant;\n    }\n\n    // @dev Marks an address as being approved for transferFrom(), overwriting any previous\n    //  approval. Setting _approved to address (0) clears all transfer approval.\n    //  NOTE: _approve() does NOT send the Approval event. This is intentional because\n    //  _approve() and transferFrom() are used together for putting Cards on auction, and\n    //  there is no value in spamming the log with Approval events in that case\n    function _approve(uint256 _tokenId, address _approved) internal {\n        cardIndexToApproved[_tokenId] = _approved;\n    }\n\n    // @notice Returns the number of Cards owned by a specific address.\n    // @param _owner the owner address to check.\n    // @dev Required for ERC721 compliance\n    function balanceOf(address _owner) public view returns (uint256 count) {\n        return ownershipTokenCount[_owner];\n    }\n\n    // @notice Transfers a Card to another address. If transferring to a smart \n    //  contract be VERY CAREFUL to ensure that it is are of ERC721 (or\n    //  CryptoCards specifically) or your Card may be lost forever. Fo Rlz.\n    // @param _to The address of the recipient\n    // @param _tokenId The ID of the Card to transfer\n    // @dev Required for ERC721 compliance\n    function transfer(address _to, uint256 _tokenId) external whenNotPaused {\n        // Safety check to prevent against an unexpected 0x0 default\n        require(_to != address(0));\n        // Disallow transfers to this contract to prevent accidental misuse.\n        // The contract should never own any Cards (except very briefly\n        // after a gen0 Card is created and before it goes on auction).\n        require(_to != address(this));\n        // Disallow transfers to the auction contracts to prevent accidental\n        // misuse. Auction contracts should only take ownership of kitties\n        // through the allow + transferFrom flow.\n        require(_to != address(saleAuction));\n\n        // You can only send your own Card\n        require(_owns(msg.sender, _tokenId));\n\n        // Reassign ownership, clear pending approvals, emit Transfer event\n        _transfer(msg.sender, _to, _tokenId);\n    }\n\n    // @notice Grant another address the right to transfer a specific Card via\n    //  transferFrom(). This is the preferred flow for transferring NFTs to contracts.\n    // @param _to The address to be granted transfer approval. Pass address(0) to\n    //  clear all approvals.\n    // @param _tokenId The ID of the Card that can be transferred if this call succeeds.\n    // @dev Required for ERC721 compliance\n    function approve(address _to, uint256 _tokenId) external whenNotPaused {\n        // Only an owner can grant transfer approval.\n        require(_owns(msg.sender, _tokenId));\n\n        // Register the approval (replacing any previous approval).\n        _approve(_tokenId, _to);\n\n        // Emit approval event.\n        Approval(msg.sender, _to, _tokenId);\n    }\n\n    // @notice Transfer a Card owned by another address, for which the calling address\n    //  has previously been granted transfer approval by the owner.\n    // @param _from The address that owns the Card to be transferred.\n    // @param _to The address that should take ownershuip of the Card. Can be any address,\n    //  including the caller.\n    // @param _tokenId The ID of the Card to be transferred.\n    // @dev Required for ERC721 compliance.\n    function transferFrom(address _from, address _to, uint256 _tokenId) external whenNotPaused {\n        // Safety check to prevent against an unexpected 0x0 default.\n        require(_to != address(0));\n        // Disallow transfers to this contract to prevent accidental misuse.\n        // The contract should never own any Cards (except very briefly\n        // after a gen0 card is created and before it goes on auction).\n        require(_to != address(this));\n        // Check for approval and valid ownership\n        require(_approvedFor(msg.sender, _tokenId));\n        require(_owns(_from, _tokenId));\n\n        // Reassign ownership (also clears pending approvals and emits Transfer event).\n        _transfer(_from, _to, _tokenId);\n    }\n\n    // @notice Returns the total number of Cards currently in existence.\n    // @dev Required for ERC721 compliance.\n    function totalSupply() public view returns (uint) {\n        return cards.length;\n    }\n\n    // @notice Returns the address currently assigned ownership of a given Card.\n    // @dev Required for ERC721 compliance.\n    function ownerOf(uint256 _tokenId) external view returns (address owner) {\n        owner = cardIndexToOwner[_tokenId];\n\n        require(owner != address(0));\n    }\n\n    // @notice Returns a list of all Card IDs assigned to an address.\n    // @param _owner The owner whose Cards we are interested in.\n    // @dev This method MUST NEVER be called by smart contract code. First, it's fairly\n    //  expensive (it walks the intire Card array looking for Cards belonging to owner),\n    //  but it also returns a dynamic array, which is only supported for web3 calls, and\n    //  not contract-to-contract calls.\n    function tokensOfOwner(address _owner) external view returns (uint256[] ownerTokens) {\n        uint256 tokenCount = balanceOf(_owner);\n\n        if (tokenCount == 0) {\n            // Return an empty array\n            return new uint256[](0);\n        } else {\n            uint256[] memory result = new uint256[](tokenCount);\n            uint256 totalCards = totalSupply();\n            uint256 resultIndex = 0;\n\n            // We count on the fact that all cats have IDs starting at 1 and increasing\n            // sequentially up to the totalCard count\n            uint256 cardId;\n\n            for (cardId = 0; cardId <= totalCards; cardId++) {\n                if (cardIndexToOwner[cardId] == _owner) {\n                    result[resultIndex] = cardId;\n                    resultIndex++;\n                }\n            }\n            return result;\n        }\n    }\n\n    // @dev Adapted from memcpy() by @arachnid (Nick Johnson <arachnid@notdot.net>)\n    //  This method is licenced under the Apache License.\n    //  Ref: https://github.com/Arachnid/solidity-stringutils/blob/2f6ca9accb48ae14c66f1437ec50ed19a0616f78/strings.sol\n    function _memcpy(uint _dest, uint _src, uint _len) private view {\n        // Copy word-length chuncks while possible\n        for(; _len >= 32; _len -= 32) {\n            assembly {\n                mstore(_dest, mload(_src))\n            }\n            _dest += 32;\n            _src += 32;\n        }\n\n        // Copy remaining bytes\n        uint256 mask = 256 ** (32 - _len) - 1;\n        assembly {\n            let srcpart := and(mload(_src), not(mask))\n            let destpart := and(mload(_dest), mask)\n            mstore(_dest, or(destpart, srcpart))\n        }\n    }\n\n    // @dev Adapted from toString(slice) by @arachnid (Nick Johnson <arachnid@notdot.net>)\n    //  This method is licensed under the Apache License.\n    //  Ref: https://github.com/Arachnid/solidity-stringutils/blob/2f6ca9accb48ae14c66f1437ec50ed19a0616f78/strings.sol\n    function _toString(bytes[4] _rawBytes, uint256 _stringLength) private view returns (string) {\n        var outputString = new string(_stringLength);\n        uint256 outputPtr;\n        uint256 bytesPtr;\n\n        assembly {\n            outputPtr := add(outputString, 32)\n            bytesPtr := _rawBytes\n        }\n\n        _memcpy(outputPtr, bytesPtr, _stringLength);\n\n        return outputString;\n    }\n}\n\ncontract CardAuction is CardOwnership {\n    // @notice The auction contract variables are defined in CryptoCardsBase to allow\n    //  us to refer to them in CardOwnership to prevent accidental transfers.\n    \n    // @dev Sets the reference to the sale auction.\n    // @param _address - Address of sale contract.\n    function setSaleAuctionAddress(address _address) external onlyCEO {\n        SaleClockAuction candidateContract = SaleClockAuction(_address);\n\n        // NOTE: Verify that a contract is what we expect\n        require(candidateContract.isSaleClockAuction());\n\n        // Set the new contract address\n        saleAuction = candidateContract;\n    }\n\n    // @dev Put a kitty up for auction.\n    //  Does some ownership trickery to create auctions in one tx.\n    function createSaleAuction(\n        uint256 _cardId,\n        uint256 _startingPrice,\n        uint256 _endingPrice,\n        uint256 _duration\n    )\n        external\n        whenNotPaused\n    {\n        // Auction contract checks input sizes\n        // If card is already on any auction, this will throw\n        // becuase it will be owned by the auction contract.\n        require(_owns(msg.sender, _cardId));\n        _approve(_cardId, saleAuction);\n        // Sale auction throws if inputs are invalid and clears\n        // transfer approval after escrowing the card\n        saleAuction.createAuction(\n            _cardId,\n            _startingPrice,\n            _endingPrice,\n            _duration,\n            msg.sender\n        );\n    }\n}\n\ncontract CardMinting is CardAuction {\n\n    // Constants for gen0 auctions.\n    uint256 public constant GEN0_STARTING_PRICE = 10 finney;\n    uint256 public constant GEN0_AUCTION_DURATION = 1 days;\n\n    // Counts the number of cards the contract owner has created.\n    uint256 public gen0CreatedCount;\n\n    // @dev Creates a new gen0 card with the given skills and\n    //  creates an auction for it.\n    function createGen0Auction(uint128 _skills) external onlyCLevel {\n        uint256 cardId = _createCard(_skills, address(this));\n        _approve(cardId, saleAuction);\n\n        saleAuction.createAuction(\n            cardId,\n            _computeNextGen0Price(),\n            0,\n            GEN0_AUCTION_DURATION,\n            address(this)\n        );\n\n        gen0CreatedCount++;\n    }\n\n    // @dev Computes the next gen0 auction starting price, given\n    //  the average of the past 5 prices + 50%\n    function _computeNextGen0Price() internal view returns (uint256) {\n        uint256 avePrice = saleAuction.averageGen0SalePrice();\n\n        // Sanity check to ensure we don't overflow arithmetic\n        require(avePrice == uint256(uint128(avePrice)));\n\n        uint256 nextPrice = avePrice + (avePrice / 2);\n\n        // We never auction for less than starting price\n        if (nextPrice < GEN0_STARTING_PRICE) {\n            nextPrice = GEN0_STARTING_PRICE;\n        }\n\n        return nextPrice;\n    }\n}\n\ncontract CryptoCardsCore is CardMinting {\n    \n    // Set in case the core contract is broken and an upgrade is required\n    address public newContractAddress;\n\n    // @notice Creates the main CryptoKitties smart contract instance.\n    function CryptoCardsCore() public {\n        // Starts paused.\n        paused = false;\n\n        // the creator of the contract is the initial CEO\n        ceoAddress = msg.sender;\n\n        // the creator of the contract is also the intial COO\n        cooAddress = msg.sender;\n    }\n\n\n    // @notice No tipping!\n    // @dev Reject all Ether from being sent here, unless it's from one of the\n    //  two auction contracts. (Hopefully, we can prevent user accidents.)\n    function() external payable {\n        require(\n            msg.sender == address(saleAuction)\n        );\n    }\n\n    // @notice Returns all the relevant info about a specific card.\n    // @param _id The ID of the card of interest.\n    function getCard(uint256 _id) external view returns (uint128 skills) {\n        Card storage card = cards[_id];\n\n        skills = card.skills;\n    }\n\n    // @dev Override unpause so it requires all external contract addresses\n    //  to be set before contract can be unpaused. Also, we can't have\n    //  newContractAddress set either, because then the contract was upgraded.\n    // @notice This is public rather than external so we can call super.unpause\n    //  without using an expensive CALL.\n    function unpause() public onlyCEO whenPaused {\n        require(saleAuction != address(0));\n        require(newContractAddress == address(0));\n\n        // Actually unpause the contract.\n        super.unpause();        \n    }\n\n    // @dev Allows the CEO to capture the balance available to the contract.\n    function withdrawBalance() external onlyCEO {\n        uint256 balance = this.balance;\n\n        ceoAddress.transfer(balance);\n    }\n}",
  "sourcePath": "C:\\Users\\Lan\\CryptoCards\\contracts\\CryptoCardsCore.sol",
  "compiler": {
    "name": "solc",
    "version": "0.4.19+commit.c4cbbb05.Emscripten.clang"
  },
  "schemaVersion": "1.0.1",
  "updatedAt": "2018-04-09T08:39:19.205Z"
}