{
  "contractName": "CryptoCards",
  "abi": [
    {
      "constant": true,
      "inputs": [],
      "name": "ceoAddress",
      "outputs": [
        {
          "name": "",
          "type": "address"
        }
      ],
      "payable": false,
      "stateMutability": "view",
      "type": "function"
    },
    {
      "constant": false,
      "inputs": [
        {
          "name": "_newCEO",
          "type": "address"
        }
      ],
      "name": "setCEO",
      "outputs": [],
      "payable": false,
      "stateMutability": "nonpayable",
      "type": "function"
    },
    {
      "constant": false,
      "inputs": [
        {
          "name": "_newCOO",
          "type": "address"
        }
      ],
      "name": "setCOO",
      "outputs": [],
      "payable": false,
      "stateMutability": "nonpayable",
      "type": "function"
    },
    {
      "constant": false,
      "inputs": [],
      "name": "unpause",
      "outputs": [],
      "payable": false,
      "stateMutability": "nonpayable",
      "type": "function"
    },
    {
      "constant": true,
      "inputs": [],
      "name": "paused",
      "outputs": [
        {
          "name": "",
          "type": "bool"
        }
      ],
      "payable": false,
      "stateMutability": "view",
      "type": "function"
    },
    {
      "constant": false,
      "inputs": [],
      "name": "pause",
      "outputs": [],
      "payable": false,
      "stateMutability": "nonpayable",
      "type": "function"
    },
    {
      "constant": true,
      "inputs": [],
      "name": "cooAddress",
      "outputs": [
        {
          "name": "",
          "type": "address"
        }
      ],
      "payable": false,
      "stateMutability": "view",
      "type": "function"
    },
    {
      "anonymous": false,
      "inputs": [
        {
          "indexed": false,
          "name": "tokenId",
          "type": "uint256"
        },
        {
          "indexed": false,
          "name": "name",
          "type": "string"
        },
        {
          "indexed": false,
          "name": "dna",
          "type": "bytes5"
        },
        {
          "indexed": false,
          "name": "price",
          "type": "uint256"
        },
        {
          "indexed": false,
          "name": "owner",
          "type": "address"
        }
      ],
      "name": "TokenCreated",
      "type": "event"
    },
    {
      "anonymous": false,
      "inputs": [
        {
          "indexed": true,
          "name": "tokenId",
          "type": "uint256"
        },
        {
          "indexed": false,
          "name": "name",
          "type": "string"
        },
        {
          "indexed": false,
          "name": "dna",
          "type": "bytes5"
        },
        {
          "indexed": false,
          "name": "sellingPrice",
          "type": "uint256"
        },
        {
          "indexed": false,
          "name": "newPrice",
          "type": "uint256"
        },
        {
          "indexed": true,
          "name": "oldOwner",
          "type": "address"
        },
        {
          "indexed": true,
          "name": "newOwner",
          "type": "address"
        }
      ],
      "name": "TokenSold",
      "type": "event"
    },
    {
      "anonymous": false,
      "inputs": [
        {
          "indexed": true,
          "name": "_from",
          "type": "address"
        },
        {
          "indexed": true,
          "name": "_to",
          "type": "address"
        },
        {
          "indexed": false,
          "name": "_tokenId",
          "type": "uint256"
        }
      ],
      "name": "Transfer",
      "type": "event"
    },
    {
      "anonymous": false,
      "inputs": [
        {
          "indexed": true,
          "name": "_owner",
          "type": "address"
        },
        {
          "indexed": true,
          "name": "_approved",
          "type": "address"
        },
        {
          "indexed": false,
          "name": "_tokenId",
          "type": "uint256"
        }
      ],
      "name": "Approval",
      "type": "event"
    },
    {
      "constant": false,
      "inputs": [
        {
          "name": "_name",
          "type": "string"
        }
      ],
      "name": "createToken",
      "outputs": [],
      "payable": false,
      "stateMutability": "nonpayable",
      "type": "function"
    },
    {
      "constant": false,
      "inputs": [
        {
          "name": "_name",
          "type": "string"
        },
        {
          "name": "_owner",
          "type": "address"
        },
        {
          "name": "_price",
          "type": "uint256"
        }
      ],
      "name": "createToken",
      "outputs": [],
      "payable": false,
      "stateMutability": "nonpayable",
      "type": "function"
    },
    {
      "constant": true,
      "inputs": [
        {
          "name": "_tokenId",
          "type": "uint256"
        }
      ],
      "name": "getToken",
      "outputs": [
        {
          "name": "_tokenName",
          "type": "string"
        },
        {
          "name": "_dna",
          "type": "bytes5"
        },
        {
          "name": "_price",
          "type": "uint256"
        },
        {
          "name": "_nextPrice",
          "type": "uint256"
        },
        {
          "name": "_owner",
          "type": "address"
        }
      ],
      "payable": false,
      "stateMutability": "view",
      "type": "function"
    },
    {
      "constant": true,
      "inputs": [],
      "name": "getAllTokens",
      "outputs": [
        {
          "name": "",
          "type": "uint256[]"
        },
        {
          "name": "",
          "type": "uint256[]"
        },
        {
          "name": "",
          "type": "address[]"
        }
      ],
      "payable": false,
      "stateMutability": "view",
      "type": "function"
    },
    {
      "constant": true,
      "inputs": [
        {
          "name": "_owner",
          "type": "address"
        }
      ],
      "name": "tokensOf",
      "outputs": [
        {
          "name": "",
          "type": "uint256[]"
        }
      ],
      "payable": false,
      "stateMutability": "view",
      "type": "function"
    },
    {
      "constant": false,
      "inputs": [
        {
          "name": "_to",
          "type": "address"
        },
        {
          "name": "_amount",
          "type": "uint256"
        }
      ],
      "name": "withdrawBalance",
      "outputs": [],
      "payable": false,
      "stateMutability": "nonpayable",
      "type": "function"
    },
    {
      "constant": false,
      "inputs": [
        {
          "name": "_tokenId",
          "type": "uint256"
        }
      ],
      "name": "purchase",
      "outputs": [],
      "payable": true,
      "stateMutability": "payable",
      "type": "function"
    },
    {
      "constant": true,
      "inputs": [
        {
          "name": "_tokenId",
          "type": "uint256"
        }
      ],
      "name": "priceOf",
      "outputs": [
        {
          "name": "_price",
          "type": "uint256"
        }
      ],
      "payable": false,
      "stateMutability": "view",
      "type": "function"
    },
    {
      "constant": true,
      "inputs": [
        {
          "name": "_tokenId",
          "type": "uint256"
        }
      ],
      "name": "nextPriceOf",
      "outputs": [
        {
          "name": "_nextPrice",
          "type": "uint256"
        }
      ],
      "payable": false,
      "stateMutability": "view",
      "type": "function"
    },
    {
      "constant": false,
      "inputs": [],
      "name": "enableERC721",
      "outputs": [],
      "payable": false,
      "stateMutability": "nonpayable",
      "type": "function"
    },
    {
      "constant": true,
      "inputs": [],
      "name": "totalSupply",
      "outputs": [
        {
          "name": "_totalSupply",
          "type": "uint256"
        }
      ],
      "payable": false,
      "stateMutability": "view",
      "type": "function"
    },
    {
      "constant": true,
      "inputs": [
        {
          "name": "_owner",
          "type": "address"
        }
      ],
      "name": "balanceOf",
      "outputs": [
        {
          "name": "_balance",
          "type": "uint256"
        }
      ],
      "payable": false,
      "stateMutability": "view",
      "type": "function"
    },
    {
      "constant": true,
      "inputs": [
        {
          "name": "_tokenId",
          "type": "uint256"
        }
      ],
      "name": "ownerOf",
      "outputs": [
        {
          "name": "_owner",
          "type": "address"
        }
      ],
      "payable": false,
      "stateMutability": "view",
      "type": "function"
    },
    {
      "constant": false,
      "inputs": [
        {
          "name": "_to",
          "type": "address"
        },
        {
          "name": "_tokenId",
          "type": "uint256"
        }
      ],
      "name": "approve",
      "outputs": [],
      "payable": false,
      "stateMutability": "nonpayable",
      "type": "function"
    },
    {
      "constant": false,
      "inputs": [
        {
          "name": "_from",
          "type": "address"
        },
        {
          "name": "_to",
          "type": "address"
        },
        {
          "name": "_tokenId",
          "type": "uint256"
        }
      ],
      "name": "transferFrom",
      "outputs": [],
      "payable": false,
      "stateMutability": "nonpayable",
      "type": "function"
    },
    {
      "constant": false,
      "inputs": [
        {
          "name": "_to",
          "type": "address"
        },
        {
          "name": "_tokenId",
          "type": "uint256"
        }
      ],
      "name": "transfer",
      "outputs": [],
      "payable": false,
      "stateMutability": "nonpayable",
      "type": "function"
    },
    {
      "constant": true,
      "inputs": [],
      "name": "implementsERC721",
      "outputs": [
        {
          "name": "",
          "type": "bool"
        }
      ],
      "payable": false,
      "stateMutability": "view",
      "type": "function"
    },
    {
      "constant": false,
      "inputs": [
        {
          "name": "_tokenId",
          "type": "uint256"
        }
      ],
      "name": "takeOwnership",
      "outputs": [],
      "payable": false,
      "stateMutability": "nonpayable",
      "type": "function"
    },
    {
      "constant": true,
      "inputs": [],
      "name": "name",
      "outputs": [
        {
          "name": "_name",
          "type": "string"
        }
      ],
      "payable": false,
      "stateMutability": "view",
      "type": "function"
    },
    {
      "constant": true,
      "inputs": [],
      "name": "symbol",
      "outputs": [
        {
          "name": "_symbol",
          "type": "string"
        }
      ],
      "payable": false,
      "stateMutability": "view",
      "type": "function"
    }
  ],
  "bytecode": "0x60606040526000600160146101000a81548160ff02191690831515021790555066038d7ea4c680006007556000600860006101000a81548160ff02191690831515021790555066470de4df8200006009556706f05b59d3b20000600a55671bc16d674ec80000600b55674563918244f40000600c55336000806101000a81548173ffffffffffffffffffffffffffffffffffffffff021916908373ffffffffffffffffffffffffffffffffffffffff16021790555033600160006101000a81548173ffffffffffffffffffffffffffffffffffffffff021916908373ffffffffffffffffffffffffffffffffffffffff1602179055506126b8806101046000396000f30060606040526004361061015f576000357c0100000000000000000000000000000000000000000000000000000000900463ffffffff16806306fdde0314610164578063095ea7b3146101f25780630a0f8168146102345780630cf20cc9146102895780631051db34146102cb57806318160ddd146102f857806323b872dd1461032157806327d7874c146103825780632a5c792a146103bb5780632ba73c15146104b55780633f4ba83a146104ee57806345576f94146105035780635a3f2672146105605780635ba9e48e146105ee5780635c975abb146106255780636352211e1461065257806370a08231146106b557806371dc761e1461070257806373b4df05146107175780638456cb591461079c57806395d89b41146107b1578063a9059cbb1461083f578063b047fb5014610881578063b2e6ceeb146108d6578063b9186d7d146108f9578063e4b50cb814610930578063efef39a114610a50575b600080fd5b341561016f57600080fd5b610177610a68565b6040518080602001828103825283818151815260200191508051906020019080838360005b838110156101b757808201518184015260208101905061019c565b50505050905090810190601f1680156101e45780820380516001836020036101000a031916815260200191505b509250505060405180910390f35b34156101fd57600080fd5b610232600480803573ffffffffffffffffffffffffffffffffffffffff16906020019091908035906020019091905050610aab565b005b341561023f57600080fd5b610247610bb2565b604051808273ffffffffffffffffffffffffffffffffffffffff1673ffffffffffffffffffffffffffffffffffffffff16815260200191505060405180910390f35b341561029457600080fd5b6102c9600480803573ffffffffffffffffffffffffffffffffffffffff16906020019091908035906020019091905050610bd7565b005b34156102d657600080fd5b6102de610d5c565b604051808215151515815260200191505060405180910390f35b341561030357600080fd5b61030b610d8f565b6040518082815260200191505060405180910390f35b341561032c57600080fd5b610380600480803573ffffffffffffffffffffffffffffffffffffffff1690602001909190803573ffffffffffffffffffffffffffffffffffffffff16906020019091908035906020019091905050610d9c565b005b341561038d57600080fd5b6103b9600480803573ffffffffffffffffffffffffffffffffffffffff16906020019091905050610e49565b005b34156103c657600080fd5b6103ce610f23565b60405180806020018060200180602001848103845287818151815260200191508051906020019060200280838360005b838110156104195780820151818401526020810190506103fe565b50505050905001848103835286818151815260200191508051906020019060200280838360005b8381101561045b578082015181840152602081019050610440565b50505050905001848103825285818151815260200191508051906020019060200280838360005b8381101561049d578082015181840152602081019050610482565b50505050905001965050505050505060405180910390f35b34156104c057600080fd5b6104ec600480803573ffffffffffffffffffffffffffffffffffffffff169060200190919050506110c4565b005b34156104f957600080fd5b61050161119f565b005b341561050e57600080fd5b61055e600480803590602001908201803590602001908080601f01602080910402602001604051908101604052809392919081815260200183838082843782019150505050505091905050611232565b005b341561056b57600080fd5b610597600480803573ffffffffffffffffffffffffffffffffffffffff16906020019091905050611303565b6040518080602001828103825283818151815260200191508051906020019060200280838360005b838110156105da5780820151818401526020810190506105bf565b505050509050019250505060405180910390f35b34156105f957600080fd5b61060f6004808035906020019091905050611439565b6040518082815260200191505060405180910390f35b341561063057600080fd5b610638611557565b604051808215151515815260200191505060405180910390f35b341561065d57600080fd5b610673600480803590602001909190505061156a565b604051808273ffffffffffffffffffffffffffffffffffffffff1673ffffffffffffffffffffffffffffffffffffffff16815260200191505060405180910390f35b34156106c057600080fd5b6106ec600480803573ffffffffffffffffffffffffffffffffffffffff169060200190919050506115a7565b6040518082815260200191505060405180910390f35b341561070d57600080fd5b6107156115f0565b005b341561072257600080fd5b61079a600480803590602001908201803590602001908080601f0160208091040260200160405190810160405280939291908181526020018383808284378201915050505050509190803573ffffffffffffffffffffffffffffffffffffffff16906020019091908035906020019091905050611668565b005b34156107a757600080fd5b6107af611786565b005b34156107bc57600080fd5b6107c4611819565b6040518080602001828103825283818151815260200191508051906020019080838360005b838110156108045780820151818401526020810190506107e9565b50505050905090810190601f1680156108315780820380516001836020036101000a031916815260200191505b509250505060405180910390f35b341561084a57600080fd5b61087f600480803573ffffffffffffffffffffffffffffffffffffffff1690602001909190803590602001909190505061185c565b005b341561088c57600080fd5b6108946118f3565b604051808273ffffffffffffffffffffffffffffffffffffffff1673ffffffffffffffffffffffffffffffffffffffff16815260200191505060405180910390f35b34156108e157600080fd5b6108f76004808035906020019091905050611919565b005b341561090457600080fd5b61091a60048080359060200190919050506119a6565b6040518082815260200191505060405180910390f35b341561093b57600080fd5b61095160048080359060200190919050506119c3565b6040518080602001867affffffffffffffffffffffffffffffffffffffffffffffffffffff19167affffffffffffffffffffffffffffffffffffffffffffffffffffff191681526020018581526020018481526020018373ffffffffffffffffffffffffffffffffffffffff1673ffffffffffffffffffffffffffffffffffffffff168152602001828103825287818151815260200191508051906020019080838360005b83811015610a115780820151818401526020810190506109f6565b50505050905090810190601f168015610a3e5780820380516001836020036101000a031916815260200191505b50965050505050505060405180910390f35b610a666004808035906020019091905050611b37565b005b610a70612498565b6040805190810160405280600b81526020017f43727970746f4361726473000000000000000000000000000000000000000000815250905090565b600160149054906101000a900460ff16151515610ac757600080fd5b600860009054906101000a900460ff161515610ae257600080fd5b610aec3382611f28565b1515610af757600080fd5b816005600083815260200190815260200160002060006101000a81548173ffffffffffffffffffffffffffffffffffffffff021916908373ffffffffffffffffffffffffffffffffffffffff1602179055508173ffffffffffffffffffffffffffffffffffffffff163373ffffffffffffffffffffffffffffffffffffffff167f8c5be1e5ebec7d5bd14f71427d1e84f3dd0314c0f7b2291e5b200ac8c7c3b925836040518082815260200191505060405180910390a35050565b6000809054906101000a900473ffffffffffffffffffffffffffffffffffffffff1681565b6000809054906101000a900473ffffffffffffffffffffffffffffffffffffffff1673ffffffffffffffffffffffffffffffffffffffff163373ffffffffffffffffffffffffffffffffffffffff16141515610c3257600080fd5b3073ffffffffffffffffffffffffffffffffffffffff16318111151515610c5857600080fd5b6000811415610c7c573073ffffffffffffffffffffffffffffffffffffffff163190505b600073ffffffffffffffffffffffffffffffffffffffff168273ffffffffffffffffffffffffffffffffffffffff161415610d17576000809054906101000a900473ffffffffffffffffffffffffffffffffffffffff1673ffffffffffffffffffffffffffffffffffffffff166108fc829081150290604051600060405180830381858888f193505050501515610d1257600080fd5b610d58565b8173ffffffffffffffffffffffffffffffffffffffff166108fc829081150290604051600060405180830381858888f193505050501515610d5757600080fd5b5b5050565b6000600160149054906101000a900460ff16151515610d7a57600080fd5b600860009054906101000a900460ff16905090565b6000600680549050905090565b600160149054906101000a900460ff16151515610db857600080fd5b600860009054906101000a900460ff161515610dd357600080fd5b600073ffffffffffffffffffffffffffffffffffffffff168273ffffffffffffffffffffffffffffffffffffffff1614151515610e0f57600080fd5b610e198382611f28565b1515610e2457600080fd5b610e2e3382611f94565b1515610e3957600080fd5b610e44838383612000565b505050565b6000809054906101000a900473ffffffffffffffffffffffffffffffffffffffff1673ffffffffffffffffffffffffffffffffffffffff163373ffffffffffffffffffffffffffffffffffffffff16141515610ea457600080fd5b600073ffffffffffffffffffffffffffffffffffffffff168173ffffffffffffffffffffffffffffffffffffffff1614151515610ee057600080fd5b806000806101000a81548173ffffffffffffffffffffffffffffffffffffffff021916908373ffffffffffffffffffffffffffffffffffffffff16021790555050565b610f2b6124ac565b610f336124ac565b610f3b6124c0565b6000610f456124ac565b610f4d6124ac565b610f556124c0565b6000610f5f610d8f565b945084604051805910610f6f5750595b9080825280602002602001820160405250935084604051805910610f905750595b9080825280602002602001820160405250925084604051805910610fb15750595b90808252806020026020018201604052509150600090505b848110156110b15760036000828152602001908152602001600020548482815181101515610ff357fe5b906020019060200201818152505061100a81611439565b838281518110151561101857fe5b90602001906020020181815250506002600082815260200190815260200160002060009054906101000a900473ffffffffffffffffffffffffffffffffffffffff16828281518110151561106857fe5b9060200190602002019073ffffffffffffffffffffffffffffffffffffffff16908173ffffffffffffffffffffffffffffffffffffffff16815250508080600101915050610fc9565b8383839750975097505050505050909192565b6000809054906101000a900473ffffffffffffffffffffffffffffffffffffffff1673ffffffffffffffffffffffffffffffffffffffff163373ffffffffffffffffffffffffffffffffffffffff1614151561111f57600080fd5b600073ffffffffffffffffffffffffffffffffffffffff168173ffffffffffffffffffffffffffffffffffffffff161415151561115b57600080fd5b80600160006101000a81548173ffffffffffffffffffffffffffffffffffffffff021916908373ffffffffffffffffffffffffffffffffffffffff16021790555050565b6000809054906101000a900473ffffffffffffffffffffffffffffffffffffffff1673ffffffffffffffffffffffffffffffffffffffff163373ffffffffffffffffffffffffffffffffffffffff161415156111fa57600080fd5b600160149054906101000a900460ff16151561121557600080fd5b6000600160146101000a81548160ff021916908315150217905550565b60008060009054906101000a900473ffffffffffffffffffffffffffffffffffffffff1673ffffffffffffffffffffffffffffffffffffffff163373ffffffffffffffffffffffffffffffffffffffff1614806112dc5750600160009054906101000a900473ffffffffffffffffffffffffffffffffffffffff1673ffffffffffffffffffffffffffffffffffffffff163373ffffffffffffffffffffffffffffffffffffffff16145b15156112e757600080fd5b6112ef6121c8565b90506112ff8282306007546121f8565b5050565b61130b6124ac565b60006113156124ac565b6000806000611323876115a7565b9450600085141561135557600060405180591061133d5750595b9080825280602002602001820160405250955061142f565b846040518059106113635750595b9080825280602002602001820160405250935061137e610d8f565b925060009150600090505b8281101561142b578673ffffffffffffffffffffffffffffffffffffffff166002600083815260200190815260200160002060009054906101000a900473ffffffffffffffffffffffffffffffffffffffff1673ffffffffffffffffffffffffffffffffffffffff16141561141e5780848381518110151561140757fe5b906020019060200201818152505081806001019250505b8080600101915050611389565b8395505b5050505050919050565b600080611445836119a6565b905060095481101561147f57611478605f61146a60c88461241690919063ffffffff16565b61245190919063ffffffff16565b9150611551565b600a548110156114b7576114b060606114a260878461241690919063ffffffff16565b61245190919063ffffffff16565b9150611551565b600b548110156114ef576114e860616114da607d8461241690919063ffffffff16565b61245190919063ffffffff16565b9150611551565b600c5481101561152757611520606161151260758461241690919063ffffffff16565b61245190919063ffffffff16565b9150611551565b61154e606261154060738461241690919063ffffffff16565b61245190919063ffffffff16565b91505b50919050565b600160149054906101000a900460ff1681565b60006002600083815260200190815260200160002060009054906101000a900473ffffffffffffffffffffffffffffffffffffffff169050919050565b6000600460008373ffffffffffffffffffffffffffffffffffffffff1673ffffffffffffffffffffffffffffffffffffffff168152602001908152602001600020549050919050565b6000809054906101000a900473ffffffffffffffffffffffffffffffffffffffff1673ffffffffffffffffffffffffffffffffffffffff163373ffffffffffffffffffffffffffffffffffffffff1614151561164b57600080fd5b6001600860006101000a81548160ff021916908315150217905550565b60008060009054906101000a900473ffffffffffffffffffffffffffffffffffffffff1673ffffffffffffffffffffffffffffffffffffffff163373ffffffffffffffffffffffffffffffffffffffff1614806117125750600160009054906101000a900473ffffffffffffffffffffffffffffffffffffffff1673ffffffffffffffffffffffffffffffffffffffff163373ffffffffffffffffffffffffffffffffffffffff16145b151561171d57600080fd5b600073ffffffffffffffffffffffffffffffffffffffff168373ffffffffffffffffffffffffffffffffffffffff161415151561175957600080fd5b600754821015151561176a57600080fd5b6117726121c8565b9050611780848285856121f8565b50505050565b6000809054906101000a900473ffffffffffffffffffffffffffffffffffffffff1673ffffffffffffffffffffffffffffffffffffffff163373ffffffffffffffffffffffffffffffffffffffff161415156117e157600080fd5b600160149054906101000a900460ff161515156117fd57600080fd5b60018060146101000a81548160ff021916908315150217905550565b611821612498565b6040805190810160405280600381526020017f4343540000000000000000000000000000000000000000000000000000000000815250905090565b600160149054906101000a900460ff1615151561187857600080fd5b600860009054906101000a900460ff16151561189357600080fd5b600073ffffffffffffffffffffffffffffffffffffffff168273ffffffffffffffffffffffffffffffffffffffff16141515156118cf57600080fd5b6118d93382611f28565b15156118e457600080fd5b6118ef338383612000565b5050565b600160009054906101000a900473ffffffffffffffffffffffffffffffffffffffff1681565b600160149054906101000a900460ff1615151561193557600080fd5b600860009054906101000a900460ff16151561195057600080fd5b61195a3382611f94565b151561196557600080fd5b6119a36002600083815260200190815260200160002060009054906101000a900473ffffffffffffffffffffffffffffffffffffffff163383612000565b50565b600060036000838152602001908152602001600020549050919050565b6119cb612498565b6000806000806006868154811015156119e057fe5b90600052602060002090600202016000018054600181600116156101000203166002900480601f016020809104026020016040519081016040528092919081815260200182805460018160011615610100020316600290048015611a855780601f10611a5a57610100808354040283529160200191611a85565b820191906000526020600020905b815481529060010190602001808311611a6857829003601f168201915b50505050509450600686815481101515611a9b57fe5b906000526020600020906002020160010160009054906101000a90047b0100000000000000000000000000000000000000000000000000000002935060036000878152602001908152602001600020549250611af686611439565b91506002600087815260200190815260200160002060009054906101000a900473ffffffffffffffffffffffffffffffffffffffff16905091939590929450565b6000806000806000600160149054906101000a900460ff16151515611b5b57600080fd5b611b648661156a565b9450339350611b72866119a6565b9250600073ffffffffffffffffffffffffffffffffffffffff168573ffffffffffffffffffffffffffffffffffffffff1614151515611bb057600080fd5b600073ffffffffffffffffffffffffffffffffffffffff168473ffffffffffffffffffffffffffffffffffffffff1614151515611bec57600080fd5b8373ffffffffffffffffffffffffffffffffffffffff168573ffffffffffffffffffffffffffffffffffffffff1614151515611c2757600080fd5b611c308461246c565b151515611c3c57600080fd5b600083111515611c4b57600080fd5b823410151515611c5a57600080fd5b611c65858588612000565b8373ffffffffffffffffffffffffffffffffffffffff168573ffffffffffffffffffffffffffffffffffffffff16877f47c2495ae9a226645e2cfa7b81ab70c2d82f35b0c69a72358812cca2f0f0bcbc60068a815481101515611cc457fe5b906000526020600020906002020160000160068b815481101515611ce457fe5b906000526020600020906002020160010160009054906101000a90047b010000000000000000000000000000000000000000000000000000000288611d288d6119a6565b6040518080602001857affffffffffffffffffffffffffffffffffffffffffffffffffffff19167affffffffffffffffffffffffffffffffffffffffffffffffffffff19168152602001848152602001838152602001828103825286818154600181600116156101000203166002900481526020019150805460018160011615610100020316600290048015611dff5780601f10611dd457610100808354040283529160200191611dff565b820191906000526020600020905b815481529060010190602001808311611de257829003601f168201915b50509550505050505060405180910390a4611e23833461247f90919063ffffffff16565b9150611e4c6064611e3e60068661241690919063ffffffff16565b61245190919063ffffffff16565b90503073ffffffffffffffffffffffffffffffffffffffff168573ffffffffffffffffffffffffffffffffffffffff16141515611ed6578473ffffffffffffffffffffffffffffffffffffffff166108fc611eb0838661247f90919063ffffffff16565b9081150290604051600060405180830381858888f193505050501515611ed557600080fd5b5b6000821115611f20578373ffffffffffffffffffffffffffffffffffffffff166108fc839081150290604051600060405180830381858888f193505050501515611f1f57600080fd5b5b505050505050565b60008273ffffffffffffffffffffffffffffffffffffffff166002600084815260200190815260200160002060009054906101000a900473ffffffffffffffffffffffffffffffffffffffff1673ffffffffffffffffffffffffffffffffffffffff1614905092915050565b60008273ffffffffffffffffffffffffffffffffffffffff166005600084815260200190815260200160002060009054906101000a900473ffffffffffffffffffffffffffffffffffffffff1673ffffffffffffffffffffffffffffffffffffffff1614905092915050565b600460008373ffffffffffffffffffffffffffffffffffffffff1673ffffffffffffffffffffffffffffffffffffffff16815260200190815260200160002060008154809291906001019190505550816002600083815260200190815260200160002060006101000a81548173ffffffffffffffffffffffffffffffffffffffff021916908373ffffffffffffffffffffffffffffffffffffffff160217905550600073ffffffffffffffffffffffffffffffffffffffff168373ffffffffffffffffffffffffffffffffffffffff1614151561215e57600460008473ffffffffffffffffffffffffffffffffffffffff1673ffffffffffffffffffffffffffffffffffffffff16815260200190815260200160002060008154809291906001900391905055506005600082815260200190815260200160002060006101000a81549073ffffffffffffffffffffffffffffffffffffffff02191690555b8173ffffffffffffffffffffffffffffffffffffffff168373ffffffffffffffffffffffffffffffffffffffff167fddf252ad1be2c89b69c2b068fc378daa952ba7f163c4a11628f55a4df523b3ef836040518082815260200191505060405180910390a3505050565b6000806000806001430392508240915060d863ffffffff6001028316600019169060020a02905080935050505090565b6122006124d4565b60006040805190810160405280878152602001867affffffffffffffffffffffffffffffffffffffffffffffffffffff1916815250915060016006805480600101828161224d9190612512565b91600052602060002090600202016000859091909150600082015181600001908051906020019061227f929190612544565b5060208201518160010160006101000a81548164ffffffffff02191690837b010000000000000000000000000000000000000000000000000000009004021790555050500390508260036000838152602001908152602001600020819055507fe2541836f6f02475fc0b01a06c1e80d7e5098215c6015348851ceabef9d05e6881878786886040518086815260200180602001857affffffffffffffffffffffffffffffffffffffffffffffffffffff19167affffffffffffffffffffffffffffffffffffffffffffffffffffff191681526020018481526020018373ffffffffffffffffffffffffffffffffffffffff1673ffffffffffffffffffffffffffffffffffffffff168152602001828103825286818151815260200191508051906020019080838360005b838110156123c45780820151818401526020810190506123a9565b50505050905090810190601f1680156123f15780820380516001836020036101000a031916815260200191505b50965050505050505060405180910390a161240e60008583612000565b505050505050565b600080600084141561242b576000915061244a565b828402905082848281151561243c57fe5b0414151561244657fe5b8091505b5092915050565b600080828481151561245f57fe5b0490508091505092915050565b600080823b905060008111915050919050565b600082821115151561248d57fe5b818303905092915050565b602060405190810160405280600081525090565b602060405190810160405280600081525090565b602060405190810160405280600081525090565b60408051908101604052806124e76125c4565b815260200160007affffffffffffffffffffffffffffffffffffffffffffffffffffff191681525090565b81548183558181151161253f5760020281600202836000526020600020918201910161253e91906125d8565b5b505050565b828054600181600116156101000203166002900490600052602060002090601f016020900481019282601f1061258557805160ff19168380011785556125b3565b828001600101855582156125b3579182015b828111156125b2578251825591602001919060010190612597565b5b5090506125c0919061261f565b5090565b602060405190810160405280600081525090565b61261c91905b8082111561261857600080820160006125f79190612644565b6001820160006101000a81549064ffffffffff0219169055506002016125de565b5090565b90565b61264191905b8082111561263d576000816000905550600101612625565b5090565b90565b50805460018160011615610100020316600290046000825580601f1061266a5750612689565b601f016020900490600052602060002090810190612688919061261f565b5b505600a165627a7a72305820df26013480ff8191642acf211c8d45e28349b073ea1c30400223bbe970ed1c000029",
  "source": "pragma solidity ^0.4.18;\n\nimport \"./AccessControl.sol\";\nimport \"./ERC721.sol\";\nimport \"./SafeMath.sol\";\n\ncontract DetailedERC721 is ERC721 {\n    function name() public view returns (string _name);\n    function symbol() public view returns (string _symbol);\n}\n\ncontract CryptoCards is AccessControl, DetailedERC721 {\n    using SafeMath for uint256;\n    \n    event TokenCreated(uint256 tokenId, string name, bytes5 dna, uint256 price, address owner);\n    event TokenSold(uint256 indexed tokenId,\n        string name,\n        bytes5 dna,\n        uint256 sellingPrice,\n        uint256 newPrice,\n        address indexed oldOwner,\n        address indexed newOwner);\n\t\n    mapping (uint256 => address) private tokenIdToOwner;\n    mapping (uint256 => uint256) private tokenIdToPrice;\n    mapping (address => uint256) private ownershipTokenCount; //number of tokens owned by an address\n    mapping (uint256 => address) private tokenIdToApproved;\n    \n    struct Card {\n        string name;\n        bytes5 dna;\n    }\n    \n    Card[] private cards;\n    \n    uint256 private startingPrice = 0.001 ether;\n    bool private erc721Enabled = false; // Allow us to toggle between ERC721 & ERC20 for backwards compatibility\n\n    modifier onlyERC721 () {\n        require(erc721Enabled);\n        _;\n    }\n\n    function createToken(string _name, address _owner, uint256 _price) public onlyCLevel {\n        require(_owner != address(0));\n        require(_price >= startingPrice);\n\n        bytes5 _dna = _generateRandomDna();\n        _createToken(_name, _dna, _owner, _price);\n    }\n\n    function createToken(string _name) public onlyCLevel {\n        bytes5 _dna = _generateRandomDna();\n        _createToken(_name,_dna, address(this), startingPrice);\n    }\n\n    function _generateRandomDna() private view returns (bytes5) {\n        uint256 lastBlockNumber = block.number - 1;\n        bytes32 hashVal = bytes32(block.blockhash(lastBlockNumber));\n        bytes5 dna = bytes5((hashVal & 0xffffffff) << 216);\n        return dna;\n    }\n\n    function _createToken(string _name, bytes5 _dna, address _owner, uint256 _price) private {\n        Card memory _card = Card({\n            name: _name,\n            dna: _dna\n        });\n        uint256 newTokenId = cards.push(_card) - 1;\n        tokenIdToPrice[newTokenId] = _price;\n\n        TokenCreated(newTokenId, _name, _dna, _price, _owner);\n\n        _transfer(address(0), _owner, newTokenId);\n    }\n\n    function getToken(uint256 _tokenId) public view returns (\n        string _tokenName,\n        bytes5 _dna,\n        uint256 _price,\n        uint256 _nextPrice,\n        address _owner\n    ) {\n        _tokenName = cards[_tokenId].name;\n        _dna = cards[_tokenId].dna;\n        _price = tokenIdToPrice[_tokenId];\n        _nextPrice = nextPriceOf(_tokenId);\n        _owner = tokenIdToOwner[_tokenId];\n    }\n\n    function getAllTokens() public view returns (\n        uint256[],\n        uint256[],\n        address[]\n    ) {\n        uint256 total = totalSupply();\n        uint256[] memory prices = new uint256[](total);\n        uint256[] memory nextPrices = new uint256[](total);\n        address[] memory owners = new address[](total);\n\n        for (uint256 i = 0; i < total; i++) {\n            prices[i] = tokenIdToPrice[i];\n            nextPrices[i] = nextPriceOf(i);\n            owners[i] = tokenIdToOwner[i];\n        }\n\n        return (prices, nextPrices, owners);\n    }\n\n    function tokensOf(address _owner) public view returns(uint256[]) {\n        uint256 tokenCount = balanceOf(_owner);\n        if (tokenCount == 0) {\n            return new uint256[](0);\n        } else {\n            uint256[] memory result = new uint256[](tokenCount);\n            uint256 total = totalSupply();\n            uint256 resultIndex = 0;\n\n            for (uint256 i = 0; i < total; i++) {\n                if (tokenIdToOwner[i] == _owner) {\n                    result[resultIndex] = i;\n                    resultIndex++;\n                }\n            }\n            return result;\n        }\n    }\n\n    function withdrawBalance(address _to, uint256 _amount) public onlyCEO {\n        require (_amount <= this.balance);\n\n        if (_amount == 0) {\n            _amount = this.balance;\n        }\n\n        if (_to == address(0)){\n            ceoAddress.transfer(_amount);\n        } else {\n            _to.transfer(_amount);\n        }\n    }\n\n    function purchase(uint256 _tokenId) public payable whenNotPaused {\n        address oldOwner = ownerOf(_tokenId);\n        address newOwner = msg.sender;\n        uint256 sellingPrice = priceOf(_tokenId);\n\n        require(oldOwner != address(0));\n        require(newOwner != address(0));\n        require(oldOwner != newOwner);\n        require(!_isContract(newOwner));\n        require(sellingPrice > 0);\n        require(msg.value >= sellingPrice);\n\n        _transfer(oldOwner, newOwner, _tokenId);\n\n        TokenSold(\n            _tokenId,\n            cards[_tokenId].name,\n            cards[_tokenId].dna,\n            sellingPrice,\n            priceOf(_tokenId),\n            oldOwner,\n            newOwner\n        );\n\n        uint256 excess = msg.value.sub(sellingPrice);\n        uint256 contractCut = sellingPrice.mul(6).div(100); // 6% cut\n\n        if (oldOwner != address(this)) {\n            oldOwner.transfer(sellingPrice.sub(contractCut));\n        }\n\n        if (excess > 0) {\n            newOwner.transfer(excess);\n        }\n    }\n\n    function priceOf(uint256 _tokenId) public view returns (uint256 _price) {\n        return tokenIdToPrice[_tokenId];\n    }\n\n    uint256 private increaseLimit1 = 0.02 ether;\n    uint256 private increaseLimit2 = 0.5 ether;\n    uint256 private increaseLimit3 = 2 ether;\n    uint256 private increaseLimit4 = 5 ether;\n\n    function nextPriceOf(uint256 _tokenId) public view returns (uint256 _nextPrice) {\n        uint256 _price = priceOf(_tokenId);\n        if (_price < increaseLimit1) {\n            return _price.mul(200).div(95);\n        } else if (_price < increaseLimit2) {\n            return _price.mul(135).div(96);\n        } else if (_price < increaseLimit3) {\n            return _price.mul(125).div(97);\n        } else if (_price < increaseLimit4) {\n            return _price.mul(117).div(97);\n        } else {\n            return _price.mul(115).div(98);\n        }\n    }\n\n    function enableERC721() public onlyCEO {\n        erc721Enabled = true;\n    }\n\n    function totalSupply() public view returns (uint256 _totalSupply) {\n        _totalSupply = cards.length;\n    }\n\n    function balanceOf(address _owner) public view returns (uint256 _balance) {\n        _balance = ownershipTokenCount[_owner];\n    }\n\n    function ownerOf(uint256 _tokenId) public view returns (address _owner) {\n        _owner = tokenIdToOwner[_tokenId];\n    }\n\n    function approve(address _to, uint256 _tokenId) public whenNotPaused onlyERC721 {\n        require(_owns(msg.sender, _tokenId));\n        tokenIdToApproved[_tokenId] = _to;\n        Approval(msg.sender, _to, _tokenId);\n    }\n\n    function transferFrom(address _from, address _to, uint256 _tokenId) public whenNotPaused onlyERC721 {\n        require(_to != address(0));\n        require(_owns(_from, _tokenId));\n        require(_approved(msg.sender, _tokenId));\n\n        _transfer(_from, _to, _tokenId);\n    }\n\n    function transfer(address _to, uint256 _tokenId) public whenNotPaused onlyERC721 {\n        require(_to != address(0));\n        require(_owns(msg.sender, _tokenId));\n\n        _transfer(msg.sender, _to, _tokenId);\n    }\n\n    function implementsERC721() public view whenNotPaused returns (bool) {\n        return erc721Enabled;\n    }\n\n    function takeOwnership(uint256 _tokenId) public whenNotPaused onlyERC721 {\n        require(_approved(msg.sender, _tokenId));\n        _transfer(tokenIdToOwner[_tokenId], msg.sender, _tokenId);\n    }\n\n    function name() public view returns (string _name) {\n        _name = \"CryptoCards\";\n    }\n\n    function symbol() public view returns (string _symbol) {\n        _symbol = \"CCT\";\n    }\n\n    function _owns(address _claimant, uint256 _tokenId) private view returns (bool) {\n        return tokenIdToOwner[_tokenId] == _claimant;\n    }\n\n    function _approved(address _to, uint256 _tokenId) private view returns (bool) {\n        return tokenIdToApproved[_tokenId] == _to;\n    }\n\n    function _transfer(address _from, address _to, uint256 _tokenId) private {\n        ownershipTokenCount[_to]++;\n        tokenIdToOwner[_tokenId] = _to;\n\n        if (_from != address(0)) {\n            ownershipTokenCount[_from]--;\n            delete tokenIdToApproved[_tokenId];\n        }\n\n        Transfer(_from, _to, _tokenId);\n    }\n\n    function _isContract(address addr) private view returns (bool) {\n        uint256 size;\n        assembly {size := extcodesize(addr) }\n        return size > 0;\n    }\n}",
  "sourcePath": "/home/quentin/CryptoCards/contracts/CryptoCards.sol",
  "compiler": {
    "name": "solc",
    "version": "0.4.19+commit.c4cbbb05.Emscripten.clang"
  },
  "schemaVersion": "2.0.0",
  "updatedAt": "2018-03-29T01:32:08.367Z"
}