{
  "contractName": "CryptoCardsBase",
  "abi": [
    {
      "constant": true,
      "inputs": [],
      "name": "ceoAddress",
      "outputs": [
        {
          "name": "",
          "type": "address"
        }
      ],
      "payable": false,
      "stateMutability": "view",
      "type": "function"
    },
    {
      "constant": false,
      "inputs": [
        {
          "name": "_newCEO",
          "type": "address"
        }
      ],
      "name": "setCEO",
      "outputs": [],
      "payable": false,
      "stateMutability": "nonpayable",
      "type": "function"
    },
    {
      "constant": false,
      "inputs": [
        {
          "name": "_newCOO",
          "type": "address"
        }
      ],
      "name": "setCOO",
      "outputs": [],
      "payable": false,
      "stateMutability": "nonpayable",
      "type": "function"
    },
    {
      "constant": true,
      "inputs": [
        {
          "name": "",
          "type": "uint256"
        }
      ],
      "name": "cardIndexToApproved",
      "outputs": [
        {
          "name": "",
          "type": "address"
        }
      ],
      "payable": false,
      "stateMutability": "view",
      "type": "function"
    },
    {
      "constant": false,
      "inputs": [],
      "name": "unpause",
      "outputs": [],
      "payable": false,
      "stateMutability": "nonpayable",
      "type": "function"
    },
    {
      "constant": true,
      "inputs": [],
      "name": "paused",
      "outputs": [
        {
          "name": "",
          "type": "bool"
        }
      ],
      "payable": false,
      "stateMutability": "view",
      "type": "function"
    },
    {
      "constant": true,
      "inputs": [
        {
          "name": "",
          "type": "uint256"
        }
      ],
      "name": "cardIndexToOwner",
      "outputs": [
        {
          "name": "",
          "type": "address"
        }
      ],
      "payable": false,
      "stateMutability": "view",
      "type": "function"
    },
    {
      "constant": false,
      "inputs": [],
      "name": "pause",
      "outputs": [],
      "payable": false,
      "stateMutability": "nonpayable",
      "type": "function"
    },
    {
      "constant": true,
      "inputs": [],
      "name": "cooAddress",
      "outputs": [
        {
          "name": "",
          "type": "address"
        }
      ],
      "payable": false,
      "stateMutability": "view",
      "type": "function"
    },
    {
      "constant": true,
      "inputs": [],
      "name": "saleAuction",
      "outputs": [
        {
          "name": "",
          "type": "address"
        }
      ],
      "payable": false,
      "stateMutability": "view",
      "type": "function"
    },
    {
      "anonymous": false,
      "inputs": [
        {
          "indexed": false,
          "name": "owner",
          "type": "address"
        },
        {
          "indexed": false,
          "name": "tokenId",
          "type": "uint256"
        },
        {
          "indexed": false,
          "name": "skills",
          "type": "uint128"
        }
      ],
      "name": "Spawn",
      "type": "event"
    },
    {
      "anonymous": false,
      "inputs": [
        {
          "indexed": false,
          "name": "from",
          "type": "address"
        },
        {
          "indexed": false,
          "name": "to",
          "type": "address"
        },
        {
          "indexed": false,
          "name": "tokenId",
          "type": "uint256"
        }
      ],
      "name": "Transfer",
      "type": "event"
    }
  ],
  "bytecode": "0x60606040526000600160146101000a81548160ff021916908315150217905550341561002a57600080fd5b610728806100396000396000f3006060604052600436106100a4576000357c0100000000000000000000000000000000000000000000000000000000900463ffffffff1680630a0f8168146100a957806327d7874c146100fe5780632ba73c1514610137578063394baa0b146101705780633f4ba83a146101d35780635c975abb146101e857806378d0df50146102155780638456cb5914610278578063b047fb501461028d578063e6cbe351146102e2575b600080fd5b34156100b457600080fd5b6100bc610337565b604051808273ffffffffffffffffffffffffffffffffffffffff1673ffffffffffffffffffffffffffffffffffffffff16815260200191505060405180910390f35b341561010957600080fd5b610135600480803573ffffffffffffffffffffffffffffffffffffffff1690602001909190505061035c565b005b341561014257600080fd5b61016e600480803573ffffffffffffffffffffffffffffffffffffffff16906020019091905050610436565b005b341561017b57600080fd5b6101916004808035906020019091905050610511565b604051808273ffffffffffffffffffffffffffffffffffffffff1673ffffffffffffffffffffffffffffffffffffffff16815260200191505060405180910390f35b34156101de57600080fd5b6101e6610544565b005b34156101f357600080fd5b6101fb6105d7565b604051808215151515815260200191505060405180910390f35b341561022057600080fd5b61023660048080359060200190919050506105ea565b604051808273ffffffffffffffffffffffffffffffffffffffff1673ffffffffffffffffffffffffffffffffffffffff16815260200191505060405180910390f35b341561028357600080fd5b61028b61061d565b005b341561029857600080fd5b6102a06106b0565b604051808273ffffffffffffffffffffffffffffffffffffffff1673ffffffffffffffffffffffffffffffffffffffff16815260200191505060405180910390f35b34156102ed57600080fd5b6102f56106d6565b604051808273ffffffffffffffffffffffffffffffffffffffff1673ffffffffffffffffffffffffffffffffffffffff16815260200191505060405180910390f35b6000809054906101000a900473ffffffffffffffffffffffffffffffffffffffff1681565b6000809054906101000a900473ffffffffffffffffffffffffffffffffffffffff1673ffffffffffffffffffffffffffffffffffffffff163373ffffffffffffffffffffffffffffffffffffffff161415156103b757600080fd5b600073ffffffffffffffffffffffffffffffffffffffff168173ffffffffffffffffffffffffffffffffffffffff16141515156103f357600080fd5b806000806101000a81548173ffffffffffffffffffffffffffffffffffffffff021916908373ffffffffffffffffffffffffffffffffffffffff16021790555050565b6000809054906101000a900473ffffffffffffffffffffffffffffffffffffffff1673ffffffffffffffffffffffffffffffffffffffff163373ffffffffffffffffffffffffffffffffffffffff1614151561049157600080fd5b600073ffffffffffffffffffffffffffffffffffffffff168173ffffffffffffffffffffffffffffffffffffffff16141515156104cd57600080fd5b80600160006101000a81548173ffffffffffffffffffffffffffffffffffffffff021916908373ffffffffffffffffffffffffffffffffffffffff16021790555050565b60056020528060005260406000206000915054906101000a900473ffffffffffffffffffffffffffffffffffffffff1681565b6000809054906101000a900473ffffffffffffffffffffffffffffffffffffffff1673ffffffffffffffffffffffffffffffffffffffff163373ffffffffffffffffffffffffffffffffffffffff1614151561059f57600080fd5b600160149054906101000a900460ff1615156105ba57600080fd5b6000600160146101000a81548160ff021916908315150217905550565b600160149054906101000a900460ff1681565b60036020528060005260406000206000915054906101000a900473ffffffffffffffffffffffffffffffffffffffff1681565b6000809054906101000a900473ffffffffffffffffffffffffffffffffffffffff1673ffffffffffffffffffffffffffffffffffffffff163373ffffffffffffffffffffffffffffffffffffffff1614151561067857600080fd5b600160149054906101000a900460ff1615151561069457600080fd5b60018060146101000a81548160ff021916908315150217905550565b600160009054906101000a900473ffffffffffffffffffffffffffffffffffffffff1681565b600660009054906101000a900473ffffffffffffffffffffffffffffffffffffffff16815600a165627a7a72305820a7ae4b5237901691062733c2aaa8fd14004caafcef4e0c37bb6c86031d0b6fbc0029",
  "source": "pragma solidity ^0.4.18;\r\n\r\ncontract ERC721 {\r\n    // Required methods\r\n    function totalSupply() public view returns (uint256 total);\r\n    function balanceOf(address _owner) public view returns (uint256 balance);\r\n    function ownerOf(uint256 _tokenId) external view returns (address owner);\r\n    function approve(address _to, uint256 _tokenId) external;\r\n    function transfer(address _to, uint256 _tokenId) external;\r\n    function transferFrom(address _from, address _to, uint256 _tokenId) external;\r\n\r\n    // Events\r\n    event Transfer(address from, address to, uint256 tokenId);\r\n    event Approval(address owner, address approved, uint256 tokenId);\r\n\r\n    // Optional\r\n    // function name() public view returns (string name);\r\n    // function symbol() public view returns (string symbol);\r\n    // function tokensOfOwner(address _owner) external view returns (uint256[] tokenIds);\r\n    // function tokenMetadata(uint256 _tokenId, string _preferredTransport) public view returns (string infoUrl);\r\n\r\n    // ERC-165 Compatibility (https://github.com/ethereum/EIPs/issues/165)\r\n    function supportsInterface(bytes4 _interfaceID) external view returns (bool);\r\n}\r\n\r\n/**\r\n* @title Ownable\r\n* @dev The Ownable contract has an owner address, and provides basic authorization control\r\n*  functions, this simplifies the implementation of \"user permissions\".\r\n*/\r\ncontract Ownable {\r\n    address public owner;\r\n\r\n    // @dev The Ownable constructor sets the original 'onwer' of the contract to the sender\r\n    //  account\r\n    function Ownable() {\r\n        owner = msg.sender;\r\n    }\r\n\r\n    // @dev Throws if called by any account other than the owner.\r\n    modifier onlyOwner() {\r\n        require(msg.sender == owner);\r\n        _;\r\n    }\r\n\r\n    // @dev Allows the current owner to transfer control of the contract to a newOwner.\r\n    // @param newOwner The address to transfer ownership to.\r\n    function transferOwnership(address newOwner) onlyOwner {\r\n        if (newOwner != address(0)) {\r\n            owner = newOwner;\r\n        }\r\n    }\r\n}\r\n\r\ncontract Pausable is Ownable {\r\n    event Pause();\r\n    event Unpause();\r\n\r\n    bool public paused = false;\r\n\r\n    // @dev modifier to allow actions only when the contract IS NOT paused\r\n    modifier whenNotPaused() {\r\n        require(!paused);\r\n        _;\r\n    }\r\n\r\n    // @dev modifier to allow actions only when the contract IS paused\r\n    modifier whenPaused {\r\n        require(paused);\r\n        _;\r\n    }\r\n\r\n    // @dev called by the owner to puase. Triggers stopped state\r\n    function pause() onlyOwner whenNotPaused returns (bool) {\r\n        paused = true;\r\n        Pause();\r\n        return true;\r\n    }\r\n\r\n    // @dev called by the owner to unpause, returns to normal state\r\n    function unpause() onlyOwner whenPaused returns (bool) {\r\n        paused = false;\r\n        Unpause();\r\n        return true;\r\n    }\r\n}\r\n\r\ncontract ClockAuctionBase {\r\n    // Represents an auction on an NFT\r\n    struct Auction {\r\n        // Current owner of NFT\r\n        address seller;\r\n        // Price (in wei) at beginning of auction\r\n        uint128 startingPrice;\r\n        // Price (in wei) at end of auction\r\n        uint128 endingPrice;\r\n        // Duration (in seconds) of auction\r\n        uint64 duration;\r\n        // Time when auction started\r\n        // NOTE: 0 if this auction has been concluded\r\n        uint64 startedAt;\r\n    }\r\n\r\n    // Reference to contract tracking NFT ownership\r\n    ERC721 public nonFungibleContract;\r\n\r\n    // Cut owner takes on each auction, measured in basis points (1/100 of a percent).\r\n    // Values 0-10,000 map to 0%-100%\r\n    uint256 public ownerCut;\r\n\r\n    // Map from token ID to their corresponding auction.\r\n    mapping (uint256 => Auction) tokenIdToAuction;\r\n\r\n    event AuctionCreated(uint256 tokenId, uint256 startingPrice, uint256 endingPrice, uint256 duration);\r\n    event AuctionSuccessful(uint256 tokenId, uint256 totalPrice, address winner);\r\n    event AuctionCancelled(uint256 tokenId);\r\n\r\n    // @dev Returns true if the claimant owns the token.\r\n    // @param _claimant - Address caliming to own the token.\r\n    // @param _tokenId - ID of token whose ownership needs to be verified\r\n    function _owns(address _claimant, uint256 _tokenId) internal view returns (bool) {\r\n        return(nonFungibleContract.ownerOf(_tokenId) == _claimant);\r\n    }\r\n\r\n    // @dev Escrows the NFT, assigning ownership to this contract.\r\n    //  Throws if the escrow fails.\r\n    // @param _owner - Current owner address of token to escrow.\r\n    // @param _tokenId - ID of token whose approval to verify\r\n    function _escrow(address _owner, uint256 _tokenId) internal {\r\n        // it will throw if transfer fails\r\n        nonFungibleContract.transferFrom(_owner, this, _tokenId);\r\n    }\r\n\r\n    // @dev Transfers an NFT owned by this contract to another address.\r\n    //  Returns true if the transfer succeeds\r\n    // @param _receiver - Address to transfer NFT to.\r\n    // @param _tokenId - ID of token to transfer.\r\n    function _transfer(address _receiver, uint256 _tokenId) internal {\r\n        // it will throw if transfer fails\r\n        nonFungibleContract.transfer(_receiver, _tokenId);\r\n    }\r\n\r\n    // @dev Adds an auction to the list of open auctions. Also fires the \r\n    //  AuctionCreated event\r\n    // @param _tokenId - The ID of the token to be put on the auctioin.\r\n    // @param _auction - Auction to add.\r\n    function _addAuction(uint256 _tokenId, Auction _auction) internal {\r\n        // Require that all auctions have a duration of\r\n        // at least one minute. (Keeps our math from getting hairy!)\r\n        require(_auction.duration >= 1 minutes);\r\n\r\n        tokenIdToAuction[_tokenId] = _auction;\r\n\r\n        AuctionCreated(\r\n            uint256(_tokenId),\r\n            uint256(_auction.startingPrice),\r\n            uint256(_auction.endingPrice),\r\n            uint256(_auction.duration)\r\n        );\r\n    }\r\n\r\n    // @dev Cancels an auction unconditionally.\r\n    function _cancelAuction(uint256 _tokenId, address _seller) internal {\r\n        _removeAuction(_tokenId);\r\n        _transfer(_seller, _tokenId);\r\n        AuctionCancelled(_tokenId);\r\n    }\r\n\r\n    // @dev Computes the price and transfers winnings.\r\n    // Does NOT transfer ownership of token\r\n    function _bid(uint256 _tokenId, uint256 _bidAmount) internal returns (uint256) {\r\n        // Get a reference to the auction struct\r\n        Auction storage auction = tokenIdToAuction[_tokenId];\r\n\r\n        // Explicitly check that this auction is currently live.\r\n        // (because of how Ethereum mappings work, we can't just count\r\n        // on the lookup above failing. An invalid _tokenId will just\r\n        // return an auction object that is all zeros.)\r\n        require(_isOnAuction(auction));\r\n\r\n        // Check that the bid is greater than or equal to the current price\r\n        uint256 price = _currentPrice(auction);\r\n        require(_bidAmount >= price);\r\n\r\n        // Grab a reference to the seller before the auction struct\r\n        // gets deleted\r\n        address seller = auction.seller;\r\n\r\n        // The bid is good! Remove the auction before sending the fees\r\n        // to the sender so we can't have a reentrancy attack.\r\n        _removeAuction(_tokenId);\r\n\r\n        // Transfer proceeds to seller (if there are any!)\r\n        if (price > 0) {\r\n            // Calculate the auctioneer's cut.\r\n            // (NOTE: _computeCut() is guaranteed to return a\r\n            // value <= price, so this subtraction can't go negative.)\r\n            uint256 auctioneerCut = _computeCut(price);\r\n            uint256 sellerProceeds = price - auctioneerCut;\r\n\r\n            // NOTE: Doing a transfer() in the middle of a complex\r\n            // method like this is generally discouraged because of\r\n            // reentrancy attacks and DoS attacks if the seller is\r\n            // a contract with an invalid fallback function. We explicitly\r\n            // guard aggainst reentrancy attacks by removing the auction\r\n            // before calling transfer(), and the only thing the seller\r\n            // can DoS is the sale of their own asset! (And if it's an\r\n            // accident, they can call cancelAuction().)\r\n            seller.transfer(sellerProceeds);\r\n        }\r\n\r\n        // Calculate any excess funds included with the bid. If the excess\r\n        // is anything worth worrying about, transfer it back to bidder.\r\n        // NOTE: We checked above that the bid amount is greater than or\r\n        // equal to the price so this cannot underflow\r\n        uint256 bidExcess = _bidAmount - price;\r\n\r\n        // Return the funds. Similar to the previous transfer, this is\r\n        // not susceptible to a re-entry attack because the auction is\r\n        // removed before any transfers occur.\r\n        msg.sender.transfer(bidExcess);\r\n\r\n        // Tell the world!\r\n        AuctionSuccessful(_tokenId,price, msg.sender);\r\n\r\n        return price;\r\n    }\r\n\r\n    // @dev Removes an auction from the list of open auctions.\r\n    // @param _tokenId - ID of NFT on auction.\r\n    function _removeAuction(uint256 _tokenId) internal {\r\n        delete tokenIdToAuction[_tokenId];\r\n    }\r\n\r\n    // @dev Returns true if the NFT is on auction.\r\n    // @param _auction - Auction to check.\r\n    function _isOnAuction(Auction storage _auction) internal view returns (bool) {\r\n        return (_auction.startedAt > 0);\r\n    }\r\n\r\n    // @dev Returns current price of an NFT on auction. Broken into two\r\n    //  functions (this one, that computes the duration from the auction\r\n    //  structure, and the other that does the price computation) so we \r\n    //  can easily test that the price computation works correctly.\r\n    function _currentPrice(Auction storage _auction) internal view returns (uint256) {\r\n        uint256 secondsPassed = 0;\r\n\r\n        // A bit of insurance against negative values (or wraparound).\r\n        // Progably not necessary (since Ethereum guarantees that the \r\n        // now variables doesn't ever go backwards).\r\n        if (now > _auction.startedAt) {\r\n            secondsPassed = now - _auction.startedAt;\r\n        }\r\n\r\n        return _computeCurrentPrice(\r\n            _auction.startingPrice,\r\n            _auction.endingPrice,\r\n            _auction.duration,\r\n            secondsPassed\r\n        );\r\n    }\r\n\r\n    // @dev Computes the current price of an auction. Factored out\r\n    //  from _currentPrice so we can run extensive unit tests.\r\n    //  When testing, make this function public and turn on\r\n    //  'Current price computation' test suite.\r\n    function _computeCurrentPrice(\r\n        uint256 _startingPrice,\r\n        uint256 _endingPrice,\r\n        uint256 _duration,\r\n        uint256 _secondsPassed\r\n    )\r\n        internal\r\n        pure\r\n        returns (uint256)\r\n    {\r\n        // NOTE: We don't use SafeMath (or similar) in this function because\r\n        //  all of our public functions carefully cap the maximum values for\r\n        //  time (at 64-bits) and currency (at 128-bits). _duration is\r\n        //  also known to be non-zero (see the require() statement in\r\n        //  _addAuction())\r\n        if (_secondsPassed >= _duration) {\r\n            // We've reached the end of the dynamic pricing portion\r\n            // of the auction, just return the end price.\r\n            return _endingPrice;\r\n        } else {\r\n            // Starting price can be higher than ending price (and often is!), so\r\n            // this delta can be negative.\r\n            int256 totalPriceChange = int256(_endingPrice) - int256(_startingPrice);\r\n\r\n            // This multiplication can't overflow, _secondsPassed will easily fit within\r\n            // 64-bits, and totalPriceChange will easily fit within 128-bits, their product\r\n            // will always fit within 256-bits.\r\n            int256 currentPriceChange = totalPriceChange * int256(_secondsPassed) / int256(_duration);\r\n\r\n            // currentPriceChange can be negative, but if so, will have a magnitude\r\n            // less than _startingPrice. Thus, this result will always end up positive.\r\n            int256 currentPrice = int256(_startingPrice) + currentPriceChange;\r\n\r\n            return uint256(currentPrice);\r\n        }\r\n    }\r\n\r\n    // @dev Computes owner's cut of a sale.\r\n    // #param _price - Sale price of NFT.\r\n    function _computeCut(uint256 _price) internal view returns (uint256) {\r\n        // NOTE: We don't use SafeMath (or similar) in this function because\r\n        //  all of our entry functions carefully cap the maximum values for\r\n        //  currency (at 128-bits), and ownerCut <= 10000 (see the require()\r\n        //  statement in the ClockAuction constructor). The result of this\r\n        //  function is always guaranteed to be <= _price.\r\n        return _price * ownerCut / 10000;\r\n    }\r\n}\r\n\r\ncontract ClockAuction is Pausable, ClockAuctionBase {\r\n    // @dev The ERC-165 interface signature for ERC721.\r\n    //  Ref: https://github.com/ethereum/EIPs/issues/165\r\n    //  Ref: https://github.com/ethereum/EIPs/issues/721\r\n    bytes4 constant InterfaceSignature_ERC721 = bytes4(0x9a20483d);\r\n\r\n    // @dev Constructor creates a reference to the NFT ownership contract\r\n    //  and verifies the owner cut is in the valid range.\r\n    // @param _nftAddress - address of a deployed contract implementing\r\n    //  the Nonfungible Interface\r\n    // @param _cut - percent cut the owner takes on each auction, must be\r\n    //  between 0-10,000.\r\n    function ClockAuction(address _nftAddress, uint256 _cut) public {\r\n        require(_cut <= 10000);\r\n        ownerCut = _cut;\r\n\r\n        ERC721 candidateContract = ERC721(_nftAddress);\r\n        require(candidateContract.supportsInterface(InterfaceSignature_ERC721));\r\n        nonFungibleContract = candidateContract;\r\n    }\r\n\r\n    // @dev Remove all Ether from the contract, which is the owner's cuts\r\n    //  as well as any Ether sent directly to the contract address.\r\n    //  Always transfers to the NFT contract, but can be called either by\r\n    //  the owner or the NFT contract.\r\n    function withdrawBalance() external {\r\n        address nftAddress = address(nonFungibleContract);\r\n\r\n        require(\r\n            msg.sender == owner ||\r\n            msg.sender == nftAddress\r\n        );\r\n        \r\n        nftAddress.transfer(nftAddress.balance);\r\n    }\r\n\r\n    // @dev Creates and begins a new auction.\r\n    // @param _tokenId - ID of token to auction, sender must be owner.\r\n    // @param _startingPrice - Price of iten (in wei) at beginning of auction.\r\n    // @param _endingPrice - Price of item (in wei) at beginning of auction.\r\n    // @param _duration - Length of time to move between starting\r\n    //  price and ending price (in seconds).\r\n    // @param _seller - Seller, if not the message sender\r\n    function createAuction(\r\n        uint256 _tokenId,\r\n        uint256 _startingPrice,\r\n        uint256 _endingPrice,\r\n        uint256 _duration,\r\n        address _seller\r\n    )\r\n    external\r\n    whenNotPaused\r\n    {\r\n        // Sanity check that no inputs overflow how many bits we've allocated\r\n        // to store them in the auction struct.\r\n        require(_startingPrice == uint256(uint128(_startingPrice)));\r\n        require(_endingPrice == uint256(uint128(_endingPrice)));\r\n        require(_duration == uint256(uint64(_duration)));\r\n\r\n        require(_owns(msg.sender, _tokenId));\r\n        _escrow(msg.sender, _tokenId);\r\n        Auction memory auction = Auction(\r\n            _seller,\r\n            uint128(_startingPrice),\r\n            uint128(_endingPrice),\r\n            uint64(_duration),\r\n            uint64(now)\r\n        );\r\n        _addAuction(_tokenId, auction);\r\n    }\r\n\r\n    // @dev Bids on an open auction, completing the auction and transferring\r\n    //  ownership of the NFT if enough Ether is supplied\r\n    // @param _tokenId - ID of token to bid on\r\n    function bid(uint256 _tokenId)\r\n        external\r\n        payable\r\n        whenNotPaused\r\n    {\r\n        // _bid will throw if the bid or funs tranfer fails\r\n        _bid(_tokenId, msg.value);\r\n        _transfer(msg.sender, _tokenId);\r\n    }\r\n\r\n    // @dev Cancels an auction that hasn't been won yet.\r\n    //  Returns the NFT to original owner.\r\n    // @notice This is a state-modifying function that can\r\n    //  be called while the contract is paused.\r\n    // @param _tokenId - ID of token on auction\r\n    function cancelAuction(uint256 _tokenId)\r\n        external\r\n    {\r\n        Auction storage auction = tokenIdToAuction[_tokenId];\r\n        require(_isOnAuction(auction));\r\n        address seller = auction.seller;\r\n        require(msg.sender == seller);\r\n        _cancelAuction(_tokenId, seller);\r\n    }\r\n\r\n    // @dev Cancels an auction when the contract is paused.\r\n    //  Only the owner may do this, and NFTs are returned to\r\n    //  the seller. This should only be used in emergencies.\r\n    // @param _tokenId - ID of the NFT on auction to cancel.\r\n    function cancelAuctionWhenPaused(uint256 _tokenId)\r\n        whenPaused\r\n        onlyOwner\r\n        external\r\n    {\r\n        Auction storage auction = tokenIdToAuction[_tokenId];\r\n        require(_isOnAuction(auction));\r\n        _cancelAuction(_tokenId, auction.seller);\r\n    }\r\n\r\n    // @dev Returns auction info for an NFT on auction.\r\n    // @param _tokenId - ID of NFT on auction.\r\n    function getAuction(uint256 _tokenId)\r\n        external\r\n        view\r\n        returns\r\n    (\r\n        address seller,\r\n        uint256 startingPrice,\r\n        uint256 endingPrice,\r\n        uint256 duration,\r\n        uint256 startedAt\r\n    ) {\r\n        Auction storage auction = tokenIdToAuction[_tokenId];\r\n        require(_isOnAuction(auction));\r\n        return (\r\n            auction.seller,\r\n            auction.startingPrice,\r\n            auction.endingPrice,\r\n            auction.duration,\r\n            auction.startedAt\r\n        );\r\n    }\r\n\r\n    // @dev Returns the current price of an auction.\r\n    // @param _tokenId - ID of the token price we are checking.\r\n    function getCurrentPrice(uint256 _tokenId)\r\n        external\r\n        view\r\n        returns (uint256)\r\n    {\r\n        Auction storage auction = tokenIdToAuction[_tokenId];\r\n        require(_isOnAuction(auction));\r\n        return _currentPrice(auction);\r\n    }\r\n}\r\n\r\ncontract SaleClockAuction is ClockAuction {\r\n\r\n    // @dev Sanity check that allows us to ensure that we are pointing to the\r\n    //  right auction in our setSaleAuctionAddress() call.\r\n    bool public isSaleClockAuction = true;\r\n\r\n    // Tracks last 5 sale price of gen0 cards\r\n    uint256 public gen0SaleCount;\r\n    uint256[5] public lastGen0SalePrices;\r\n\r\n    // Delegate constructor\r\n    function SaleClockAuction(address _nftAddr, uint256 _cut) public\r\n        ClockAuction(_nftAddr, _cut) {}\r\n\r\n    // @dev Creates and begins a new auction.\r\n    // @param _tokenId - ID of token to auction, sender must be owner.\r\n    // @param _startingPrice - Price of item (in wei) at beginning of auction.\r\n    // @param _endingPrice - Price of item (in wei) at end of auction.\r\n    // @param _duration - Length of auction (in seconds).\r\n    // @param _seller - Seller, if not the message sender\r\n    function createAuction(\r\n        uint256 _tokenId,\r\n        uint256 _startingPrice,\r\n        uint256 _endingPrice,\r\n        uint256 _duration,\r\n        address _seller\r\n    )\r\n        external\r\n    {\r\n        // Sanity check that no inputs overflow how many bits we've allocated\r\n        // to store them in the auction struct.\r\n        require(_startingPrice == uint256(uint128(_startingPrice)));\r\n        require(_endingPrice == uint256(uint128(_endingPrice)));\r\n        require(_duration == uint256(uint64(_duration)));\r\n\r\n        require(msg.sender == address(nonFungibleContract));\r\n        _escrow(_seller, _tokenId);\r\n        Auction memory auction = Auction(\r\n            _seller,\r\n            uint128(_startingPrice),\r\n            uint128(_endingPrice),\r\n            uint64(_duration),\r\n            uint64(now)\r\n        );\r\n        _addAuction(_tokenId, auction);\r\n    }\r\n\r\n    // @dev Updates lastSalePrice if seller is the nft contract\r\n    // Otherwise, works the same as default bid method.\r\n    function bid(uint256 _tokenId)\r\n        external\r\n        payable\r\n    {\r\n        // _bid verifies token ID size\r\n        address seller = tokenIdToAuction[_tokenId].seller;\r\n        uint256 price = _bid(_tokenId, 5 ether);\r\n        _transfer(msg.sender, _tokenId);\r\n\r\n        // If not a gen0 auction, exit\r\n        if (seller == address(nonFungibleContract)) {\r\n            // Track gen0 sale prices\r\n            lastGen0SalePrices[gen0SaleCount % 5] = price;\r\n            gen0SaleCount++;\r\n        }\r\n    }\r\n\r\n    function averageGen0SalePrice() external view returns (uint256) {\r\n        uint256 sum = 0;\r\n        for (uint256 i = 0; i < 5; i++) {\r\n            sum += lastGen0SalePrices[i];\r\n        }\r\n        return sum / 5;\r\n    }\r\n}\r\n\r\ncontract AccessControl {\r\n    /// @dev The addresses of the accounts (or contracts) that can execute actions within each roles\r\n    address public ceoAddress;\r\n    address public cooAddress;\r\n\r\n    /// @dev Keeps track whether the contract is paused. When that is true, most actions are blocked\r\n    bool public paused = false;\r\n\r\n    /// @dev Access modifier for CEO-only functionality\r\n    modifier onlyCEO() {\r\n        require(msg.sender == ceoAddress);\r\n        _;\r\n    }\r\n\r\n    /// @dev Access modifier for COO-only functionality\r\n    modifier onlyCOO() {\r\n        require(msg.sender == cooAddress);\r\n        _;\r\n    }\r\n\r\n    /// @dev Access modifier for any CLevel functionality\r\n    modifier onlyCLevel() {\r\n        require(msg.sender == ceoAddress || msg.sender == cooAddress);\r\n        _;\r\n    }\r\n\r\n    /// @dev Assigns a new address to act as the CEO. Only available to the current CEO\r\n    /// @param _newCEO The address of the new CEO\r\n    function setCEO(address _newCEO) public onlyCEO {\r\n        require(_newCEO != address(0));\r\n        ceoAddress = _newCEO;\r\n    }\r\n\r\n    /// @dev Assigns a new address to act as the COO. Only available to the current CEO\r\n    /// @param _newCOO The address of the new COO\r\n    function setCOO(address _newCOO) public onlyCEO {\r\n        require(_newCOO != address(0));\r\n        cooAddress = _newCOO;\r\n    }\r\n\r\n    /// @dev Modifier to allow actions only when the contract IS NOT paused\r\n    modifier whenNotPaused() {\r\n        require(!paused);\r\n        _;\r\n    }\r\n\r\n    /// @dev Modifier to allow actions only when the contract IS paused\r\n    modifier whenPaused {\r\n        require(paused);\r\n        _;\r\n    }\r\n\r\n    /// @dev Pause the smart contract. Only can be called by the CEO\r\n    function pause() public onlyCEO whenNotPaused {\r\n        paused = true;\r\n    }\r\n\r\n    /// @dev Unpauses the smart contract. Only can be called by the CEO\r\n    function unpause() public onlyCEO whenPaused {\r\n        paused = false;\r\n    }\r\n}\r\n\r\ncontract CryptoCardsBase is AccessControl {\r\n\r\n    /*** EVENTS ***/\r\n\r\n    // @dev The spawn event is fired whenever a new card is minted\r\n    event Spawn(address owner, uint256 tokenId, uint128 skills);\r\n\r\n    // @dev Transfer event as defined in current draft of ERC721. Emitted evry time a \r\n    //  card ownership is assigned, including minting\r\n    event Transfer(address from, address to, uint256 tokenId);\r\n\r\n    /*** DATA TYPES ***/\r\n\r\n    // @dev The main Card struct. Every card in CryptoCards is represented by a copy\r\n    //  of this structure.\r\n    // WORK IN PROGRESS\r\n    struct Card {\r\n        // @dev Placeholder/potentially valid variable to store relvant card info\r\n        uint128 skills;\r\n    }\r\n\r\n    /*** CONSTANTS ***/\r\n    // -- Don't have any of these yet -- //\r\n\r\n    /*** STORAGE ***/\r\n\r\n    // @dev An array containing the Card struct for cards in existence. The ID\r\n    //  of each card is an index into this array. \r\n    Card[] cards;\r\n\r\n    // @dev A mapping from card IDs to the address that owns them. All cards have\r\n    //  some valid owner address.\r\n    mapping (uint256 => address) public cardIndexToOwner;\r\n\r\n    // @dev A mapping from owner address to count of tokens that address owns.\r\n    //  Used internally inside balanceOf() to resolve ownership count.\r\n    mapping (address => uint256) ownershipTokenCount;\r\n\r\n    // @dev A mapping from card IDs to an address that has been approved to call\r\n    //  transferFrom(). Each card can only have one approved address for transfer\r\n    //  at any time. A zero value means no approval is outstanding.\r\n    mapping (uint256 => address) public cardIndexToApproved;\r\n\r\n    // @dev The addrress of a custom ClockAuction that handles sales of Cards. This\r\n    //  will handle peer-to-peer sales as well as the gen0 sales\r\n    SaleClockAuction public saleAuction;\r\n\r\n    // @dev Assigns ownership of a specific Card to an address\r\n    function _transfer(address _from, address _to, uint256 _tokenId) internal {\r\n        // Increase ownershipTokenCount of address receiving card\r\n        ownershipTokenCount[_to]++;\r\n        // Transfer ownership.\r\n        cardIndexToOwner[_tokenId] = _to;\r\n        // Additional accounting. Newly minted cards 'from' address would be zero\r\n        // so check for that first\r\n        if (_from != address(0)) {\r\n            ownershipTokenCount[_from]--;\r\n        }\r\n        // Emit the transfer event.\r\n        Transfer(_from, _to, _tokenId);\r\n    }\r\n\r\n    // @dev An internal method that creates a new card and stores it. This\r\n    //   method doesn't do any checking and should only be called when the\r\n    //   input data is known to be valid. Will generate a Spawn event \r\n    //   and a Transfer event.\r\n    // @param _skills contains crucial info about card\r\n    // @param _owner The initial owner of this card, must be nonzero\r\n    function _createCard(uint128 _skills, address _owner) internal returns(uint256) {\r\n        Card memory _card = Card({\r\n            skills: _skills\r\n        });\r\n        uint256 newCardId = cards.push(_card) - 1;\r\n\r\n        // emit the Spawn event\r\n        Spawn(_owner, newCardId, _card.skills);\r\n\r\n        // This will assign ownership, and also emit the Transfer event as \r\n        // per ERC721 draft\r\n        _transfer(0, _owner, newCardId);\r\n\r\n        return newCardId;\r\n    }\r\n}\r\n\r\ncontract CardOwnership is CryptoCardsBase, ERC721 {\r\n\r\n    // @notice Name and symbol of the non fungible token, as defined in ERC721\r\n    string public constant name = \"CryptoCards\";\r\n    string public constant symbol = \"CC\";\r\n\r\n    /*** POTENTIAL METADATA & INTERFACE STUFF ***/\r\n    \r\n    bytes4 constant InterfaceSignature_ERC165 = \r\n        bytes4(keccak256('supportsInterface(bytes4)'));\r\n\r\n     bytes4 constant InterfaceSignature_ERC721 =\r\n        bytes4(keccak256('name()')) ^\r\n        bytes4(keccak256('symbol()')) ^\r\n        bytes4(keccak256('totalSupply()')) ^\r\n        bytes4(keccak256('balanceOf(address)')) ^\r\n        bytes4(keccak256('ownerOf(uint256)')) ^\r\n        bytes4(keccak256('approve(address,uint256)')) ^\r\n        bytes4(keccak256('transfer(address,uint256)')) ^\r\n        bytes4(keccak256('transferFrom(address,address,uint256)')) ^\r\n        bytes4(keccak256('tokensOfOwner(address)')) ^\r\n        bytes4(keccak256('tokenMetadata(uint256,string)'));\r\n\r\n    // @notice Introspection interface as per ERC-165 (https://github.com/ethereum/EIPs/issues/165).\r\n    //  Returns true for any standardized interfaces implemented by this contract. We implement\r\n    //  ERC-165 (obviously!) and ERC-721.\r\n    function supportsInterface(bytes4 _interfaceID) external view returns (bool) {\r\n        // DEBUG ONLY\r\n        //require((InterfaceSignature_ERC165 == 0x01ffc9a7) && (InterfaceSignature_ERC721 == 0x9a20483d));\r\n\r\n        return ((_interfaceID == InterfaceSignature_ERC165) || (_interfaceID == InterfaceSignature_ERC721));\r\n    }\r\n\r\n    /*** INTERNAL UTILITY FUNCTIONS ***/\r\n    // These functions assume that their input arguments are valid.\r\n    // Leaving it to public methods to sanitize inputs\r\n\r\n    // @dev Checks if a given address is the current owner of a particular Card\r\n    // @param _claimant the address we are validating against\r\n    // @param _tokenId card id, only valid when > 0\r\n    function _owns(address _claimant, uint256 _tokenId) internal view returns (bool) {\r\n        return cardIndexToOwner[_tokenId] == _claimant;\r\n    }\r\n\r\n    // @dev Checks if a given address currently has transferApproval for a pareticular Card.\r\n    // @param _claimant the address we are confirming the kitten is approved for.\r\n    // @param _tokenId Card ID, only valid when > 0\r\n    function _approvedFor(address _claimant, uint256 _tokenId) internal view returns (bool) {\r\n        return cardIndexToApproved[_tokenId] == _claimant;\r\n    }\r\n\r\n    // @dev Marks an address as being approved for transferFrom(), overwriting any previous\r\n    //  approval. Setting _approved to address (0) clears all transfer approval.\r\n    //  NOTE: _approve() does NOT send the Approval event. This is intentional because\r\n    //  _approve() and transferFrom() are used together for putting Cards on auction, and\r\n    //  there is no value in spamming the log with Approval events in that case\r\n    function _approve(uint256 _tokenId, address _approved) internal {\r\n        cardIndexToApproved[_tokenId] = _approved;\r\n    }\r\n\r\n    // @notice Returns the number of Cards owned by a specific address.\r\n    // @param _owner the owner address to check.\r\n    // @dev Required for ERC721 compliance\r\n    function balanceOf(address _owner) public view returns (uint256 count) {\r\n        return ownershipTokenCount[_owner];\r\n    }\r\n\r\n    // @notice Transfers a Card to another address. If transferring to a smart \r\n    //  contract be VERY CAREFUL to ensure that it is are of ERC721 (or\r\n    //  CryptoCards specifically) or your Card may be lost forever. Fo Rlz.\r\n    // @param _to The address of the recipient\r\n    // @param _tokenId The ID of the Card to transfer\r\n    // @dev Required for ERC721 compliance\r\n    function transfer(address _to, uint256 _tokenId) external whenNotPaused {\r\n        // Safety check to prevent against an unexpected 0x0 default\r\n        require(_to != address(0));\r\n        // Disallow transfers to this contract to prevent accidental misuse.\r\n        // The contract should never own any Cards (except very briefly\r\n        // after a gen0 Card is created and before it goes on auction).\r\n        require(_to != address(this));\r\n        // Disallow transfers to the auction contracts to prevent accidental\r\n        // misuse. Auction contracts should only take ownership of kitties\r\n        // through the allow + transferFrom flow.\r\n        require(_to != address(saleAuction));\r\n\r\n        // You can only send your own Card\r\n        require(_owns(msg.sender, _tokenId));\r\n\r\n        // Reassign ownership, clear pending approvals, emit Transfer event\r\n        _transfer(msg.sender, _to, _tokenId);\r\n    }\r\n\r\n    // @notice Grant another address the right to transfer a specific Card via\r\n    //  transferFrom(). This is the preferred flow for transferring NFTs to contracts.\r\n    // @param _to The address to be granted transfer approval. Pass address(0) to\r\n    //  clear all approvals.\r\n    // @param _tokenId The ID of the Card that can be transferred if this call succeeds.\r\n    // @dev Required for ERC721 compliance\r\n    function approve(address _to, uint256 _tokenId) external whenNotPaused {\r\n        // Only an owner can grant transfer approval.\r\n        require(_owns(msg.sender, _tokenId));\r\n\r\n        // Register the approval (replacing any previous approval).\r\n        _approve(_tokenId, _to);\r\n\r\n        // Emit approval event.\r\n        Approval(msg.sender, _to, _tokenId);\r\n    }\r\n\r\n    // @notice Transfer a Card owned by another address, for which the calling address\r\n    //  has previously been granted transfer approval by the owner.\r\n    // @param _from The address that owns the Card to be transferred.\r\n    // @param _to The address that should take ownershuip of the Card. Can be any address,\r\n    //  including the caller.\r\n    // @param _tokenId The ID of the Card to be transferred.\r\n    // @dev Required for ERC721 compliance.\r\n    function transferFrom(address _from, address _to, uint256 _tokenId) external whenNotPaused {\r\n        // Safety check to prevent against an unexpected 0x0 default.\r\n        require(_to != address(0));\r\n        // Disallow transfers to this contract to prevent accidental misuse.\r\n        // The contract should never own any Cards (except very briefly\r\n        // after a gen0 card is created and before it goes on auction).\r\n        require(_to != address(this));\r\n        // Check for approval and valid ownership\r\n        require(_approvedFor(msg.sender, _tokenId));\r\n        require(_owns(_from, _tokenId));\r\n\r\n        // Reassign ownership (also clears pending approvals and emits Transfer event).\r\n        _transfer(_from, _to, _tokenId);\r\n    }\r\n\r\n    // @notice Returns the total number of Cards currently in existence.\r\n    // @dev Required for ERC721 compliance.\r\n    function totalSupply() public view returns (uint) {\r\n        return cards.length;\r\n    }\r\n\r\n    // @notice Returns the address currently assigned ownership of a given Card.\r\n    // @dev Required for ERC721 compliance.\r\n    function ownerOf(uint256 _tokenId) external view returns (address owner) {\r\n        owner = cardIndexToOwner[_tokenId];\r\n\r\n        require(owner != address(0));\r\n    }\r\n\r\n    // @notice Returns a list of all Card IDs assigned to an address.\r\n    // @param _owner The owner whose Cards we are interested in.\r\n    // @dev This method MUST NEVER be called by smart contract code. First, it's fairly\r\n    //  expensive (it walks the intire Card array looking for Cards belonging to owner),\r\n    //  but it also returns a dynamic array, which is only supported for web3 calls, and\r\n    //  not contract-to-contract calls.\r\n    function tokensOfOwner(address _owner) external view returns (uint256[] ownerTokens) {\r\n        uint256 tokenCount = balanceOf(_owner);\r\n\r\n        if (tokenCount == 0) {\r\n            // Return an empty array\r\n            return new uint256[](0);\r\n        } else {\r\n            uint256[] memory result = new uint256[](tokenCount);\r\n            uint256 totalCards = totalSupply();\r\n            uint256 resultIndex = 0;\r\n\r\n            // We count on the fact that all cats have IDs starting at 1 and increasing\r\n            // sequentially up to the totalCard count\r\n            uint256 cardId;\r\n\r\n            for (cardId = 0; cardId <= totalCards; cardId++) {\r\n                if (cardIndexToOwner[cardId] == _owner) {\r\n                    result[resultIndex] = cardId;\r\n                    resultIndex++;\r\n                }\r\n            }\r\n            return result;\r\n        }\r\n    }\r\n\r\n    // @dev Adapted from memcpy() by @arachnid (Nick Johnson <arachnid@notdot.net>)\r\n    //  This method is licenced under the Apache License.\r\n    //  Ref: https://github.com/Arachnid/solidity-stringutils/blob/2f6ca9accb48ae14c66f1437ec50ed19a0616f78/strings.sol\r\n    function _memcpy(uint _dest, uint _src, uint _len) private view {\r\n        // Copy word-length chuncks while possible\r\n        for(; _len >= 32; _len -= 32) {\r\n            assembly {\r\n                mstore(_dest, mload(_src))\r\n            }\r\n            _dest += 32;\r\n            _src += 32;\r\n        }\r\n\r\n        // Copy remaining bytes\r\n        uint256 mask = 256 ** (32 - _len) - 1;\r\n        assembly {\r\n            let srcpart := and(mload(_src), not(mask))\r\n            let destpart := and(mload(_dest), mask)\r\n            mstore(_dest, or(destpart, srcpart))\r\n        }\r\n    }\r\n\r\n    // @dev Adapted from toString(slice) by @arachnid (Nick Johnson <arachnid@notdot.net>)\r\n    //  This method is licensed under the Apache License.\r\n    //  Ref: https://github.com/Arachnid/solidity-stringutils/blob/2f6ca9accb48ae14c66f1437ec50ed19a0616f78/strings.sol\r\n    function _toString(bytes[4] _rawBytes, uint256 _stringLength) private view returns (string) {\r\n        var outputString = new string(_stringLength);\r\n        uint256 outputPtr;\r\n        uint256 bytesPtr;\r\n\r\n        assembly {\r\n            outputPtr := add(outputString, 32)\r\n            bytesPtr := _rawBytes\r\n        }\r\n\r\n        _memcpy(outputPtr, bytesPtr, _stringLength);\r\n\r\n        return outputString;\r\n    }\r\n}\r\n\r\ncontract CardAuction is CardOwnership {\r\n    // @notice The auction contract variables are defined in CryptoCardsBase to allow\r\n    //  us to refer to them in CardOwnership to prevent accidental transfers.\r\n    \r\n    // @dev Sets the reference to the sale auction.\r\n    // @param _address - Address of sale contract.\r\n    function setSaleAuctionAddress(address _address) external onlyCEO {\r\n        SaleClockAuction candidateContract = SaleClockAuction(_address);\r\n\r\n        // NOTE: Verify that a contract is what we expect\r\n        require(candidateContract.isSaleClockAuction());\r\n\r\n        // Set the new contract address\r\n        saleAuction = candidateContract;\r\n    }\r\n\r\n    // @dev Put a kitty up for auction.\r\n    //  Does some ownership trickery to create auctions in one tx.\r\n    function createSaleAuction(\r\n        uint256 _cardId,\r\n        uint256 _startingPrice,\r\n        uint256 _endingPrice,\r\n        uint256 _duration\r\n    )\r\n        external\r\n        whenNotPaused\r\n    {\r\n        // Auction contract checks input sizes\r\n        // If card is already on any auction, this will throw\r\n        // becuase it will be owned by the auction contract.\r\n        require(_owns(msg.sender, _cardId));\r\n        _approve(_cardId, saleAuction);\r\n        // Sale auction throws if inputs are invalid and clears\r\n        // transfer approval after escrowing the card\r\n        saleAuction.createAuction(\r\n            _cardId,\r\n            _startingPrice,\r\n            _endingPrice,\r\n            _duration,\r\n            msg.sender\r\n        );\r\n    }\r\n}\r\n\r\ncontract CardMinting is CardAuction {\r\n\r\n    // Constants for gen0 auctions.\r\n    uint256 public constant GEN0_STARTING_PRICE = 10 finney;\r\n    uint256 public constant GEN0_AUCTION_DURATION = 1 days;\r\n\r\n    // Counts the number of cards the contract owner has created.\r\n    uint256 public gen0CreatedCount;\r\n\r\n    // @dev Creates a new gen0 card with the given skills and\r\n    //  creates an auction for it.\r\n    function createGen0Auction(uint128 _skills) external onlyCLevel {\r\n        uint256 cardId = _createCard(_skills, address(this));\r\n        _approve(cardId, saleAuction);\r\n\r\n        saleAuction.createAuction(\r\n            cardId,\r\n            5,\r\n            0,\r\n            GEN0_AUCTION_DURATION,\r\n            address(this)\r\n        );\r\n\r\n        gen0CreatedCount++;\r\n    }\r\n\r\n    // @dev Computes the next gen0 auction starting price, given\r\n    //  the average of the past 5 prices + 50%\r\n    function _computeNextGen0Price() internal view returns (uint256) {\r\n        uint256 avePrice = saleAuction.averageGen0SalePrice();\r\n\r\n        // Sanity check to ensure we don't overflow arithmetic\r\n        require(avePrice == uint256(uint128(avePrice)));\r\n\r\n        uint256 nextPrice = avePrice + (avePrice / 2);\r\n\r\n        // We never auction for less than starting price\r\n        if (nextPrice < GEN0_STARTING_PRICE) {\r\n            nextPrice = GEN0_STARTING_PRICE;\r\n        }\r\n\r\n        return nextPrice;\r\n    }\r\n}\r\n\r\ncontract CryptoCardsCore is CardMinting {\r\n    \r\n    // Set in case the core contract is broken and an upgrade is required\r\n    address public newContractAddress;\r\n\r\n    // @notice Creates the main CryptoKitties smart contract instance.\r\n    function CryptoCardsCore() public payable {\r\n        // Starts paused.\r\n        paused = false;\r\n\r\n        // the creator of the contract is the initial CEO\r\n        ceoAddress = msg.sender;\r\n\r\n        // the creator of the contract is also the intial COO\r\n        cooAddress = msg.sender;\r\n    }\r\n\r\n\r\n    // @notice No tipping!\r\n    // @dev Reject all Ether from being sent here, unless it's from one of the\r\n    //  two auction contracts. (Hopefully, we can prevent user accidents.)\r\n    function() external payable {\r\n        require(\r\n            msg.sender == address(saleAuction)\r\n        );\r\n    }\r\n\r\n    // @notice Returns all the relevant info about a specific card.\r\n    // @param _id The ID of the card of interest.\r\n    function getCard(uint256 _id) external view returns (uint128 skills) {\r\n        Card storage card = cards[_id];\r\n\r\n        skills = card.skills;\r\n    }\r\n\r\n    // @dev Override unpause so it requires all external contract addresses\r\n    //  to be set before contract can be unpaused. Also, we can't have\r\n    //  newContractAddress set either, because then the contract was upgraded.\r\n    // @notice This is public rather than external so we can call super.unpause\r\n    //  without using an expensive CALL.\r\n    function unpause() public onlyCEO whenPaused {\r\n        require(saleAuction != address(0));\r\n        require(newContractAddress == address(0));\r\n\r\n        // Actually unpause the contract.\r\n        super.unpause();        \r\n    }\r\n\r\n    // @dev Allows the CEO to capture the balance available to the contract.\r\n    function withdrawBalance() external onlyCEO {\r\n        uint256 balance = this.balance;\r\n\r\n        ceoAddress.transfer(balance);\r\n    }\r\n}",
  "sourcePath": "C:\\Users\\Lan\\CryptoCards\\contracts\\CryptoCardsCore.sol",
  "compiler": {
    "name": "solc",
    "version": "0.4.19+commit.c4cbbb05.Emscripten.clang"
  },
  "schemaVersion": "1.0.1",
  "updatedAt": "2018-04-15T03:13:30.758Z"
}