{
  "contractName": "CryptoCardsBase",
  "abi": [
    {
      "constant": true,
      "inputs": [],
      "name": "ceoAddress",
      "outputs": [
        {
          "name": "",
          "type": "address"
        }
      ],
      "payable": false,
      "stateMutability": "view",
      "type": "function"
    },
    {
      "constant": false,
      "inputs": [
        {
          "name": "_newCEO",
          "type": "address"
        }
      ],
      "name": "setCEO",
      "outputs": [],
      "payable": false,
      "stateMutability": "nonpayable",
      "type": "function"
    },
    {
      "constant": false,
      "inputs": [
        {
          "name": "_newCOO",
          "type": "address"
        }
      ],
      "name": "setCOO",
      "outputs": [],
      "payable": false,
      "stateMutability": "nonpayable",
      "type": "function"
    },
    {
      "constant": true,
      "inputs": [
        {
          "name": "",
          "type": "uint256"
        }
      ],
      "name": "cardIndexToApproved",
      "outputs": [
        {
          "name": "",
          "type": "address"
        }
      ],
      "payable": false,
      "stateMutability": "view",
      "type": "function"
    },
    {
      "constant": false,
      "inputs": [],
      "name": "unpause",
      "outputs": [],
      "payable": false,
      "stateMutability": "nonpayable",
      "type": "function"
    },
    {
      "constant": true,
      "inputs": [],
      "name": "paused",
      "outputs": [
        {
          "name": "",
          "type": "bool"
        }
      ],
      "payable": false,
      "stateMutability": "view",
      "type": "function"
    },
    {
      "constant": true,
      "inputs": [
        {
          "name": "",
          "type": "uint256"
        }
      ],
      "name": "cardIndexToOwner",
      "outputs": [
        {
          "name": "",
          "type": "address"
        }
      ],
      "payable": false,
      "stateMutability": "view",
      "type": "function"
    },
    {
      "constant": false,
      "inputs": [],
      "name": "pause",
      "outputs": [],
      "payable": false,
      "stateMutability": "nonpayable",
      "type": "function"
    },
    {
      "constant": true,
      "inputs": [],
      "name": "cooAddress",
      "outputs": [
        {
          "name": "",
          "type": "address"
        }
      ],
      "payable": false,
      "stateMutability": "view",
      "type": "function"
    },
    {
      "constant": true,
      "inputs": [],
      "name": "saleAuction",
      "outputs": [
        {
          "name": "",
          "type": "address"
        }
      ],
      "payable": false,
      "stateMutability": "view",
      "type": "function"
    },
    {
      "anonymous": false,
      "inputs": [
        {
          "indexed": false,
          "name": "owner",
          "type": "address"
        },
        {
          "indexed": false,
          "name": "tokenId",
          "type": "uint256"
        },
        {
          "indexed": false,
          "name": "skills",
          "type": "uint128"
        }
      ],
      "name": "Spawn",
      "type": "event"
    },
    {
      "anonymous": false,
      "inputs": [
        {
          "indexed": false,
          "name": "from",
          "type": "address"
        },
        {
          "indexed": false,
          "name": "to",
          "type": "address"
        },
        {
          "indexed": false,
          "name": "tokenId",
          "type": "uint256"
        }
      ],
      "name": "Transfer",
      "type": "event"
    }
  ],
  "bytecode": "0x60606040526000600160146101000a81548160ff021916908315150217905550341561002a57600080fd5b610728806100396000396000f3006060604052600436106100a4576000357c0100000000000000000000000000000000000000000000000000000000900463ffffffff1680630a0f8168146100a957806327d7874c146100fe5780632ba73c1514610137578063394baa0b146101705780633f4ba83a146101d35780635c975abb146101e857806378d0df50146102155780638456cb5914610278578063b047fb501461028d578063e6cbe351146102e2575b600080fd5b34156100b457600080fd5b6100bc610337565b604051808273ffffffffffffffffffffffffffffffffffffffff1673ffffffffffffffffffffffffffffffffffffffff16815260200191505060405180910390f35b341561010957600080fd5b610135600480803573ffffffffffffffffffffffffffffffffffffffff1690602001909190505061035c565b005b341561014257600080fd5b61016e600480803573ffffffffffffffffffffffffffffffffffffffff16906020019091905050610436565b005b341561017b57600080fd5b6101916004808035906020019091905050610511565b604051808273ffffffffffffffffffffffffffffffffffffffff1673ffffffffffffffffffffffffffffffffffffffff16815260200191505060405180910390f35b34156101de57600080fd5b6101e6610544565b005b34156101f357600080fd5b6101fb6105d7565b604051808215151515815260200191505060405180910390f35b341561022057600080fd5b61023660048080359060200190919050506105ea565b604051808273ffffffffffffffffffffffffffffffffffffffff1673ffffffffffffffffffffffffffffffffffffffff16815260200191505060405180910390f35b341561028357600080fd5b61028b61061d565b005b341561029857600080fd5b6102a06106b0565b604051808273ffffffffffffffffffffffffffffffffffffffff1673ffffffffffffffffffffffffffffffffffffffff16815260200191505060405180910390f35b34156102ed57600080fd5b6102f56106d6565b604051808273ffffffffffffffffffffffffffffffffffffffff1673ffffffffffffffffffffffffffffffffffffffff16815260200191505060405180910390f35b6000809054906101000a900473ffffffffffffffffffffffffffffffffffffffff1681565b6000809054906101000a900473ffffffffffffffffffffffffffffffffffffffff1673ffffffffffffffffffffffffffffffffffffffff163373ffffffffffffffffffffffffffffffffffffffff161415156103b757600080fd5b600073ffffffffffffffffffffffffffffffffffffffff168173ffffffffffffffffffffffffffffffffffffffff16141515156103f357600080fd5b806000806101000a81548173ffffffffffffffffffffffffffffffffffffffff021916908373ffffffffffffffffffffffffffffffffffffffff16021790555050565b6000809054906101000a900473ffffffffffffffffffffffffffffffffffffffff1673ffffffffffffffffffffffffffffffffffffffff163373ffffffffffffffffffffffffffffffffffffffff1614151561049157600080fd5b600073ffffffffffffffffffffffffffffffffffffffff168173ffffffffffffffffffffffffffffffffffffffff16141515156104cd57600080fd5b80600160006101000a81548173ffffffffffffffffffffffffffffffffffffffff021916908373ffffffffffffffffffffffffffffffffffffffff16021790555050565b60056020528060005260406000206000915054906101000a900473ffffffffffffffffffffffffffffffffffffffff1681565b6000809054906101000a900473ffffffffffffffffffffffffffffffffffffffff1673ffffffffffffffffffffffffffffffffffffffff163373ffffffffffffffffffffffffffffffffffffffff1614151561059f57600080fd5b600160149054906101000a900460ff1615156105ba57600080fd5b6000600160146101000a81548160ff021916908315150217905550565b600160149054906101000a900460ff1681565b60036020528060005260406000206000915054906101000a900473ffffffffffffffffffffffffffffffffffffffff1681565b6000809054906101000a900473ffffffffffffffffffffffffffffffffffffffff1673ffffffffffffffffffffffffffffffffffffffff163373ffffffffffffffffffffffffffffffffffffffff1614151561067857600080fd5b600160149054906101000a900460ff1615151561069457600080fd5b60018060146101000a81548160ff021916908315150217905550565b600160009054906101000a900473ffffffffffffffffffffffffffffffffffffffff1681565b600660009054906101000a900473ffffffffffffffffffffffffffffffffffffffff16815600a165627a7a72305820188c6abba8cc3cb84190084cf7b5b8ae832e109bea4a504c8dd1658b9db494ae0029",
  "source": "pragma solidity ^0.4.18;\r\n\r\nimport \"./AccessControl.sol\";\r\nimport \"./SaleClockAuction.sol\";\r\n\r\ncontract CryptoCardsBase is AccessControl {\r\n\r\n    /*** EVENTS ***/\r\n\r\n    // @dev The spawn event is fired whenever a new card is minted\r\n    event Spawn(address owner, uint256 tokenId, uint128 skills);\r\n\r\n    // @dev Transfer event as defined in current draft of ERC721. Emitted evry time a \r\n    //  card ownership is assigned, including minting\r\n    event Transfer(address from, address to, uint256 tokenId);\r\n\r\n    /*** DATA TYPES ***/\r\n\r\n    // @dev The main Card struct. Every card in CryptoCards is represented by a copy\r\n    //  of this structure.\r\n    // WORK IN PROGRESS\r\n    struct Card {\r\n        // @dev Placeholder/potentially valid variable to store relvant card info\r\n        uint128 skills;\r\n    }\r\n\r\n    /*** CONSTANTS ***/\r\n    // -- Don't have any of these yet -- //\r\n\r\n    /*** STORAGE ***/\r\n\r\n    // @dev An array containing the Card struct for cards in existence. The ID\r\n    //  of each card is an index into this array. \r\n    Card[] cards;\r\n\r\n    // @dev A mapping from card IDs to the address that owns them. All cards have\r\n    //  some valid owner address.\r\n    mapping (uint256 => address) public cardIndexToOwner;\r\n\r\n    // @dev A mapping from owner address to count of tokens that address owns.\r\n    //  Used internally inside balanceOf() to resolve ownership count.\r\n    mapping (address => uint256) ownershipTokenCount;\r\n\r\n    // @dev A mapping from card IDs to an address that has been approved to call\r\n    //  transferFrom(). Each card can only have one approved address for transfer\r\n    //  at any time. A zero value means no approval is outstanding.\r\n    mapping (uint256 => address) public cardIndexToApproved;\r\n\r\n    // @dev The addrress of a custom ClockAuction that handles sales of Cards. This\r\n    //  will handle peer-to-peer sales as well as the gen0 sales\r\n    SaleClockAuction public saleAuction;\r\n\r\n    // @dev Assigns ownership of a specific Card to an address\r\n    function _transfer(address _from, address _to, uint256 _tokenId) internal {\r\n        // Increase ownershipTokenCount of address receiving card\r\n        ownershipTokenCount[_to]++;\r\n        // Transfer ownership.\r\n        cardIndexToOwner[_tokenId] = _to;\r\n        // Additional accounting. Newly minted cards 'from' address would be zero\r\n        // so check for that first\r\n        if (_from != address(0)) {\r\n            ownershipTokenCount[_from]--;\r\n        }\r\n        // Emit the transfer event.\r\n        Transfer(_from, _to, _tokenId);\r\n    }\r\n\r\n    // @dev An internal method that creates a new card and stores it. This\r\n    //   method doesn't do any checking and should only be called when the\r\n    //   input data is known to be valid. Will generate a Spawn event \r\n    //   and a Transfer event.\r\n    // @param _skills contains crucial info about card\r\n    // @param _owner The initial owner of this card, must be nonzero\r\n    function _createCard(uint128 _skills, address _owner) internal returns(uint256) {\r\n        Card memory _card = Card({\r\n            skills: _skills\r\n        });\r\n        uint256 newCardId = cards.push(_card) - 1;\r\n\r\n        // emit the Spawn event\r\n        Spawn(_owner, newCardId, _card.skills);\r\n\r\n        // This will assign ownership, and also emit the Transfer event as \r\n        // per ERC721 draft\r\n        _transfer(0, _owner, newCardId);\r\n\r\n        return newCardId;\r\n    }\r\n}",
  "sourcePath": "C:\\Users\\Lan\\CryptoCards\\contracts\\CryptoCardsBase.sol",
  "compiler": {
    "name": "solc",
    "version": "0.4.19+commit.c4cbbb05.Emscripten.clang"
  },
  "schemaVersion": "1.0.1",
  "updatedAt": "2018-04-07T22:46:48.743Z"
}